:100000000C9435050C94BA1E0C94E71E0C945D05F7
:100010000C945D050C945D050C945D050C945D05D8
:100020000C945D050C945D050C945D050C94F12712
:100030000C945D050C945D050C945D050C945D05B8
:100040000C94BE1D0C945D050C94DC240C941625B8
:100050000C945D050C945D050C945D050C945D0598
:100060000C94272F0C945D05036EDB363D9A99990D
:10007000993DABAAAA2A3E000000803F084AD73B20
:100080003BCE016E84BCBFFDC12F3D6C74319ABD67
:1000900056833DDA3D00C77F11BED9E4BB4C3E918B
:1000A0006BAAAABE000000803F072C7AA5BA6CC5D7
:1000B00090DA3B9365FC8BBC53F810FD3C56928361
:1000C0004DBD879D3AB63DCBC9BF5BBE73DA0FC944
:1000D0003F004368616E6765004368616E67650055
:1000E0005374617274004465627574206465207491
:1000F000657374005265736574206779726F207040
:1001000061746800526573657420494D5500464915
:10011000464F206F766572666C6F77210029004428
:100120004D5020496E697469616C697A6174696FB8
:100130006E206661696C65642028636F64652000C9
:1001400001B202FFFF0190040923A135016A0206F2
:100150000001600800000000000000000060044092
:100160000000000162020000006004004000000383
:100170007B034CCD6C03AB0336567600680402CB90
:1001800047A202180400058BC1010C040000000006
:10019000037F060CC92C97979703890326466600B0
:1001A0006C02200002400400000000024404000031
:1001B000000002480400000000024C04000000009F
:1001C0000250040000000002540400000000025825
:1001D0000400000000025C040000000002BC0400F7
:1001E00000000001EC0400004000037F060CC92C55
:1001F0009797970402030D355D040904872D353D5B
:1002000000A3010000000001078601FE074105F17F
:1002100020283038077E01300746019A074704F14D
:10022000283038076C04F12830380216020009FB28
:1002300000003E000B003600010002000300000039
:10024000650054FFEF0000FA80000B1282000100ED
:10025000020000000000000000000000000000009C
:10026000280000FFFF4581FFFFFA72000000000038
:100270000003E80000000100017FFFFFFE80010095
:100280001B00000000000000000000000000000053
:100290003E03304000000002CAE3093E8000002017
:1002A000000000000000004000000060000000416D
:1002B000FF000000000B2A0000165500002182FDFF
:1002C000872650FD800000001F0000000580000010
:1002D00000000000010000000200000003000040D8
:1002E0000000000000046F0002653200005EC040A4
:1002F000000000000000000000000000000000FB03
:100300008C6F5DFD5D08D9007C733B006C12CC32B4
:1003100000139D3200D0D632000800400001F4FFE7
:10032000E68079020000000000D0D600002710FB14
:10033000000000400000000000000000000000007D
:1003400000000100000000000001000100000000AA
:1003500000FA36FFBC308E0005FBF0FFD95BC8FF0A
:10036000D09ABE000010A9FFF41EB200CEBBF70069
:1003700000000100000004000200020200000CFF67
:10038000C280000001800000CF800040000000001B
:100390000000010000000000000600000000140042
:1003A000000000000000000000000000000000004D
:1003B000000000000000000000000000000000003D
:1003C000000000000000000000000000000000002D
:1003D000000000033F68B6793528BCC67ED16C802A
:1003E000000000400000000000B26A0000000000B1
:1003F0000000000000000000003FF000000030009E
:1004000000000000000000000000000000000000EC
:1004100000000000000000000000000000000000DC
:1004200000254D002F706D000005AE000C02D000BD
:1004300000000000650054FFEF0000000000000015
:100440000001000044000000000C0000000100005A
:100450000000000065000000540000FFEF000000F5
:10046000000000000000000000000000000000404C
:10047000000000000000000000000000000000403C
:10048000000000000000000000000000000000006C
:100490000000010000000200000000000000000059
:1004A000000000000000000000000000000000004C
:1004B000000000000000000000000000000000003C
:1004C0001B00000000000000000000000000000011
:1004D000000000000000000000000000000000001C
:1004E00000000000000000000000004000000000CC
:1004F0001B000000000000000000000000000000E1
:1005000000000000000000000000000000000000EB
:1005100000000000000000000000000000000000DB
:10052000000000000000000000000000000000D8F3
:10053000DCBAA2F1DEB2B8B4A88191F74A907F91FB
:100540006AF3F9DBA8F9B0BAA080F2CE81F3C2F168
:10055000C1F2C3F3CCA2B280F1C6D880BAA7DFDF64
:10056000DFF2A7C3CBC5B6F087A2942448703C95B0
:10057000406834589B78A2F183922D557DD8B1B450
:10058000B8A1D09180F270F370F27C80A8F101B034
:100590009887D943D886C988BAA1F20EB89780F156
:1005A000A9DFDFDFAADFDFDFF2AAC5CDC7A90CC94B
:1005B0002C97979797F1A989264666B0B4BA80AC74
:1005C000DEF2CAF1B28C02A9B69800890E161EB8E6
:1005D000A9B4992C547CB08AA896365676F1B9AF56
:1005E000B4B083C0B8A89711B18F98B9AFF0240800
:1005F00044106418F1A329557DAF83B593AFF00083
:100600002850F1A3869F61A6DADEDFD9FAA3869689
:10061000DB31A6D9F8DFBAA68FC2C5C7B28CC1B884
:10062000A2DFDFDFA3DFDFDFD8D8F1B8A8B286B45E
:10063000980D355DB8AA98B0872D353DB2B6BAAFE2
:100640008C96198F9FA70E161EB49AB8AA872C54A1
:100650007CB9A3DEDFDFA3B180F2C4CDC9F1B8A9B4
:10066000B499830D355D89B9A32D557DB593A30E3E
:10067000161EA92C547CB8B4B0F19783A81184A598
:100680000998A383F0DA240844106418D8F1A52946
:10069000557DA58595021A2E3A565A4048F9F3A37E
:1006A000D9F8F098832408441064189782A8F111AF
:1006B000F098A2240844106418DAF3DED883A594D5
:1006C00001D9A302F1A2C3C5C7D8F18492A24DDA21
:1006D0002AD84869D92AD86855DA32D85071D9321F
:1006E000D8705DDA3AD85879D93AD87893A34DDAE8
:1006F0002AD84869D92AD86855DA32D85071D932FF
:10070000D8705DDA3AD85879D93AD878A88A9AF068
:100710002850789EF38818F19F1D98A8D908D8C84A
:100720009F129EF315A8DA1210D8F1AFC89787343C
:10073000B5B994A421F3D922D8F22DF3D92AD8F24D
:1007400035F3D932D881A4606061D961D86C686909
:10075000D969D8747071D971D8B1A384193D5DA3DA
:10076000831A3E5E931030811011B8B0AF8F94F2AF
:10077000DA3ED8B49AA88729DAF8D8879A35DAF811
:10078000D8879A3DDAF8D8B1B9A49885022E56A533
:1007900081000C14A397B08AF12DD928D84DD948DF
:1007A000D86DD968D8B1840DDA0ED8A32983DA2C94
:1007B0000ED8A3844983DA2C4C0ED8B8B0A88A9AF4
:1007C000F520AADADFD8A840AAD0DADED8A860AA35
:1007D000DAD0DFD8F19786A8319B069907AB972826
:1007E000889BF00C201440B8B0B4A88C9CF004286E
:1007F00051791D301438B282ABD0982C5050787893
:100800009BF11AB0F08A9CA82951798B2951798AD9
:100810002470598B2058718A4469388B3940688A12
:100820006448318B304960A58820097158446811AB
:100830003964493019F1AC002C547CF08CA80428A0
:100840005078F1889726A85998AC8C02264666F015
:10085000899CA8295179247059446938644831A980
:100860008809205970AB11384069A8193148608C4B
:10087000A83C415C207C00F187981986A86E767EA2
:10088000A999882D557D9EB9A38A228A6E8A568A97
:100890005E9FB183062646660E2E4E6E9DB8AD0055
:1008A0002C547CF2B18CB499B9A32D557D8191ACB7
:1008B00038AD3AB58391AC2DD928D84DD948D86DEB
:1008C000D968D88C9DAE29D904AED851D904AED8F8
:1008D00079D904D881F39DAD008DAE1981ADD901D0
:1008E000D8F2AEDA26D88E912983A7D9ADADADADB9
:1008F000F32AD8D8F1B0AC89913E5E76F3AC2E2EB7
:10090000F1B18C5A9CAC2C2828289CAC3018A898A3
:100910008128343C9724A728343C9C24F2B089AC2D
:10092000912C4C6C8A9B2DD9D8D851D9D8D879D94B
:10093000D8D8F19E88A331DAD8D8912DD928D84DAE
:10094000D948D86DD968D8B18393353D8025DAD898
:10095000D88569DAD8D8B49381A328343CF3AB8B1B
:10096000F8A391B609B4D9ABDEFAB0879CB9A3DD80
:10097000F1A3A3A3A395F1A3A3A39DF1A3A3A3A371
:10098000F2A3B49080F2A3A3A3A3A3A3A3A3A3A3BE
:10099000B2A3A3A3A3A3A3B087B599F1A3A3A398DC
:1009A000F1A3A3A3A397A3A3A3A3F39BA3A3DCB93E
:1009B000A7F1262626D8D8FF494D5520496E6974DF
:1009C0000045534320537461727400494D552049CA
:1009D0006E6974005468726F74746C6520446F772C
:1009E0006E004553432043616C6962726174696FA4
:1009F0006E005468726F74746C6520557000546892
:100A0000726F74746C6520446F776E00000000078D
:100A100000020100000304060000000000000000C6
:100A20000102040810204080010204081020010285
:100A30000408102004040404040404040202020252
:100A40000202030303030303000000002300260047
:100A5000290000000000250028002B0000000000F5
:100A6000240027002A00D9256E2A11241FBECFEFAB
:100A7000D8E0DEBFCDBF12E0A0E0B1E0E8E1F3E7EF
:100A800002C005900D92A031B107D9F723E0A0E193
:100A9000B2E001C01D92AB3BB207E1F715E0C5E340
:100AA000D5E004C02197FE010E94E536C333D1078B
:100AB000C9F70E943C060C948A390C940000CF922E
:100AC000DF92EF92FF920F931F93CF93DF93CDB7F7
:100AD000DEB7A5970FB6F894DEBF0FBECDBF7C0181
:100AE0006AEC71E0CE014F960E94AA206AEC71E098
:100AF000CE0148960E94AA2060E070E0CE014F9699
:100B00000E94D72060E070E0CE0148960E94D72076
:100B10008E010F5F1F4F80E1F80111928A95E9F76E
:100B200086E292E00E944324181619060CF08DC04C
:100B30004BE466E272E0CE0141960E941B24BE01A6
:100B40006F5E7F4FCE014F960E94C020CE0141962E
:100B50000E943C2060E070E0CE014F960E945F2131
:100B6000811173C066E272E0CE0141960E940124B9
:100B7000BE016F5E7F4FCE0148960E94C020CE011D
:100B800041960E943C2068EA71E0CE0141960E94A5
:100B9000AA20BE016F5E7F4FCE0148960E942F2192
:100BA0006C01CE0141960E943C20CD28D1F469ED24
:100BB00070E086E292E00E940622CE014F960E94EB
:100BC0007E210E94373420E03CE947E457E40E944C
:100BD000B1356D877E878F87988BB801C7010E94DA
:100BE00089076AEA71E0CE0141960E94AA20BE01FF
:100BF0006F5E7F4FCE0148960E942F216C01CE017F
:100C000041960E943C20CD28D1F462ED70E086E24E
:100C100092E00E940622CE014F960E947E210E9401
:100C2000373420E030EE45EB56E40E94B1356D8755
:100C30007E878F87988BB801C7010E94FB0760E011
:100C400070E0CE014F960E94D720CE0148960E94B8
:100C50003C20CE014F960E943C20A5960FB6F894FA
:100C6000DEBF0FBECDBFDF91CF911F910F91FF90DF
:100C7000EF90DF90CF900895CF93DF93CDB7DEB79D
:100C8000C85AD1090FB6F894DEBF0FBECDBF0E947F
:100C90005F1E61E08DE00E943D1F40E052EC61E08C
:100CA00070E086E292E00E94512541E050E060E071
:100CB00070E086E292E00E94FB2366EE70E086E23E
:100CC00092E00E94062282E291E00E9441248C017F
:100CD0000E94900910931702009316028FE091E092
:100CE0000E9441248C010E94300D10931502009344
:100CF000140286E290E00E9441248C010E949F1C15
:100D0000109313020093120285E190E00E944124A7
:100D10008C010E94921A1093110200931002C801D4
:100D20000E94AB1A8E010F571F4F88E1F8011192F4
:100D30008A95E9F77E01F9E9EF0EF11C80E1F701F0
:100D400011928A95E9F760EE70E086E292E00E94E7
:100D50000622812C912C54016801FCE0CF0ED11C9D
:100D60000E94081EDC01CB0188199909AA09BB0958
:100D70004A97A105B10508F449C00E94081E4B011D
:100D80005C0180911002909111020E94741B80916D
:100D90001602909117020E94190C809112029091F4
:100DA00013020E94701C80911402909115020E94FF
:100DB000060E80911602909117020E945F05B801FD
:100DC00080911402909115020E94E40DB601809169
:100DD0001402909115020E94F50DB7018091160240
:100DE000909117020E94EF08BE016F5B7F4F8091C8
:100DF0001602909117020E945D0CBE016F5F7F4F3B
:100E000080911602909117020E946E0C61E070E0D2
:100E100080E090E00E94391EA3CFCF92DF92EF9244
:100E2000FF922BED3FE049EC50E40E947D346B01D2
:100E30007C012BED3FE049E450EC0E94883318160A
:100E40004CF02BED3FE049EC50E4C701B6010E94A5
:100E50008F3212C02BED3FE049E450E4C701B601E8
:100E60000E94A435181654F42BED3FE049EC50E4F1
:100E7000C701B6010E948E326B017C01C701B60129
:100E8000FF90EF90DF90CF900895AF92BF92CF92F6
:100E9000DF92EF92FF920F931F93CF93DF936C013A
:100EA0005A01FB0121913191419151918F01F6013C
:100EB00061917191819191917F010E948E32E50142
:100EC0006993799389939993F0E1CF0ED11CF7013F
:100ED00061917191819191917F01F80121913191FD
:100EE000419151918F010E948E320E940D076993AA
:100EF000799389939993EC14FD0449F7DF91CF918D
:100F00001F910F91FF90EF90DF90CF90BF90AF9027
:100F100008954F925F926F927F928F929F92AF92BD
:100F2000BF92CF92DF92EF92FF920F931F93CF93D6
:100F3000DF93CDB7DEB7C054D1090FB6F894DEBF4A
:100F40000FBECDBF8C014B0180E4E8E0F1E0DE0193
:100F5000119601900D928A95E1F7CE0101967C01E0
:100F60002E0191E4490E511C3B01E0E16E0E711C13
:100F700054016701F50121913191419151915F0136
:100F8000F60160817181828193810E94B135F60101
:100F900061937193819391936F01A614B70451F7F4
:100FA000F0E1EF0EF11CE414F50411F70E591F4F98
:100FB00024E030E044E050E0BE016F5F7F4F80ED01
:100FC00092E00E941426C05CDF4F0FB6F894DEBF9B
:100FD0000FBECDBFDF91CF911F910F91FF90EF908A
:100FE000DF90CF90BF90AF909F908F907F906F9049
:100FF0005F904F9008954F925F926F927F928F9281
:101000009F92AF92BF92CF92DF92EF92FF920F9397
:101010001F93CF93DF93CDB7DEB7C054D1090FB67E
:10102000F894DEBF0FBECDBF8C014B0180E4E8E435
:10103000F1E0DE01119601900D928A95E1F7CE0163
:1010400001967C012E0191E4490E511C3B01E0E127
:101050006E0E711C54016701F5012191319141918E
:1010600051915F01F60160817181828193810E94BB
:10107000B135F60161937193819391936F01A61439
:10108000B70451F7F0E1EF0EF11CE414F50411F789
:101090000E551F4F24E030E044E050E0BE016F5F8A
:1010A0007F4F80ED92E00E941426C05CDF4F0FB6A8
:1010B000F894DEBF0FBECDBFDF91CF911F910F918E
:1010C000FF90EF90DF90CF90BF90AF909F908F9068
:1010D0007F906F905F904F9008954F925F926F92C4
:1010E0007F928F929F92AF92BF92CF92DF92EF92B8
:1010F000FF920F931F93CF93DF93CDB7DEB7C0540A
:10110000D1090FB6F894DEBF0FBECDBF8C014B01E5
:1011100080E4E8E0F1E0DE01119601900D928A95FD
:10112000E1F7CE0101967C012E0191E4490E511C9C
:101130003B01E0E16E0E711C54016701F501219144
:101140003191419151915F01F601608171818281FC
:1011500093810E94B135F6016193719381939193CC
:101160006F01A614B70451F7F0E1EF0EF11CE4147F
:10117000F50411F70E511F4F24E030E044E050E039
:10118000BE016F5F7F4F80ED92E00E941426C05C2D
:10119000DF4F0FB6F894DEBF0FBECDBFDF91CF910A
:1011A0001F910F91FF90EF90DF90CF90BF90AF9085
:1011B0009F908F907F906F905F904F9008950F93C6
:1011C0001F938C01045F1F4F21E030E044E050E0AA
:1011D00080ED92E00E9414261F910F9108950F93C5
:1011E0001F930C968B0121E030E044E050E0BC01FD
:1011F00080ED92E00E9414261F910F9108950F93A5
:101200001F93CF93DF93EC018B01FB014081518150
:10121000628173818D960E949D0CF80144815581F5
:1012200066817781CE01CA960E949D0CF8014085A7
:10123000518562857385CE01895B9F4F0E949D0C0D
:10124000F8014485558566857785CE018C5A9F4F78
:10125000DF91CF911F910F910C949D0CCF93DF9351
:10126000EC018D960E94FC0CCE01CA960E94FC0CEB
:10127000CE01895B9F4F0E94FC0CCE018C5A9F4F80
:10128000DF91CF910C94FC0CCF93DF93EC018D9602
:101290000E94090DCE01CA960E94090DCE01895BFC
:1012A0009F4F0E94090DCE018C5A9F4FDF91CF9125
:1012B0000C94090DEF92FF920F931F93CF93DF933E
:1012C000CDB7DEB760970FB6F894DEBF0FBECDBFC7
:1012D0007C01BE016F5F7F4F80E1FB0111928A9517
:1012E000E9F78701045E1F4F21E030E044E050E061
:1012F00080ED92E00E9414260E94081EF70160878C
:1013000071878287938760960FB6F894DEBF0FBE11
:10131000CDBFDF91CF911F910F91FF90EF90089576
:101320005F926F927F928F929F92AF92BF92CF9275
:10133000DF92EF92FF920F931F93CF93DF93CDB77E
:10134000DEB7C054D1090FB6F894DEBF0FBECDBFD3
:101350008C014C018DE2880E911CC4010E947F0C0F
:101360005801EAE3AE0EB11CC5010E947F0C680172
:10137000F7E4CF0ED11CC6010E947F0C780184E5F2
:10138000E80EF11CC7010E947F0C0E94081EF801A4
:10139000608371838283938382E390E0A0E0B0E076
:1013A00084839583A683B78380E1E8E8F1E0DE01DA
:1013B000D19601900D928A95E1F780E1E8E9F1E09C
:1013C000DE01919601900D928A95E1F780E1582E09
:1013D0003E01F1E16F0E711CF301852D11928A958A
:1013E000E9F7BE016F5C7F4FC8010E948907BE010B
:1013F0006F5D7F4FC8010E94FB07B301C8010E94C7
:101400006D08BE016F5F7F4FFB0111925A94E9F79F
:10141000C8010E94DF08C8010E945A09F80114A6F9
:1014200066E070E0C4010E94160D69E070E0C5013D
:101430000E94160D6AE070E0C6010E94160D6BE076
:1014400070E0C7010E94160DF801EF59FF4F10829E
:10145000C05CDF4F0FB6F894DEBF0FBECDBFDF918B
:10146000CF911F910F91FF90EF90DF90CF90BF90A1
:10147000AF909F908F907F906F905F9008957F9234
:101480008F929F92AF92BF92CF92DF92EF92FF9294
:101490000F931F93CF93DF93CDB7DEB7E0970FB6CF
:1014A000F894DEBF0FBECDBF8C010E94081EF8016C
:1014B000C084D184E284F3849B01AC012C193D09E2
:1014C0004E095F0969017A010E94081EF8016087D0
:1014D00071878287938780E1782E4E01F1E28F0E2B
:1014E000911CF401272D11922A95E9F7B4018091FE
:1014F0001402909115020E94860D5E0131E1A30E47
:10150000B11CF501272D11922A95E9F7B501C80103
:101510000E94EF08AE014F5F5F4FFA0111927A947B
:10152000E9F7B401C5010E944507C701B6010E9451
:1015300037346B017C0129813A814B815C810E94A7
:10154000B13520E030E04AE754E40E948D339B013E
:10155000AC01F801648D758D868D978D0E948F3258
:10156000F801648F758F868F978F2D813E814F8113
:101570005885C701B6010E94B13520E030E04AE746
:1015800054E40E948D339B01AC01F80160A171A16C
:1015900082A193A10E948F32F80160A371A382A35C
:1015A00093A329853A854B855C85C701B6010E94C6
:1015B000B13520E030E04AE754E40E948D339B01CE
:1015C000AC01F80164A175A186A197A10E948F3298
:1015D000F80164A375A386A397A32D853E854F8547
:1015E0005889C701B6010E94B13520E030E04AE7D2
:1015F00054E40E948D339B01AC01F80160A571A5F4
:1016000082A593A50E948F32F80160A771A782A7D7
:1016100093A7E0960FB6F894DEBF0FBECDBFDF9163
:10162000CF911F910F91FF90EF90DF90CF90BF90DF
:10163000AF909F908F907F9008950F931F934C963B
:101640008B0121E030E044E050E0BC0180ED92E00D
:101650000E9414261F910F9108953F924F925F921E
:101660006F927F928F929F92AF92BF92CF92DF92B2
:10167000EF92FF920F931F93CF93DF93CDB7DEB717
:10168000C459D1090FB6F894DEBF0FBECDBF5C01BF
:10169000CD56DF4F79836883C359D0408E010F57F1
:1016A0001F4F80E1382EF801832D11928A95E9F7BA
:1016B0003E0191E7690E711CF301832D11928A9509
:1016C000E9F7FE01EF59FF4F832D11928A95E9F753
:1016D0002E0191E5490E511CF201832D11928A953C
:1016E000E9F74E0191E4890E911CF401832D1192CA
:1016F0008A95E9F7B80180911402909115020E9431
:10170000860DB30180911402909115020E94B50DCF
:10171000BE016F597F4FC5010E941D0BB201C5016B
:101720000E94EF08A401B801C2010E9445072E01E2
:1017300091E3490E511CF201832D11928A95E9F72C
:10174000B5016E597F4F6201EE24E394F12C04E061
:1017500010E024E030E0A40180ED92E00E946526D4
:101760004E0191E2890E911CF401832D11928A950C
:10177000E9F7B5016E557F4F640124E030E0A30125
:1017800080ED92E00E9465263E0191E1690E711C98
:10179000F301832D11928A95E9F7730101E010E0BE
:1017A00024E030E0A401B20180ED92E00E942627FF
:1017B000FE0131964F0111923A94E9F7B5016E514D
:1017C0007F4F6401EE24E394F12C04E010E024E068
:1017D00030E0AE014F595F4F80ED92E00E946526E8
:1017E000CD56DF4FE880F980C359D04001E010E0CA
:1017F00024E030E0A401B30180ED92E00E942627AE
:10180000CC56DF4F0FB6F894DEBF0FBECDBFDF91D1
:10181000CF911F910F91FF90EF90DF90CF90BF90ED
:10182000AF909F908F907F906F905F904F903F9080
:101830000895EF92FF920F931F93CF93DF93CDB74D
:10184000DEB760970FB6F894DEBF0FBECDBFFC01C8
:10185000EF59FF4F20812223C1F08C01FC0184A5A8
:10186000882319F0C8010E943F0ACE0101967C012D
:1018700080E1F70111928A95E9F7B701C8010E944A
:101880002D0BB701C8010E94FF0860960FB6F894AF
:10189000DEBF0FBECDBFDF91CF911F910F91FF90A3
:1018A000EF900895FC01EF59FF4F81E08083089588
:1018B000FC01EF59FF4F108208950F931F938E592B
:1018C0009F4F8B0124E030E044E050E0BC0180ED0C
:1018D00092E00E9414261F910F9108950F931F9379
:1018E0008E559F4F8B0124E030E044E050E0BC0176
:1018F00080ED92E00E9414261F910F910895CF93DE
:10190000DF93EC010E94B2281C821B8288E690E1E2
:10191000A0E0B0E08D839E83AF83B88788EE93E02C
:10192000A0E0B0E089879A87AB87BC8766E070E06B
:10193000CE01DF91CF910C945029CF92DF92EF929C
:10194000FF92CF93DF93EC016A017B016D817E8171
:101950008F8198859B01AC010E9474360E943734B8
:101960009B01AC01C701B6010E948F326B017C0163
:1019700020E030E0A9010E94A435181624F0F7FAFF
:10198000F094F7F8F094C701B6010E94243620E0E5
:1019900030E04AE754E40E94B13520E030EE4BE2FB
:1019A00056E40E948D3320E030E04AE754E40E9480
:1019B0008F320E940634613D27E072078105910550
:1019C00020F060ED77E080E090E0683E23E0720771
:1019D0008105910520F468EE73E080E090E069876E
:1019E0007A878B879C87CE01DF91CF91FF90EF9014
:1019F000DF90CF900C94642940ED57E060E070E0F8
:101A0000FC01418752876387748760ED77E00C940F
:101A1000642948EE53E060E070E0FC0141875287A2
:101A20006387748768EE73E00C9464290F931F93A7
:101A3000CF93DF9300D0CDB7DEB78C01FC01748368
:101A4000638369837A830E94562969817A81C801F8
:101A50000F900F90DF91CF911F910F910C9450290F
:101A6000CF93DF93EC010E947517FE01EE5FFE4FEE
:101A7000108235961082118212821382349610825F
:101A8000118212821382CE0123E030E0FC01E65580
:101A9000FF4F10821182128213823C9610821182B3
:101AA000128213823C9610821182128213823C961B
:101AB00010821182128213827C961082118212820D
:101AC00013823C96108211821282138221503109B6
:101AD000049621153105D1F6FE01E652FF4F108222
:101AE0001182128213823496108211821282138222
:101AF00034961082118212821382CA51DF4F1882EB
:101B000019821A821B82DF91CF910895DB01FC01BB
:101B1000EE54FF4F40815181628173814D935D93FB
:101B20006D937C931397F896408151816281738104
:101B300014964D935D936D937C93179734964081E3
:101B400051816281738118964D935D936D937C935F
:101B50001B97349640815181628173811C964D930D
:101B60005D936D937C931F970895DB01FC01E25414
:101B7000FF4F40815181628173814D935D936D93DD
:101B80007C931397F89640815181628173811496FA
:101B90004D935D936D937C9317973496408151815B
:101BA0006281738118964D935D936D937C931B971F
:101BB000349640815181628173811C964D935D936F
:101BC0006D937C931F9708950F931F9386519F4F9A
:101BD0008B0121E030E043E050E0BC0180ED92E079
:101BE0000E9414261F910F9108950F931F938A50FE
:101BF0009F4F8B0121E030E043E050E0BC0180EDDD
:101C000092E00E9414261F910F9108954F925F92C7
:101C10006F927F928F929F92AF92BF92CF92DF92FC
:101C2000EF92FF920F931F93CF93DF93CDB7DEB761
:101C3000E0970FB6F894DEBF0FBECDBF6C018C01EC
:101C40000E5F1E4F7C018DEFE81A8EEFF80AF80147
:101C5000808181110DC0C6010E940C18F80180839B
:101C60000E94081EF7016083718382839383EFCF04
:101C700018E14E01F9E18F0E911CF401812F1192B0
:101C80008A95E9F7C6010E946218B401C6010E9454
:101C9000DE19BE016B5D7F4FC6010E94EF19FE0188
:101CA00031965F0111921A95E9F7B501C6010E94BC
:101CB000E40DBE01635F7F4FC6010E94F50D360142
:101CC000F9EF6F1AFEEF7F0AF301E080F1800281E5
:101CD000138121E030E043E050E0B50180ED92E077
:101CE0000E949F272601F5EF4F1AFEEF5F0AF201CF
:101CF000E080F1800281138121E030E043E050E098
:101D0000BE01635F7F4F80ED92E00E949F27F30149
:101D1000208131814281538160E070E080E89FE35F
:101D20000E948E327B018C0121E030E043E050E0E4
:101D3000B40180ED92E00E949F27F2012081318161
:101D40004281538160E070E080E89FE30E948E3220
:101D50007B018C0121E030E043E050E0BE016B5D8F
:101D60007F4F80ED92E00E949F27750101E010E017
:101D700026E030E0A401B50180ED92E00E94262724
:101D8000860106511F4F21E030E043E050E0B501ED
:101D900080ED92E00E941426045F1F4F21E030E0A6
:101DA00043E050E0BE01635F7F4F80ED92E00E9410
:101DB0001426E0960FB6F894DEBF0FBECDBFDF91BC
:101DC000CF911F910F91FF90EF90DF90CF90BF9038
:101DD000AF909F908F907F906F905F904F900895FD
:101DE0000E944D1A64E071E086E292E00C940622B3
:101DF0000F931F93CF93DF93EC010E94081EFE0107
:101E0000ED5FFE4F0081118122813381DC01CB0126
:101E1000801B910BA20BB30B81329E44A105B1052F
:101E200058F064EF70E086E292E00E940622CE0154
:101E30000E94F00E81E001C080E0DF91CF911F9100
:101E40000F91089581E08093180208954F925F9258
:101E50006F927F928F929F92AF92BF92CF92DF92BA
:101E6000EF92FF920F931F93CF93DF93CDB7DEB71F
:101E700068970FB6F894DEBF0FBECDBF8C01FB0193
:101E80008BA59CA5ADA5BEA58D879E87AF87B88B7A
:101E90008FA598A9A9A9BAA9898B9A8BAB8BBC8B62
:101EA0008BA99CA9ADA9BEA98D8B9E8BAF8BB88F3A
:101EB0008FA898ACA9ACBAACC080D180E280F38086
:101EC00084819581A681B78189839A83AB83BC8302
:101ED00080859185A285B3858D839E83AF83B887E6
:101EE00084859585A685B78589879A87AB87BC87C2
:101EF0002D853E854F855889C701B6010E94B135B1
:101F00002B013C0129893A894B895C8969817A8155
:101F10008B819C810E94B1359B01AC01C301B20150
:101F20000E948E322B013C012D893E894F89588DAC
:101F30006D817E818F8198850E94B1359B01AC01B6
:101F4000C301B2010E948E322B013C01A501940114
:101F500069857A858B859C850E94B1359B01AC0192
:101F6000C301B2010E948E32D8016D937D938D938F
:101F70009C93139729893A894B895C89C701B601DB
:101F80000E94B1352B013C012D853E854F85588936
:101F900069817A818B819C810E94B1359B01AC0162
:101FA000C301B2010E948F322B013C01A5019401B3
:101FB0006D817E818F8198850E94B1359B01AC0136
:101FC000C301B2010E948F322B013C012D893E8951
:101FD0004F89588D69857A858B859C850E94B1359E
:101FE0009B01AC01C301B2010E948E32F8016483EF
:101FF0007583868397832D893E894F89588DC701C4
:10200000B6010E94B1352B013C01A5019401698103
:102010007A818B819C810E94B1359B01AC01C30107
:10202000B2010E948E322B013C012D853E854F85E9
:1020300058896D817E818F8198850E94B1359B0181
:10204000AC01C301B2010E948F322B013C012989EE
:102050003A894B895C8969857A858B859C850E9444
:10206000B1359B01AC01C301B2010E948F32D8018E
:1020700018966D937D938D939C931B97A501940166
:10208000C701B6010E94B1356B017C012D893E89E3
:102090004F89588D69817A818B819C810E94B135ED
:1020A0009B01AC01C701B6010E948F326B017C011C
:1020B00029893A894B895C896D817E818F819885D8
:1020C0000E94B1359B01AC01C701B6010E948E325E
:1020D0006B017C012D853E854F85588969857A8500
:1020E0008B859C850E94B1359B01AC01C701B6016F
:1020F0000E948F32F8016487758786879787C801A9
:1021000068960FB6F894DEBF0FBECDBFDF91CF91BA
:102110001F910F91FF90EF90DF90CF90BF90AF9005
:102120009F908F907F906F905F904F9008954F9207
:102130005F926F927F928F929F92AF92BF92EF9237
:10214000FF920F931F93CF93DF93CDB7DEB7E09746
:102150000FB6F894DEBF0FBECDBF8C017B01FC0132
:1021600064817581072E000C880B990B0E9437340F
:102170004B015C01F80162817381072E000C880B12
:10218000990B0E9437342B013C01F8018081918129
:10219000BC01990F880B990B0E943734198A1A8A4F
:1021A0001B8A1C8A6D8B7E8B8F8B988F498E5A8EE3
:1021B0006B8E7C8E8D8E9E8EAF8EB8A28DB79EB7A5
:1021C00040970FB6F8949EBF0FBE8DBFADB7BEB798
:1021D000119680E1FE01719601900D928A95E1F7CA
:1021E000B701CE0181960E94260F80E1FE01B196D3
:1021F000DE01519601900D928A95E1F7F7018485F1
:102200009585A685B785B0584085518562857385CB
:10221000705884809580A680B780B7FAB094B7F8DC
:10222000B094408051806280738049825A826B8270
:102230007C828D829E82AF82B88649875A876B875F
:102240007C878D879E87AF87B88B8DB79EB7409769
:102250000FB6F8949EBF0FBE8DBFADB7BEB7119637
:1022600080E1FE01319601900D928A95E1F7BE0161
:102270006F5E7F4FCE0181960E94260F80E1FE01A6
:10228000B196DE01519601900D928A95E1F76D8924
:102290007E898F89988D0E94FF33F8017183608356
:1022A000698D7A8D8B8D9C8D0E94FF33F80173832D
:1022B00062836D8D7E8D8F8D98A10E94FF33F80112
:1022C000758364830FB6F894DEBF0FBECDBFE09672
:1022D0000FB6F894DEBF0FBECDBFDF91CF911F9137
:1022E0000F91FF90EF90BF90AF909F908F907F9055
:1022F0006F905F904F9008958F929F92AF92BF9290
:10230000CF92EF920F931F93CF93DF93CDB7DEB7AA
:10231000C059D1090FB6F894DEBF0FBECDBF5C0126
:102320000E94FE2A6EE170E080E090E00E94391E7B
:1023300060E0C5010E94052B21E041E060E1C5019C
:102340000E94112C66E0C5010E941C2CC5010E9450
:10235000222C20E040E060E0C5010E94112CC50164
:102360000E94582BC5010E94762B182FC5010E9490
:102370009D2B882EC5010E94C42B982E4FE760E04C
:10238000C5010E94BF2A60E0C5010E94E92A48E613
:1023900060E0C5010E94BF2AC5010E94F72A64E1DE
:1023A00070E080E090E00E94391EEE24E39400E0AB
:1023B00020E049E857E06FE272E0C5010E947F2DFE
:1023C000882309F40EC240EC50E06FE671E0C501CD
:1023D0000E943B2E882309F406C263E0C5010E94D7
:1023E0000C2B62E1C5010E94CA2A64E0C5010E946B
:1023F000752A61E0C5010E947B2A63E0C5010E9445
:10240000862A63E0C5010E94912A63E0C5010E940B
:102410003E2E60E0C5010E94442E60E0C5010E948E
:102420006F2B612FC5010E94922B682DC5010E9460
:10243000B92B692DC5010E94E02B812C912CF40150
:10244000E05CFE4FE491A1E8B0E0AC0FBD1FA80D29
:10245000B11DEC9381E0880D9FEF891A990AE3E0A2
:10246000E81568F7CD57DF4F4881C358D04050E09A
:102470009A012E5F3F4F90E02817390704F7C12CCF
:10248000EE24E394CE57DF4F0881C258D040CF5797
:10249000DF4F2881C158D04061E870E06C0F7D1F8C
:1024A0006D5F7F4FC5010E949E2C80E0F401E05CCF
:1024B000FE4FE491A1E8B0E0AC0FBD1FA80FB11D25
:1024C000EC938F5FFFEF8F1A9F0A843078F3CD571C
:1024D000DF4F4881C358D04050E0BA016E5F7F4F54
:1024E000282F30E0621773070CF7C12CEE24E39419
:1024F000CE57DF4F0881C258D040CF57DF4F2881D9
:10250000C158D04061E870E06C0F7D1F6D5F7F4F58
:10251000C5010E949E2CC5010E94F02AC5010E949F
:102520002B2B482FBE016F5F7F4FC5010E94492BA7
:1025300062E0C5010E94A72A6CE9C5010E94B32A86
:1025400060E5C5010E94AD2A60E0C5010E94B92A7C
:10255000C5010E94F02A61E0C5010E94E22A61E003
:10256000C5010E94032CC5010E940A2C80E0F401E1
:10257000E05CFE4FE491A1E8B0E0AC0FBD1FA80FF6
:10258000B11DEC938F5F9FEF891A990A843078F31D
:10259000CD57DF4F4881C358D04050E0BA016E5F3D
:1025A0007F4F282F30E0621773070CF7C12CEE2401
:1025B000E394CE57DF4F0881C258D040CF57DF4F4A
:1025C0002881C158D04061E870E06C0F7D1F6D5FBD
:1025D0007F4FC5010E949E2C80E0F401E05CFE4F1D
:1025E000E491A1E8B0E0AC0FBD1FA80FB11DEC93C2
:1025F0008F5FEFEF8E1A9E0A843078F3CD57DF4F4E
:102600004881C358D04050E0BA016E5F7F4F282FF9
:1026100030E0621773070CF7C12CEE24E394CE5719
:10262000DF4F0881C258D040CF57DF4F2881C158B3
:10263000D04061E870E06C0F7D1F6D5F7F4FC5017A
:102640000E949E2C80E0F401E05CFE4FE491A1E842
:10265000B0E0AC0FBD1FA80FB11DEC938F5FFFEF73
:102660008F1A9F0A843078F3CD57DF4F4881C358C3
:10267000D04050E0BA016E5F7F4F282F30E06217E4
:1026800073070CF7C12CEE24E394CE57DF4F08817B
:10269000C258D040CF57DF4F2881C158D04061E8A1
:1026A00070E06C0F7D1F6D5F7F4FC5010E949E2CF7
:1026B000C5010E942B2B83309105D0F3482FBE011A
:1026C0006F5F7F4FC5010E94492BC5010E94D02A30
:1026D00080E0F401E05CFE4FE491A1E8B0E0AC0FD3
:1026E000BD1FA80FB11DEC938F5F9FEF891A990A48
:1026F000843078F3CD57DF4F4881C358D04050E045
:10270000BA016E5F7F4F282F30E0621773070CF716
:10271000CE57DF4F0881C258D040CF57DF4F2881B6
:10272000C158D04061E870E06C0F7D1F6D5F7F4F36
:10273000C5010E94342CC5010E942B2B83309105CA
:10274000D0F3482FBE016F5F7F4FC5010E94492B18
:10275000C5010E94D02AF401E05CFE4F80E0949114
:10276000A1E8B0E0AC0FBD1FA80FB11D9C938F5F17
:10277000843010F43196F3CFCD57DF4F4881C358E2
:10278000D04050E0BA016E5F7F4F282F30E06217D3
:10279000730784F761E870E06C0F7D1F6D5F7F4FFA
:1027A000C12CEE24E394CE57DF4F0881C258D040AD
:1027B000CF57DF4F2881C158D040C5010E949E2CC1
:1027C00060E0C5010E94032C8AE290E0F50193834A
:1027D0008283C5010E94F02AC5010E94D02A80E0B0
:1027E00003C081E001C082E0C057DF4F0FB6F8940C
:1027F000DEBF0FBECDBFDF91CF911F910F91EF9044
:10280000CF90BF90AF909F908F900895CF93DF931C
:10281000DB01FA01309719F4EC01E881F981848D2C
:1028200090E0982F8827258D820F911D11969C93FB
:102830008E9380A190E0982F882721A1820F911D6F
:1028400013969C938E93129784A190E0982F8827DB
:1028500025A1820F911D15969C938E93149780E06D
:10286000DF91CF910895CF93DF93DB01FA01309789
:1028700019F4EC01E881F981808190E0982F882794
:102880002181820F911D11969C938E93848190E0FB
:10289000982F88272581820F911D13969C938E93E4
:1028A0001297808590E0982F88272185820F911DAF
:1028B00015969C938E931497848590E0982F882783
:1028C0002585820F911D17969C938E93169780E015
:1028D000DF91CF910895FF920F931F93CF93DF93D2
:1028E000CDB7DEB728970FB6F894DEBF0FBECDBFC9
:1028F0008B01BE016F5F7F4F0E943314F82E811150
:102900004CC069817A81072E000C880B990B0E94BC
:10291000373420E030E040E858E30E94B135F80158
:1029200060837183828393836B817C81072E000C8B
:10293000880B990B0E94373420E030E040E858E3E0
:102940000E94B135F80164837583868397836D8116
:102950007E81072E000C880B990B0E94373420E0F3
:1029600030E040E858E30E94B135F8016087718794
:10297000828793876F817885072E000C880B990BCF
:102980000E94373420E030E040E858E30E94B1353F
:10299000F80164877587868797878F2D28960FB6ED
:1029A000F894DEBF0FBECDBFDF91CF911F910F9185
:1029B000FF900895CF93DF93DB01FA01309719F46C
:1029C000EC01E881F981808990E0982F882721899E
:1029D000820F911D11969C938E93848990E0982F7D
:1029E00088272589820F911D13969C938E931297A9
:1029F000808D90E0982F8827218D820F911D15964C
:102A00009C938E93149780E0DF91CF9108958F92DD
:102A10009F92AF92BF92CF92DF92EF92FF920F936D
:102A20001F93CF93DF93EB017A018901FA01608153
:102A30007181072E000C880B990B0E9437344B01D3
:102A40005C0120E030E040E056E4F80160817181F3
:102A5000828193810E94B1359B01AC01C501B40113
:102A60000E948E320E94FF3379836883F70162816E
:102A70007381072E000C880B990B0E9437344B0191
:102A80005C0120E030E040E056E4F80164817581AB
:102A9000868197810E94B1359B01AC01C501B401CB
:102AA0000E948E320E94FF337B836A83F701648128
:102AB0007581072E000C880B990B0E9437346B012F
:102AC0007C0120E030E040E056E4F801608571854B
:102AD000828593850E94B1359B01AC01C701B60187
:102AE0000E948E320E94FF337D836C8380E0DF91F1
:102AF000CF911F910F91FF90EF90DF90CF90BF90FB
:102B0000AF909F908F900895CB01B90136E0FA0104
:102B1000DC0101900D923A95E1F70E94971080E058
:102B200008954F925F926F927F928F929F92AF9291
:102B3000BF92CF92DF92EF92FF920F931F93CF93AA
:102B4000DF93CDB7DEB728970FB6F894DEBF0FBE80
:102B5000CDBF8B01DA011496CD90DD90ED90FC9005
:102B600017971C964D905D906D907C901F978D905F
:102B70009D90AD90BC90139718968D919D910D905E
:102B8000BC91A02D89839A83AB83BC83A30192015E
:102B9000C701B6010E94B1356D837E838F8398870C
:102BA00029813A814B815C81C501B4010E94B13514
:102BB0009B01AC016D817E818F8198850E948E3250
:102BC0009B01AC010E948F32F80160837183828384
:102BD0009383A7019601C501B4010E94B1356D83AD
:102BE0007E838F839887A301920169817A818B818B
:102BF0009C810E94B1359B01AC016D817E818F81EA
:102C000098850E948F329B01AC010E948F32D801BF
:102C100014966D937D938D939C931797A5019401C2
:102C2000C501B4010E94B1354B015C01A7019601B9
:102C3000C701B6010E94B1359B01AC01C501B401C9
:102C40000E948E326B017C0129813A814B815C812B
:102C5000CA01B9010E94B1359B01AC01C701B6019F
:102C60000E948E326B017C01A3019201C301B2016B
:102C70000E94B1359B01AC01C701B6010E948F32A1
:102C8000F801608771878287938780E028960FB666
:102C9000F894DEBF0FBECDBFDF91CF911F910F9192
:102CA000FF90EF90DF90CF90BF90AF909F908F906C
:102CB0007F906F905F904F9008952F923F924F9228
:102CC0005F926F927F928F929F92AF92BF92CF92BC
:102CD000DF92EF92FF920F931F93CF93DF9300D079
:102CE00000D0CDB7DEB78B011A01FA01C080D180C8
:102CF000E280F380A7019601C701B6010E948F32DE
:102D000069837A838B839C83F10184809580A6807C
:102D1000B780A5019401C501B4010E948F322B0137
:102D20003C01A701960169817A818B819C810E9477
:102D3000B1356B017C01A5019401C301B2010E9470
:102D4000B1359B01AC01C701B6010E948F3220E072
:102D500030E040E85FE30E948E326B017C01F101BC
:102D60002085318542855385C301B2010E94B1356A
:102D70002B013C01F1012485358546855785698104
:102D80007A818B819C810E94B1359B01AC01C3018A
:102D9000B2010E948E32A70196010E942933F801E8
:102DA0006083718382839383F1016481758186815D
:102DB00097819B01AC010E948F32F10124853585FA
:102DC000468557850E94B1356B017C01F101608118
:102DD0007181828193819B01AC010E948F32F1014C
:102DE00020853185428553850E94B1359B01AC0118
:102DF000C701B6010E948F320E94FB32DC01CB0179
:102E0000B058F80184839583A683B783F10180804D
:102E10009180A280B380A5019401C501B4010E94F4
:102E20008F322B013C01F101C484D584E684F78400
:102E3000A50194010E94B1354B015C01A7019601E7
:102E4000C701B6010E948F32A70196010E94B135D9
:102E50009B01AC01C501B4010E948F3220E030E03B
:102E600040E85FE30E948E324B015C01F101608516
:102E70007185828593859B01AC010E948F32A701E9
:102E800096010E94B1356B017C01F10124813581ED
:102E900046815781C301B2010E94B1359B01AC014B
:102EA000C701B6010E948E32A50194010E94293308
:102EB000F801608771878287938780E00F900F9079
:102EC0000F900F90DF91CF911F910F91FF90EF9096
:102ED000DF90CF90BF90AF909F908F907F906F903A
:102EE0005F904F903F902F900895CF93DF93EC0128
:102EF00069E60E94722A1B8A1C8A1D8A198E188E06
:102F0000FE01E65AFF4F40E050E060E87FE3408377
:102F1000518362837383148215821682178210860E
:102F20001186128613861486158616861786DE018C
:102F3000A659BF4F4D935D936D937C931397149651
:102F40001D921D921D921C92179718961D921D920C
:102F50001D921C921B971C961D921D921D921C92F5
:102F60001F97509611961C921E9213961C921E92B9
:102F7000129715961C921E921497169611961C92F3
:102F80001E9213961C921E92129715961C921E92D8
:102F90001497169611961C921E9213961C921E92CE
:102FA000129715961C921E92149716961D921D92BA
:102FB0001D921C92139714961D921D921D921C92A5
:102FC000179718961D921D921D921C921B971C9686
:102FD0001D921D921D921C9213971C9611961C9285
:102FE0001E9218971D921D921D921C9213971A966D
:102FF00011961C921E9216971D921D921D921C9264
:10300000139718961D921C926A961992CE17DF0795
:10301000E1F7DF91CF910895CF93DF93EC0187EF34
:1030200092E00E94342A88E18093B800CE010E9489
:10303000172BCE010E947C118D8B6CED70E0CE01C0
:103040000E94F12B6CE470E0CE010E94F72B6BEA3A
:103050007FEFCE010E94FD2B62E876E0CE010E9458
:10306000EB2B8D89811117C061E0CE010E94032CEA
:1030700043E050E062E27FE080E00E949A1ECE01D1
:103080000E94D02A8C8B81E08B8B8A819B819F8BC5
:103090008E8B81E014C06FE171E086E292E00E94C5
:1030A000C6214AE050E06D8986E292E00E94C52286
:1030B0006DE171E086E292E00E94062280E0DF91FD
:1030C000CF9108956F927F928F929F92AF92BF920D
:1030D000CF92DF92EF92FF920F931F93CF93DF93E4
:1030E000CDB7DEB760970FB6F894DEBF0FBECDBF89
:1030F00020911802222309F44CC18C01109218026D
:103100000E94D02AF801848BC8010E942B2BF80161
:10311000918F808F6CEA71E086E292E00E94E92153
:10312000F801608D718D4AE050E086E292E00E94E5
:10313000CC226BEB71E086E292E00E94E921F8017B
:10314000668977894AE050E086E292E00E94CC22CC
:10315000F801848984FD05C0208D318D211534400E
:10316000E9F4C8010E94F02A6EE071E086E292E084
:1031700060960FB6F894DEBF0FBECDBFDF91CF9142
:103180001F910F91FF90EF90DF90CF90BF90AF9085
:103190009F908F907F906F900C94062281FFF9C0D2
:1031A000F801208D318D868997892817390738F4E1
:1031B000C8010E942B2BF801918F808FF1CFC8019D
:1031C0004A966C01F80146895789808D918D841744
:1031D000950770F0B601C8010E94492BF801808D57
:1031E000918D26893789821B930B918F808FEACF2F
:1031F0007801FAE5EF0EF11CA601B701C8010E94A3
:103200006B14B80166597F4F8DB79EB740970FB6C4
:10321000F8949EBF0FBE8DBFADB7BEB7119680E1CB
:10322000F70101900D928A95E1F7CE0101960E9477
:10323000260F80E1FE013196D70101900D928A950B
:10324000E1F7580198E9A90EB11CA701B501C80121
:103250000E945D163801E0EA6E0E711CF301808158
:103260009181A281B381F501408151816281738195
:103270007058F3014083518362837383B058F50122
:1032800080839183A283B3834801FCE98F0E911C54
:10329000F40180819181A281B381B05880839183B0
:1032A000A283B3836BEC71E086E292E00E94E92195
:1032B000F501408151816281738122E030E086E234
:1032C00092E00E94B72369EC71E086E292E00E94EE
:1032D000E921F401408151816281738122E030E073
:1032E00086E292E00E94B72369EC71E086E292E008
:1032F0000E94E921F301408151816281738122E0C2
:1033000030E086E292E00E94B923B8016C557F4F0D
:10331000A601C8010E94DA144801FCE88F0E911C36
:10332000A701B401C8010E94911558018AE7A80EAF
:10333000B11CA601B501C8010E940614680190E8FD
:10334000C90ED11C9401A501B601C8010E94071540
:103350000FB6F894DEBF0FBECDBFB8016A577F4FDE
:103360009701A601C80160960FB6F894DEBF0FBEA4
:10337000CDBFDF91CF911F910F91FF90EF90DF9024
:10338000CF90BF90AF909F908F907F906F900C9454
:10339000841560960FB6F894DEBF0FBECDBFDF91E7
:1033A000CF911F910F91FF90EF90DF90CF90BF9042
:1033B000AF909F908F907F906F9008950F931F9381
:1033C00088569F4F8B0121E030E043E050E0BC0184
:1033D00080ED92E00E9414261F910F9108950F93A3
:1033E0001F93CF93DF93EC018B01FC01EC55FF4F52
:1033F00060817181072E000C880B990B0E94373475
:1034000023EC35EF48E450E40E94B13520E030E091
:1034100042E053E40E948D33F8016083718382831C
:103420009383FE01EA55FF4F60817181072E000CE6
:10343000880B990B0E94373423EC35EF48E450E4B5
:103440000E94B13520E030E042E053E40E948D3329
:10345000F8016483758386839783C855DF4F68813D
:103460007981072E000C880B990B0E94373423ECCE
:1034700035EF48E450E40E94B13520E030E042E00E
:1034800053E40E948D33F8016087718782879387A8
:10349000DF91CF911F910F9108958F929F92AF92DC
:1034A000BF92CF92DF92EF92FF920F931F93FC0196
:1034B000E65AFF4F448555856685778570580085A7
:1034C0001185228533853058C480D580E680F78009
:1034D000F7FAF094F7F8F094DC01A659BF4F80801A
:1034E0009180A280B3808D929D92AD92BC921397F1
:1034F0007496C082D182E282F38234960083118373
:1035000022833383349640835183628373831F9174
:103510000F91FF90EF90DF90CF90BF90AF909F9072
:103520008F900895FC011382128285E090E09183D0
:103530008083148A1482158216821782108611865F
:10354000128613861486158616861786108A118AA7
:10355000128A138A0895AF92BF92CF92DF92EF92B0
:10356000FF920F931F93CF93DF93EC0103E010E0E2
:1035700084E0E82EF12C92E0C92ED12CAA24A39449
:10358000B12C2A813B812430310509F49DC02130C2
:10359000310509F46DC01CF4232B49F08EC0223094
:1035A000310571F12330310509F477C086C080916F
:1035B0001202909113020E94701C8091120290914D
:1035C00013020E94781D882349F06EEF79E086E2AD
:1035D00092E00E940622BB82AA826FC080911202F2
:1035E000909113020E948F1D882309F466C062EF38
:1035F00079E086E292E00E940622DB82CA825DC008
:1036000062EE79E086E292E00E9406228091160244
:10361000909117020E942E0980911202909113023C
:103620000E94781D81110DC06AE070E080E090E09A
:103630000E94391E80911202909113020E94701C08
:10364000EBCF64ED79E086E292E00E940622809161
:103650001602909117020E94440968EB7BE080E01B
:1036600090E00E94391E1B830A836BEC79E010C046
:1036700061EC79E086E292E00E94062268EB7BE052
:1036800080E090E00E94391E1B830A8368EB79E09A
:1036900086E292E00E94062210C08091140290916E
:1036A00015020E94060E80911402909115020E944C
:1036B000F80E882311F0FB82EA8261E070E080E07E
:1036C00090E00E94391E5DCF809116029091170202
:1036D000DF91CF911F910F91FF90EF90DF90CF90EE
:1036E000BF90AF900C94520C8F929F92AF92BF926A
:1036F000CF92DF92EF92FF920F931F93CF93DF93BE
:10370000CDB7DEB760970FB6F894DEBF0FBECDBF62
:103710007C016C0184E0C80ED11CB60180911602B8
:10372000909117020E94EF08FE0131965F0180E13F
:1037300011928A95E9F7F701808191818530910591
:1037400021F0069709F4A6C0B8C0B5018091140213
:10375000909115020E94860D8091120290911302A1
:103760000E94AA1D882309F46DC089809A80AB80CD
:10377000BC8080911202909113020E94581D9B01FF
:10378000AC01C501B4010E948F32F70164837583D7
:103790008683978380911202909113020E94381DB4
:1037A000F7016087718782879387809112029091D9
:1037B00013020E94181DF701648775878687978713
:1037C00080911202909113020E94F81C4B015C013F
:1037D00020E030E0A9010E94A43520E030E040E282
:1037E00051E418161CF4C501B40103C0C501B401AD
:1037F00090580E94B13511E020E030E040E050E404
:103800000E94A435181674F010E0F701848988230B
:10381000B1F08D859E85AF85B889808B918BA28B09
:10382000B38B0DC0A50194016D857E858F85988928
:103830000E948F32F701608B718B828B938BF70123
:10384000148B0AC0860121E030E044E050E0B5016D
:1038500080ED92E00E941426B601809116029091AC
:1038600017020E94DF0880911202909113020E94B9
:10387000781D882311F180911602909117020E9401
:10388000580C80911602909117020E94440986E01C
:1038900090E010C080911202909113020E94781D56
:1038A00081110BC080911602909117020E94520C58
:1038B00085E090E0F7019183808360960FB6F894DD
:1038C000DEBF0FBECDBFDF91CF911F910F91FF9053
:1038D000EF90DF90CF90BF90AF909F908F90089522
:1038E0000F931F93CF93DF938C01FC01C4A1D5A14B
:1038F000FE013C96EE0FFF1FE00FF11F20E23EE4B9
:1039000040E050E061E080810E94A91FCC0FDD1FE4
:10391000CC0FDD1FC00FD11F688379838A839B83FF
:10392000F80184A195A1019666E070E00E949036AE
:1039300095A384A3DF91CF911F910F910895EF92EA
:10394000FF920F931F93CF93DF93EC01188219829C
:103950001A821B821C821D821E821F821886198673
:103960001A861B861C861D861E861F86188A198A43
:103970001A8A1B8A1C8A1D8A1E8A1F8A1DA21CA2E3
:103980008CE090E0998F888F88E090E09B8F8A8F01
:1039900085E090E09D8F8C8F87E090E09F8F8E8FE9
:1039A00083E090E099A388A384E090E09BA38AA39E
:1039B0008E01085E1F4F7E0184E2E80EF11CF801C3
:1039C00080810E5F1F4F60E00E943D1F0E151F0596
:1039D000B1F706E010E0CE010E94701C0150110901
:1039E000D1F7DF91CF911F910F91FF90EF90089544
:1039F000FC0160817181828193810E94353420E0D5
:103A000030E849E554E40E948E3220E030E040E89E
:103A100050E40E94B13520E030E047E554E40E94D4
:103A20008D3320E030E040E050E40E948E32089573
:103A3000FC0164817581868197810E94353420E084
:103A400030E849E554E40E948E322DEC3CEC4CE425
:103A50005FEB0E94B13520E030E047E554E40E947E
:103A60008D332DEC3CEC4CEC5EE30E948F320895DC
:103A7000FC0160857185828593850E94353420E044
:103A800030E849E554E40E948E322DEC3CEC4CE4E5
:103A90005FE30E94B13520E030E047E554E40E9446
:103AA0008D332DEC3CEC4CEC5EE30E948E3208959D
:103AB000FC0164857585868597850E94353420E0F4
:103AC00030E849E554E40E948E3220E030E040E0E6
:103AD00050EC0E94B13520E030E047E554E40E940C
:103AE0008D3320E030E040E85FE30E948F3208959C
:103AF000FC0164857585868597850E94353420E0B4
:103B000030E849E554E40E948E3220E030E04CEA8F
:103B100052E40E948833881F8827881F0895CF9316
:103B2000FC0164857585868597850E94353420E083
:103B300030E849E554E40E948E32C1E020E030E8EC
:103B400041E454E40E94A43518160CF0C0E08C2F18
:103B5000CF9108959C01285E3F4FFC014191519106
:103B600061917191CF01452B462B472B29F0E2172C
:103B7000F30799F781E0089580E008951F920F926E
:103B80000FB60F9211242F933F938F939F93AF9370
:103B9000BF9380911A0290911B02A0911C02B091D8
:103BA0001D023091190223E0230F2D3720F40196D6
:103BB000A11DB11D05C026E8230F0296A11DB11D50
:103BC0002093190280931A0290931B02A0931C0267
:103BD000B0931D0280911E0290911F02A0912002BD
:103BE000B09121020196A11DB11D80931E029093F8
:103BF0001F02A0932002B0932102BF91AF919F9129
:103C00008F913F912F910F900FBE0F901F9018959D
:103C10002FB7F89460911A0270911B0280911C02D8
:103C200090911D022FBF08953FB7F89480911E0216
:103C300090911F02A0912002B091210226B5A89B6D
:103C400005C02F3F19F00196A11DB11D3FBFBA2F2E
:103C5000A92F982F8827820F911DA11DB11DBC018E
:103C6000CD0142E0660F771F881F991F4A95D1F753
:103C70000895CF92DF92EF92FF92CF93DF936B0183
:103C80007C010E94141EEB01C114D104E104F10473
:103C900079F00E94141E6C1B7D0B683E7340A0F3EC
:103CA00081E0C81AD108E108F108C851DC4FECCF17
:103CB000DF91CF91FF90EF90DF90CF9008957894AF
:103CC00084B5826084BD84B5816084BD85B5826021
:103CD00085BD85B5816085BDEEE6F0E080818160BF
:103CE0008083E1E8F0E010828081826080838081BF
:103CF00081608083E0E8F0E0808181608083E1EB97
:103D0000F0E0808184608083E0EBF0E0808181607E
:103D10008083EAE7F0E08081846080838081826034
:103D2000808380818160808380818068808310921D
:103D3000C10008958230E8F4E82FF0E0EE0FFF1F95
:103D4000EE5DFD4F71836083813041F080916900A9
:103D50008C7F482B40936900E89A08958091690010
:103D6000440F551F440F551F837F482B4093690014
:103D7000E99A08951F920F920FB60F9211242F9374
:103D80003F934F935F936F937F938F939F93AF93E3
:103D9000BF93EF93FF938091220290912302892B8E
:103DA00029F0E0912202F09123020995FF91EF9111
:103DB000BF91AF919F918F917F916F915F914F9143
:103DC0003F912F910F900FBE0F901F9018951F924B
:103DD0000F920FB60F9211242F933F934F935F933F
:103DE0006F937F938F939F93AF93BF93EF93FF93C3
:103DF0008091240290912502892B29F0E0912402E0
:103E0000F09125020995FF91EF91BF91AF919F919C
:103E10008F917F916F915F914F913F912F910F9073
:103E20000FBE0F901F901895833081F028F48130D9
:103E300099F08230A1F008958630A9F08730B9F06A
:103E40008430D1F4809180008F7D03C08091800008
:103E50008F7780938000089584B58F7702C084B5F2
:103E60008F7D84BD08958091B0008F7703C08091CD
:103E7000B0008F7D8093B0000895CF93DF9390E0E2
:103E8000FC01E05EF54F2491FC01EC5CF54F849160
:103E9000882361F190E0880F991FFC01E45AF54FE7
:103EA000C591D491FC01EE5AF54FA591B4916111E1
:103EB00009C09FB7F8948881209582238883EC916C
:103EC0002E230BC0623061F49FB7F8943881822FA3
:103ED000809583238883EC912E2B2C939FBF06C063
:103EE0008FB7F894E8812E2B28838FBFDF91CF9175
:103EF00008951F93CF93DF93282F30E0F901E45FFB
:103F0000F54F8491F901E05EF54FD491F901EC5C35
:103F1000F54FC491CC23C9F0162F81110E94141FB4
:103F2000EC2FF0E0EE0FFF1FEE5AF54FA591B49184
:103F30008FB7F894111105C09C91ED2FE095E923FE
:103F400002C0EC91ED2BEC938FBFDF91CF911F91CD
:103F500008958F929F92AF92BF92CF92DF92EF928D
:103F6000FF920F931F93CF93DF9390E0FC01E05EED
:103F7000F54FA491FC01EC5CF54F8491662311F0A0
:103F8000BA2F01C0B0E089019A013F7090E0880F1C
:103F9000991F885B954F480159014FEF841A940A85
:103FA000A40AB40AC12CD12C7601FC01C591D4918C
:103FB00068816A236B131AC05FEFC51AD50AE50A38
:103FC000F50AC814D904EA04FB0479F745C0460190
:103FD00057016FEF861A960AA60AB60AC016D106CE
:103FE000E206F30609F438C075016401FC01C591CD
:103FF000D49168816A236B13EACFB901A8014C19E7
:104000005D096E097F096A017B0120E030E0A901AA
:10401000FC01C591D49168816A236B130AC02C15E9
:104020003D054E055F05C1F02F5F3F4F4F4F5F4F7E
:10403000EFCFA5E1B0E00E94C636DC01CB0140968F
:10404000A11DB11DBC01CD0124E096958795779502
:1040500067952A95D1F703C060E070E0CB01DF914E
:10406000CF911F910F91FF90EF90DF90CF90BF9075
:10407000AF909F908F900895FC01808191810C9466
:104080008F37CF93DF93EC0188819981009711F0EE
:104090000E948F37198218821D821C821B821A820D
:1040A000DF91CF9108950F931F93CF93DF93EC018E
:1040B0008B016F5F7F4F888199810E94273800971D
:1040C00031F0998388831B830A8381E001C080E0FB
:1040D000DF91CF911F910F910895CF93DF93EC0162
:1040E00088819981892B29F08A819B81861797077E
:1040F00060F4CE010E945320882341F08C819D8181
:10410000892B19F4E881F981108281E0DF91CF9148
:104110000895EF92FF920F931F93CF93DF93EC01DB
:104120007B018A01BA010E946D20811104C0CE0179
:104130000E94412007C01D830C83B70188819981AB
:104140000E943739CE01DF91CF911F910F91FF90DF
:10415000EF900895FC011182108213821282158261
:10416000148216826115710551F0FB010190002047
:10417000E9F73197AF01461B570B0C94892008953E
:10418000CF93DF93EC01FB018617970761F0608105
:1041900071816115710529F0448155810E94892042
:1041A00002C00E944120CE01DF91CF910895CF93AC
:1041B000DF93EC016115710559F0FB0101900020BE
:1041C000E9F73197AF01461B570B0E94892002C0C7
:1041D0000E944120CE01DF91CF910895EF92FF928E
:1041E0000F931F93CF93DF93FC01248135816115D9
:1041F000710511F480E019C041155105A9F07B014A
:10420000EC018A01020F131FB8010E946D20882360
:1042100089F3288139818C819D81B701820F931F99
:104220000E9437391D830C8381E0DF91CF911F916C
:104230000F91FF90EF900895CF93DF9300D0CDB70B
:10424000DEB769831A8241E050E0BE016F5F7F4FA5
:104250000E94EE200F900F90DF91CF910895CF93A1
:10426000DF93DC01ED91FC91EB01A881B9813097DE
:1042700011F01097C9F4109759F0EB012C813D8192
:10428000232B31F08C9190E091958195910914C088
:10429000309781F0DC0114968D919C911597892BB4
:1042A00049F0808190E008C0BD01CF01DF91CF913E
:1042B0000C942E3980E090E0DF91CF910895FC01BD
:1042C00024813581232B31F421E061157105A1F0A2
:1042D000FB0108C0FC01808191816115710531F4F9
:1042E00021E0FC018081882339F005C00E942E392D
:1042F00021E0892B09F020E0822F0895FC018081C4
:104300009181009711F00C94F13860E070E0CB01DE
:104310000895CF92DF92EF92FF920F931F93CF9366
:10432000DF936C01EB017B01E40EF51E00E010E071
:10433000CE15DF0561F06991D601ED91FC910190F8
:10434000F081E02DC6010995080F191FF1CFC801B2
:10435000DF91CF911F910F91FF90EF90DF90CF9061
:1043600008956115710579F0FB0101900020E9F7CE
:104370003197AF01461B570BDC01ED91FC91028098
:10438000F381E02D099480E090E00895EF92FF9290
:104390000F931F93CF93DF937C01FB0100E010E0AC
:1043A0006491EF012196662361F0D701ED91FC91B4
:1043B0000190F081E02DC7010995080F191FFE013A
:1043C000EFCFC801DF91CF911F910F91FF90EF9038
:1043D00008950C94B121DC01ED91FC910190F081E4
:1043E000E02D09940F931F93CF93DF93EC016DE0C1
:1043F0000E94EB218C016AE0CE010E94EB21800F2C
:10440000911FDF91CF911F910F9108950F931F93EB
:10441000CF93DF93EC010E94C6218C01CE010E9454
:10442000F221800F911FDF91CF911F910F9108957D
:104430008F929F92AF92BF92CF92DF92EF92FF92B4
:104440000F931F93CF93DF93CDB7DEB7A1970FB62E
:10445000F894DEBF0FBECDBF6C01142FE52FCB014A
:10446000022F19A2223008F40AE07E0121E2E20EB6
:10447000F11C802E912CA12CB12C612F7E2FA50137
:1044800094010E94A436029F1019112481E0E81AB9
:10449000F1081A3010F4105D01C0195CF7011083A7
:1044A000122FE32FCA01232B242B252B31F7B70121
:1044B000C6010E94B121A1960FB6F894DEBF0FBECF
:1044C000CDBFDF91CF911F910F91FF90EF90DF90C3
:1044D000CF90BF90AF909F908F900895CF92DF9232
:1044E000EF92FF920F931F93CF93DF93EC016A013A
:1044F0007B012115310579F4E881F9810190F08182
:10450000E02D642FDF91CF911F910F91FF90EF90DD
:10451000DF90CF9009942A303105E9F477FF1AC073
:104520006DE20E94EB218C0144275527BA014C19FA
:104530005D096E097F092AE0CE010E941822800FD2
:10454000911FDF91CF911F910F91FF90EF90DF901E
:10455000CF9008952AE0B701A601CE01DF91CF9157
:104560001F910F91FF90EF90DF90CF900C94182245
:104570002115310541F4DC01ED91FC910190F081B0
:10458000E02D642F09940C9418229A01462F50E0D4
:1045900060E070E00C94B8229A01AB0160E070E03A
:1045A0000C94B8224F925F926F927F928F929F925B
:1045B000AF92BF92CF92DF92EF92FF92CF93DF93B1
:1045C000EC016A017B01B22E9A01AB01C701B60171
:1045D0000E946836882319F061EE71E027C0260139
:1045E0003701E89477F82FEF3FEF4FE75FE7C3011C
:1045F000B2010E94683681110DC02FEF3FEF4FE7E7
:104600005FE7C301B2010E94883318161CF465EEFF
:1046100071E00CC02FEF3FEF4FE75FE4C701B60139
:104620000E94A43518169CF469EE71E0CE01DF916A
:10463000CF91FF90EF90DF90CF90BF90AF909F9081
:104640008F907F906F905F904F900C94B1212FEFDF
:104650003FEF4FE75FECC701B6010E94883387FD4B
:10466000E3CF20E030E0A901C701B6010E94883302
:1046700087FF0AC06DE2CE010E94EB214C01F7FAE0
:10468000F094F7F8F09402C0812C912CA12C60E0FA
:1046900070E080E09FE3AB1441F020E030E040E2C6
:1046A00051E40E948D33A394F6CF9B01AC01C70166
:1046B000B6010E948F322B013C010E9406346B012F
:1046C0007C010E9435349B01AC01C301B2010E9400
:1046D0008E322B013C012AE0B701A601CE010E94D7
:1046E00018227C01E80CF91CBB2039F06DEE71E05A
:1046F000CE010E94B121E80EF91EDB2CDD2039F13C
:1047000020E030E040E251E4C301B2010E94B13543
:104710002B013C010E94FF334B01770FAA08BB0815
:104720002AE030E0B501A401CE010E946E22E80E1D
:10473000F91EC501B4010E9437349B01AC01C301CD
:10474000B2010E948E322B013C01DA94D7CFC7010F
:10475000DF91CF91FF90EF90DF90CF90BF90AF901F
:104760009F908F907F906F905F904F9008950C94E2
:10477000D2220F931F93CF93DF93EC010E94D2229A
:104780008C01CE010E94F221800F911FDF91CF9109
:104790001F910F9108950F931F93CF93DF93EC0117
:1047A0000E94081E688779878A879B87E881F9813C
:1047B0000680F781E02DCE01099597FF17C00E9472
:1047C000081E088519852A853B85DC01CB01801BE5
:1047D000910BA20BB30B0C811D812E813F818017A1
:1047E0009107A207B30710F38FEF9FEFDF91CF91EF
:1047F0001F910F910895FC0144835583668377834D
:1048000008950F931F93CF93DF93EC018B016AEC14
:1048100071E00E94AA20C8010E94CB2397FD05C029
:10482000682FCE010E941C21F6CFCE01DF91CF91DF
:104830001F910F910895EF92FF920F931F93CF93C3
:10484000DF93EC017B01042F6AEC71E00E94AA2047
:10485000C7010E94CB2310E097FD0BC08017910782
:1048600041F0682FCE010E941C21C7010E94CB237A
:10487000F3CFCE01DF91CF911F910F91FF90EF9079
:1048800008950C94FA36FC0124853585F901E05C25
:10489000FF4F80819181329620813181821B930B61
:1048A0008F7399270895DC011C96ED91FC911D975B
:1048B000DF01A05CBF4F2D913C91119712968D9115
:1048C0009C9111972817390739F08D919C91E80F29
:1048D000F91F808190E008958FEF9FEF0895FC010C
:1048E000A485B585FD01E05CFF4F208131813296C2
:1048F000808191812817390779F080819181A80FF3
:10490000B91F8C91208131812F5F3F4F2F73332747
:104910003183208390E008958FEF9FEF0895FC018D
:1049200081A1882329F0A489B5898C9186FFFBCFCA
:1049300011A208950F931F93CF93DF93FC01A685D7
:10494000B7858D01005C1F4FE80188819981019630
:104950008F739927AD014E5B5F4FEA012881398142
:1049600082179307D1F3E80128813981A20FB31F81
:104970006C93A685B785A05CBF4F11969C938E93D0
:10498000A689B7892C9181E090E0078C02C0880F3E
:10499000991F0A94E2F7822B8C9381E081A304880B
:1049A000F589E02D80818064808381E090E0DF9153
:1049B000CF911F910F9108951F920F920FB60F92F2
:1049C00011242F934F935F938F939F93EF93FF93B4
:1049D0008091C00082FD1CC02091C6008091CC0255
:1049E0009091CD0201968F7399274091CE025091FC
:1049F000CF028417950771F0E091CC02F091CD02BF
:104A0000E457FD4F20839093CD028093CC0202C0E7
:104A10008091C600FF91EF919F918F915F914F918F
:104A20002F910F900FBE0F901F9018951F920F920D
:104A30000FB60F9211242F933F938F939F93EF9371
:104A4000FF93209188023091890280918A0290918F
:104A50008B022817390731F48091C1008F7D809334
:104A6000C10014C0E0918A02F0918B02E85BFD4F17
:104A7000208180918A0290918B0201968F739927F1
:104A800090938B0280938A022093C600FF91EF914E
:104A90009F918F913F912F910F900FBE0F901F907C
:104AA0001895CF92DF92EF92FF920F931F93CF93BF
:104AB000DF93EC016A017B014115514E61057105DF
:104AC00009F1EC89FD8981E090E008A002C0880F1F
:104AD000991F0A94E2F7808360E079E08DE390E02B
:104AE000A70196010E94A43689019A01015011097B
:104AF00021093109369527951795079598010115D4
:104B00001041A8F0EC89FD89108260E874E88EE11C
:104B100090E0A70196010E94A436DA01C90101972D
:104B2000A109B109B695A795979587959C01E88944
:104B3000F9893083EA89FB89208319A2EE89FF89EC
:104B4000408181E090E09C010C8C02C0220F331F59
:104B50000A94E2F7242B2083EE89FF8940819C018F
:104B60000D8C02C0220F331F0A94E2F7242B2083FE
:104B7000EE89FF8940819C010E8C02C0220F331FF9
:104B80000A94E2F7242B2083EE89FF8920810F8C81
:104B900002C0880F991F0A94E2F7809582238083D0
:104BA000DF91CF911F910F91FF90EF90DF90CF9009
:104BB0000895E6E2F2E01382128288EE93E0A0E02C
:104BC000B0E084839583A683B78383EF91E09183DC
:104BD00080838CE892E09587848788E492E09787C9
:104BE000868785EC90E0918B808B84EC90E0938BB2
:104BF000828B80EC90E0958B848B81EC90E0978B9E
:104C0000868B82EC90E0918F808F86EC90E0938F82
:104C1000828F84E0848F83E0858F87E0868F85E0B4
:104C2000878F81E080A308954F925F926F927F9269
:104C30008F929F92AF92BF92CF92DF92EF92FF92AC
:104C40000F931F93CF93DF935A01AA0CBB1CAA0C9E
:104C5000BB1CA0E0B0E0812C912C8216930624F5B9
:104C6000E12CF12CC0E0D0E0C417D507BCF4C7019B
:104C70008A0F9B1F6B01C80ED91EF6014080518020
:104C800062807380800F911FFC014082518262829A
:104C900073822196F4E0EF0EF11CE6CF8FEF881AB5
:104CA000980AAA0DBB1DD9CFDF91CF911F910F910B
:104CB000FF90EF90DF90CF90BF90AF909F908F903C
:104CC0007F906F905F904F9008952F923F924F92F8
:104CD0005F926F927F928F929F92AF92BF92CF928C
:104CE000DF92EF92FF920F931F93CF93DF93CDB795
:104CF000DEB760970FB6F894DEBF0FBECDBF5C87FE
:104D00004B873E872D871C830B83FE82ED829701A4
:104D1000220F331F220F331F3A8329832601C80134
:104D2000880F991F880F991F9A8789871B01612C0B
:104D3000712CAD85BE856A167B060CF06EC0588A54
:104D40004F86E12CF12C00E010E0ED81FE810E1782
:104D50001F070CF056C0AF85B8891D921D921D9299
:104D60001C921397F70129813A81E21BF30BF88714
:104D7000EF83A12CB12C812C912CC12CD12C298119
:104D80003A81A20EB31E8B819C81C816D90674F598
:104D9000B101680D791DEF81F885EA0DFB1D8B854A
:104DA0009C85E80FF91F2081318142815381DB010D
:104DB0006D917D918D919C910E94B1359B01AC01CB
:104DC000EF85F88960817181828193810E948F32A1
:104DD000AF85B8896D937D938D939C931397BFEFA7
:104DE000CB1ADB0AE4E08E0E911CC9CF0F5F1F4F78
:104DF000AF85B8891496B88BAF87B4E0EB0EF11C81
:104E0000A4CFFFEF6F1A7F0A29813A81420E531E09
:104E100089859A85280E391E8CCF60960FB6F89436
:104E2000DEBF0FBECDBFDF91CF911F910F91FF90DD
:104E3000EF90DF90CF90BF90AF909F908F907F903A
:104E40006F905F904F903F902F9008952F923F92D8
:104E50004F925F926F927F928F929F92AF92BF928A
:104E6000CF92DF92EF92FF920F931F93CF93DF9336
:104E700000D000D000D0CDB7DEB72B013A01190128
:104E80009801220F331F220F331F3A832983C12C2D
:104E9000D12C1E821D822D813E8122153305B4F551
:104EA000812C912CA12CB12CA016B1062CF5C4019B
:104EB0008C0D9D1DF701E80FF91FFC83EB83F201B8
:104EC000E80FF91FD301A80FB91F2D913D914D9106
:104ED0005C9160817181828193810E948F32EB812C
:104EE000FC816083718382839383FFEFAF1ABF0AD3
:104EF00024E0820E911CD8CF8D819E8101969E83E5
:104F00008D83E981FA81CE0EDF1EC5CF26960FB6BE
:104F1000F894DEBF0FBECDBFDF91CF911F910F91EF
:104F2000FF90EF90DF90CF90BF90AF909F908F90C9
:104F30007F906F905F904F903F902F9008952F92A9
:104F40003F924F925F926F927F928F929F92AF9219
:104F5000BF92CF92DF92EF92FF920F931F93CF9366
:104F6000DF931A014901270138017901EE0CFF1C7A
:104F7000EE0CFF1CEB0100E010E002151305F4F449
:104F80005E01C12CD12CC814D9049CF4A301920158
:104F9000F50160817181828193810E94B135F501B3
:104FA00061937193819391935F01FFEFCF1ADF0AB1
:104FB000EACF0F5F1F4FCE0DDF1DDFCFDF91CF9107
:104FC0001F910F91FF90EF90DF90CF90BF90AF9027
:104FD0009F908F907F906F905F904F903F902F9019
:104FE00008951F920F920FB60F9211242F933F93A3
:104FF0004F935F936F937F938F939F93AF93BF93E1
:10500000EF93FF938091D20287FF05C01092850035
:10501000109284001BC02091D202022E000C330B90
:105020008091D10290E02817390784F48091D20250
:10503000082E000C990BFC01EE0FFF1F8E0F9F1F17
:10504000FC01ED52FD4F808186FD15C08091D2029A
:105050008F5F8093D2022091D202022E000C330B7C
:105060008091D10290E028173907C4F48091D202D0
:105070008C3064F113C08091D202082E000C990B81
:10508000FC01EE0FFF1F8E0F9F1FFC01ED52FD4F25
:10509000808160E08F730E94791FD8CF8091840057
:1050A00090918500049680349C4918F480E49CE932
:1050B00005C08091840090918500049690938900AA
:1050C000809388008FEF8093D2023BC020918400B0
:1050D000309185008091D202082E000C990BFC01C2
:1050E000EE0FFF1F8E0F9F1FFC01ED52FD4F8181C0
:1050F0009281820F931F9093890080938800809102
:10510000D202082E000C990BFC01EE0FFF1F8E0F30
:105110009F1FFC01ED52FD4F808186FF12C08091E0
:10512000D202082E000C990BFC01EE0FFF1F8E0F10
:105130009F1FFC01ED52FD4F808161E08F730E9443
:10514000791FFF91EF91BF91AF919F918F917F91C7
:105150006F915F914F913F912F910F900FBE0F90E4
:105160001F901895FC019091D1029C30A0F481E031
:10517000890F8093D1029083892F90E0FC01EE0F7C
:10518000FF1F8E0F9F1FFC01ED52FD4F88EB9BE030
:105190009283818308958FEF80830895DF92EF9249
:1051A000FF920F931F93CF93DF93EC01D62E7A01DA
:1051B000890188818C3008F06AC061E08D2D0E94E1
:1051C0003D1F8881E82FF0E09F01220F331FE20F7F
:1051D000F31FED52FD4F9D2D9F732081207CD22E19
:1051E000D92AD08260E272E0AB014E195F0957FF05
:1051F00002C04D5F5F4F559547955595479549833B
:1052000040E659E09A01201B310B37FF02C02D5FA9
:105210003F4F35952795359527952A832CE0622FAA
:105220000E948436289FB001112440E050E09A018A
:10523000260F371FF901EE0FFF1F2E0F3F1FF90139
:10524000ED52FD4F908196FD16C04F5F5F4F4C3081
:10525000510569F781110FC01092800082E08093A0
:1052600081001092850010928400B19A80916F00A5
:10527000826080936F00E881F0E0CF01880F991F72
:10528000E80FF91FED52FD4F808180648083888193
:10529000DF91CF911F910F91FF90EF90DF900895D4
:1052A00020E639E040E252E00C94CE28DC01EC919B
:1052B000F0E0CF01880F991FE80FF91FED52FD4F65
:1052C00080818F7B80830895FC0190819C3080F5E4
:1052D000818128E830E0281B310987FD3395220FB2
:1052E000331F220F331F621773077CF0828128E57A
:1052F00032E0281B310987FD3395220F331F220F1F
:10530000331F621773070CF49B014FB7F894892F72
:1053100090E0FC01EE0FFF1F8E0F9F1FFC01ED526E
:10532000FD4F22503109220F331F328321834FBF9B
:1053300008958091270390E020912803821B910912
:1053400008959091280380912703981750F4E92F2E
:10535000F0E0E75DFC4F208130E09F5F90932803F1
:1053600002C02FEF3FEFC9010895E091280380911B
:105370002703E81730F4F0E0E75DFC4F808190E010
:1053800008958FEF9FEF08950895CF92DF92EF92E7
:10539000FF920F931F93CF93DF937C01262F972FBC
:1053A0008A0180910303882391F0C62FD72F6E01C5
:1053B000C40ED51ECC15DD0571F06991D701ED91B4
:1053C000FC910190F081E02DC7010995F3CF642F86
:1053D000822F0E94FE2EC801DF91CF911F910F9165
:1053E000FF90EF90DF90CF900895CF93DF931F92BF
:1053F000CDB7DEB76983209103032223D1F020913A
:105400000403203240F021E030E0FC0133832283AA
:1054100080E090E015C080910503E82FF0E0EA5F9E
:10542000FC4F998190838F5F8093050380930403E1
:1054300005C061E0CE0101960E94FE2E81E090E061
:105440000F90DF91CF910895FC011382128288EEB4
:1054500093E0A0E0B0E084839583A683B78383E0E4
:1054600092E091838083089510922803109227037D
:1054700010920503109204030C944A2E862F413299
:1054800008F040E269E273E00E94682E109228035F
:1054900080932703089521E00C943E2A81E08093B5
:1054A00003036093260310920503109204030895EA
:1054B0000F93062F21E04091040366E073E0809192
:1054C00026030E94AC2E1092050310920403109242
:1054D00003030F91089561E00C94582A87EF92E03E
:1054E0000C94242AFC0160830895462F69E1FC0195
:1054F00080810C948D300F93062F23E045E06AE104
:10550000FC0180810E9447320F9108950F93062F6E
:1055100023E042E06AE1FC0180810E9447320F9162
:1055200008950F93062F22E044E06BE1FC01808197
:105530000E9447320F9108950F93062F22E044E016
:105540006CE1FC0180810E9447320F910895462F43
:105550006FE1FC0180810C948D30462F60E2FC01EC
:1055600080810C948D30462F61E2FC0180810C9487
:105570008D30462F62E2FC0180810C948D306430C6
:1055800040F4262F220F620F6B5DFC0180810C948A
:105590008D300895462F68E3FC0180810C948D3096
:1055A000CF93DF93EC012091060130910701AC010C
:1055B0004F5F5F4F6AE388810E94A3318981DF9149
:1055C000CF910895262F46E06AE6FC0180810C9475
:1055D0001032262F45E06AE6FC0180810C941032DF
:1055E00021E042E06AE6FC0180810C94103221E067
:1055F00041E06AE6FC0180810C94103221E047E032
:105600006BE6FC0180810C941032262F46E06BE69D
:10561000FC0180810C9410320F93062F23E042E0AE
:105620006BE6FC0180810E9447320F910895CF9371
:10563000DF93EC0161E00E940C2B60E0CE010E9440
:10564000912A60E0CE010E949C2A60E0CE01DF91A9
:10565000CF910C94052B0F931F93CF93DF93EC0105
:1056600000910601109107019C012F5F3F4F42E01E
:1056700062E788810E94ED30298130E0322F2227B5
:105680008A81A901482BCA01DF91CF911F910F9107
:1056900008950F931F939B0100910601109107013C
:1056A00064E7FC0180810E94ED301F910F91089505
:1056B0000F931F93CF93DF93EC010091060110919C
:1056C00007019C012F5F3F4F40E060E088810E940E
:1056D000AD318981DF91CF911F910F910895262FD0
:1056E00040E060E0FC0180810C941032EF92FF9268
:1056F0000F931F93CF93DF93EC01E0900601F0909E
:1057000007018C010F5F1F4F26E046E060E08881B3
:105710000E94D3318981DF91CF911F910F91FF902A
:10572000EF9008950F93062F26E046E060E0FC011D
:1057300080810E9447320F910895EF92FF920F935C
:105740001F93CF93DF93EC01E0900601F0900701E7
:105750008C010F5F1F4F26E046E061E088810E94C8
:10576000D3318981DF91CF911F910F91FF90EF90FD
:1057700008950F93062F26E046E061E0FC0180814A
:105780000E9447320F910895EF92FF920F931F935B
:10579000CF93DF93EC01E0900601F09007018C01BC
:1057A0000F5F1F4F26E046E062E088810E94D33100
:1057B0008981DF91CF911F910F91FF90EF90089514
:1057C0000F93062F26E046E062E0FC0180810E94F4
:1057D00047320F910895AB016AE0FC0180810C947F
:1057E000DB30AB0163E1FC0180810C94DB30AB0169
:1057F00065E1FC0180810C94DB30AB0167E1FC01C9
:1058000080810C94DB30262F47E06AE6FC01808122
:105810000C94103221E043E06AE6FC0180810C9494
:1058200010326F712111606241116064462F6DE684
:10583000FC0180810C948D30462F6EE6FC01808146
:105840000C948D30CF93DF93EC01209106013091C1
:105850000701AC014F5F5F4F6FE688810E94A33163
:105860008981DF91CF9108955F926F927F928F929D
:105870009F92AF92BF92CF92DF92EF92FF920F93DF
:105880001F93CF93DF936C014B015A01522EF02EE0
:1058900020E040E0652D0E94112C602FC6010E947F
:1058A0001C2CC0E0D0E0612C77247394CA15DB0572
:1058B000A8F5CE014096A816B90618F4EA2CEC1A01
:1058C00002C080E1E82E8E2D90E093012F1931095E
:1058D0002817390714F4EF2CE19400910601109178
:1058E000070194012C0F3D1F4E2D6FE6F6018081BC
:1058F0000E94ED30CE0DD11DFE0CCA15DB05B0F6B1
:10590000F11001C0539420E040E0652DC6010E94D3
:10591000112C6F2DC6010E941C2CC8CFDF91CF9196
:105920001F910F91FF90EF90DF90CF90BF90AF90BD
:105930009F908F907F906F905F9008952F923F92ED
:105940004F925F926F927F928F929F92AF92BF928F
:10595000CF92DF92EF92FF920F931F93CF93DF933B
:1059600000D000D01F92CDB7DEB79D838C837B83A0
:105970006A834A01222EF02EE98220E040E0622D67
:105980000E94112C602F8C819D810E941C2CE9802B
:10599000EE2029F080E190E00E94FA365C01CC20F4
:1059A00031F080E190E00E94FA36D82E392E412C59
:1059B000512C4814590408F07AC0C2014096881648
:1059C000990618F4E82CE41802C080E1E82E8E2D28
:1059D00090E020E031E02F1931092817390714F43D
:1059E000EF2CE194EA81FB81E40DF51DCC2059F008
:1059F0009D2DAD2DB32D8A2F891B8E1530F48491EA
:105A00008D933196F8CFDE2E3F2E2D2D332D4E2D3A
:105A10006FE6AC81BD818C910E9454306E2C712C4C
:105A2000B981BB2369F1A114B10451F120E040E038
:105A3000622D8C819D810E94112C6F2D8C819D8106
:105A40000E941C2C009106011091070195014E2D1A
:105A50006FE6EC81FD8180810E94ED30A301B501EC
:105A60008D2D932D0E941839892B51F0C5010E946C
:105A70008F37CC2049F18D2D932D0E948F3724C074
:105A8000460C571CFE0C4814590408F092CFF11034
:105A900001C0239420E040E0622D8C819D810E9412
:105AA000112C6F2D8C819D810E941C2C82CFF9813D
:105AB000FF2319F0C5010E948F37CC2039F08D2DBE
:105AC000932D0E948F3702C080E001C081E00F90CB
:105AD0000F900F900F900F90DF91CF911F910F912A
