:100000000C9477000C9497040C94C4040C9405028F
:100010000C9468020C94CB020C949F000C949F00EB
:100020000C949F000C949F000C949F000C949208D9
:100030000C949F000C949F000C949F000C949F00C4
:100040000C94ED030C949F000C945A070C949407A5
:100050000C949F000C949F000C949F000C949F00A4
:100060000C941B0A0C949F005374617274004465D5
:100070006275742064652074657374000001020366
:10008000040506070001020304050001020304053C
:100090000000000700020100000304060000000049
:1000A0000000000001020408102040800102040842
:1000B00010200102040810200404040404040404B1
:1000C0000202020202020303030303030000000012
:1000D00023002600290000000000250028002B0036
:1000E00000000000240027002A005708EE09112410
:1000F0001FBECFEFD8E0DEBFCDBF11E0A0E0B1E082
:10010000EEE3F9E102C005900D92A832B107D9F7EC
:1001100023E0A8E2B1E001C01D92A532B207E1F7E9
:1001200010E0C7E7D0E004C02197FE010E946A0BEF
:10013000C537D107C9F70E94A1000C949D0C0C94FF
:1001400000000E945C0461E08DE00E941A0540E01E
:1001500052EC61E070E082E991E00E94CF0741E05B
:1001600050E060E070E082E991E00E94B9066EE63E
:1001700070E082E991E00E942C068AE190E00E9402
:10018000BF06EC010E948003D0932901C09328018F
:1001900068E670E082E991E00E942C060E94370434
:1001A0006B017C0180912801909129010E94E2035A
:1001B0000E943704AB01BC014C195D096E097F092F
:1001C0002AE030E082E991E00E94A60666E071E054
:1001D00082E991E00E940F06E0912801F091290147
:1001E000648175814AE050E082E991E00E94B306A3
:1001F00066E071E082E991E00E940F06E09128013B
:10020000F0912901628173814AE050E082E991E036
:100210000E94B30666E071E082E991E00E940F0659
:10022000E0912801F0912901608171814AE050E05C
:1002300082E991E00E94B30666E071E082E991E014
:100240000E940F06E0912801F091290166817781D3
:100250004AE050E082E991E00E94B30666E071E076
:1002600082E991E00E943E0699CFE82FEF7787FD63
:1002700005C08EEF8E0F823008F49AC08E2F90E06A
:10028000FC01EC55FF4F2491FC01E854FF4F3491E1
:10029000542F5D7F5130B9F4323031F45091560112
:1002A000522B509356010FC0333031F4509153010B
:1002B000522B5093530107C0343029F45091500110
:1002C000522B5093500141504230B8F4323031F447
:1002D00040915501422B409355010FC0333031F40A
:1002E00040915201422B4093520107C0343029F40F
:1002F00040914F01422B40934F01FC01E458FF4FC6
:10030000A4913230C1F4B0E0AA0FBB1FAD58BE4F6C
:100310006D937C93E0EDF0E0A591B4918C91809386
:1003200054018BE690E09093840180938301809147
:100330006800816033C03330C1F4B0E0AA0FBB1F46
:10034000A959BE4F6D937C93E2EDF0E0A591B49175
:100350008C91809351018CE690E09093840180937E
:10036000830180916800826019C03430C9F4B0E024
:10037000AA0FBB1FA95ABE4F6D937C93E4EDF0E02A
:10038000A591B4918C9180934E018DE690E090936D
:100390008401809383018091680084608093680069
:1003A000A0918301B0918401EC912E2B2C930895A0
:1003B0009FB7F894E23099F47093800160937F01C5
:1003C000E898809169008C7F809369008091690032
:1003D000482B40936900E09AE89A9FBF0895709374
:1003E000820160938101E99880916900837F809305
:1003F00069008091690024E0429FA0011124482BEC
:1004000040936900E19AE99AE8CF1F920F920FB6E4
:100410000F9211242F933F934F935F936F937F938A
:100420008F939F93AF93BF93CF93EF93FF9323B19A
:10043000C09154019091560180915501322F309511
:1004400083239223892B90916B00C227C923C82351
:1004500020935401CC2351F1C0FF05C0E0917301FA
:10046000F09174010995C1FF05C0E0917501F0910B
:1004700076010995C2FF05C0E0917701F0917801FE
:100480000995C3FF05C0E0917901F0917A010995C2
:10049000C4FF05C0E0917B01F0917C010995C5FF87
:1004A00005C0E0917D01F0917E010995FF91EF91EA
:1004B000CF91BF91AF919F918F917F916F915F91FC
:1004C0004F913F912F910F900FBE0F901F90189555
:1004D0001F920F920FB60F9211242F933F934F93B9
:1004E0005F936F937F938F939F93AF93BF93CF93BC
:1004F000EF93FF9326B1C0915101909153018091E8
:100500005201322F309583239223892B90916C00D6
:10051000C227C923C82320935101CC2351F1C0FF26
:1005200005C0E0916701F09168010995C1FF05C020
:10053000E0916901F0916A010995C2FF05C0E0915F
:100540006B01F0916C010995C3FF05C0E0916D014D
:10055000F0916E010995C4FF05C0E0916F01F09123
:1005600070010995C5FF05C0E0917101F09172011C
:100570000995FF91EF91CF91BF91AF919F918F918D
:100580007F916F915F914F913F912F910F900FBE8F
:100590000F901F9018951F920F920FB60F92112473
:1005A0002F933F934F935F936F937F938F939F937B
:1005B000AF93BF93CF93EF93FF9329B1C0914E01B7
:1005C0009091500180914F01322F309583239223D7
:1005D000892B90916D00C227C923C82320934E0117
:1005E000CC23C1F1C0FF05C0E0915701F091580143
:1005F0000995C1FF05C0E0915901F0915A01099593
:10060000C2FF05C0E0915B01F0915C010995C3FF59
:1006100005C0E0915D01F0915E010995C4FF05C040
:10062000E0915F01F09160010995C5FF05C0E0917F
:100630006101F09162010995C6FF05C0E091630177
:10064000F09164010995C7FF05C0E0916501F09143
:1006500066010995FF91EF91CF91BF91AF919F9165
:100660008F917F916F915F914F913F912F910F905B
:100670000FBE0F901F901895CF93DF93C82F862F32
:100680000E948605D0E0019769F40E943704CC0FE0
:10069000DD1FCC0FDD1FCA5CDE4F688379838A8340
:1006A0009B8313C00E943704FE01EE0FFF1FEE0F65
:1006B000FF1FEA5CFE4F20813181621B730BCC0F60
:1006C000DD1FC65DDE4F79836883DF91CF9108958A
:1006D0006CE080E00C943C0368E081E00C943C0307
:1006E00065E082E00C943C0367E083E00C943C03FB
:1006F00063E084E00C943C0364E085E00C943C03EC
:100700000F931F93CF93DF93FC011182108213820A
:100710001282158214821782168211861086138621
:100720001286118E108E8CE090E09587848788E089
:1007300090E09787868785E090E0918B808B87E0BB
:1007400090E0938B828B83E090E0958B848B84E0A8
:1007500090E0978B868B8F01045F1F4FEF016896A7
:10076000F80180810E5F1F4F60E00E941A050C1790
:100770001D07B1F741E068E673E08CE00E943501A7
:1007800041E06CE673E088E00E94350141E060E7FB
:1007900073E085E00E94350141E064E773E087E0A3
:1007A0000E94350141E068E773E083E00E94350173
:1007B00041E06CE773E084E0DF91CF911F910F91EE
:1007C0000C943501DC01F8949CE0EAE2F1E0019040
:1007D0000D929A95E1F7789408951F920F920FB6B3
:1007E0000F9211242F933F938F939F93AF93BF93B7
:1007F0008091860190918701A0918801B091890133
:100800003091850123E0230F2D3720F40196A11D9F
:10081000B11D05C026E8230F0296A11DB11D20932E
:1008200085018093860190938701A0938801B093FE
:10083000890180918A0190918B01A0918C01B091E6
:100840008D010196A11DB11D80938A0190938B01AA
:10085000A0938C01B0938D01BF91AF919F918F9127
:100860003F912F910F900FBE0F901F9018953FB79B
:10087000F89480918A0190918B01A0918C01B091A4
:100880008D0126B5A89B05C02F3F19F00196A11D2B
:10089000B11D3FBFBA2FA92F982F8827820F911D16
:1008A000A11DB11DBC01CD0142E0660F771F881F5D
:1008B000991F4A95D1F70895789484B5826084BDD4
:1008C00084B5816084BD85B5826085BD85B5816054
:1008D00085BDEEE6F0E0808181608083E1E8F0E0B4
:1008E0001082808182608083808181608083E0E8E3
:1008F000F0E0808181608083E1EBF0E080818460C2
:100900008083E0EBF0E0808181608083EAE7F0E0C3
:100910008081846080838081826080838081816027
:1009200080838081806880831092C10008951F9227
:100930000F920FB60F9211242F933F934F935F9313
:100940006F937F938F939F93AF93BF93EF93FF9397
:1009500080918E0190918F01892B29F0E0918E0179
:10096000F0918F010995FF91EF91BF91AF919F9108
:100970008F917F916F915F914F913F912F910F9048
:100980000FBE0F901F9018951F920F920FB60F92E7
:1009900011242F933F934F935F936F937F938F9384
:1009A0009F93AF93BF93EF93FF93809190019091AA
:1009B0009101892B29F0E0919001F0919101099525
:1009C000FF91EF91BF91AF919F918F917F916F9127
:1009D0005F914F913F912F910F900FBE0F901F90FD
:1009E0001895833081F028F4813099F08230A1F09D
:1009F00008958630A9F08730B9F08430D1F4809121
:100A000080008F7D03C0809180008F77809380006D
:100A1000089584B58F7702C084B58F7D84BD089515
:100A20008091B0008F7703C08091B0008F7D80935C
:100A3000B0000895CF93DF9390E0FC01EC55FF4F99
:100A40002491FC01E854FF4F8491882361F190E0E8
:100A5000880F991FFC01E052FF4FC591D491FC0112
:100A6000EA52FF4FA591B491611109C09FB7F89464
:100A70008881209582238883EC912E230BC06230DD
:100A800061F49FB7F8943881822F809583238883FF
:100A9000EC912E2B2C939FBF06C08FB7F894E88162
:100AA0002E2B28838FBFDF91CF9108951F93CF9373
:100AB000DF93282F30E0F901E057FF4F8491F901CF
:100AC000EC55FF4FD491F901E854FF4FC491CC236A
:100AD000C9F0162F81110E94F104EC2FF0E0EE0F07
:100AE000FF1FEA52FF4FA591B4918FB7F8941111EF
:100AF00005C09C91ED2FE095E92302C0EC91ED2B10
:100B0000EC938FBFDF91CF911F910895CF93DF9327
:100B1000282F30E0F901E057FF4F8491F901EC559F
:100B2000FF4FD491F901E854FF4FC491CC2391F0C9
:100B300081110E94F104EC2FF0E0EE0FFF1FE4534F
:100B4000FF4FA591B491EC91ED2381E090E021F469
:100B500080E002C080E090E0DF91CF910895CF92D5
:100B6000DF92EF92FF920F931F93CF93DF936C016D
:100B7000EB017B01E40EF51E00E010E0CE15DF0571
:100B800061F06991D601ED91FC910190F081E02D29
:100B9000C6010995080F191FF1CFC801DF91CF9148
:100BA0001F910F91FF90EF90DF90CF900895611506
:100BB000710579F0FB0101900020E9F73197AF0151
:100BC000461B570BDC01ED91FC910280F381E02D77
:100BD000099480E090E00895EF92FF920F931F93A5
:100BE000CF93DF937C01FB0100E010E06491EF0103
:100BF0002196662361F0D701ED91FC910190F0817F
:100C0000E02DC7010995080F191FFE01EFCFC8019C
:100C1000DF91CF911F910F91FF90EF9008950C9469
:100C2000D705DC01ED91FC910190F081E02D099454
:100C30000F931F93CF93DF93EC016DE00E94110699
:100C40008C016AE0CE010E941106800F911FDF9196
:100C5000CF911F910F9108950F931F93CF93DF931F
:100C6000EC010E94EC058C01CE010E941806800F59
:100C7000911FDF91CF911F910F9108950F931F93B3
:100C8000CF93DF93EC010E94D7058C01CE010E9427
:100C90001806800F911FDF91CF911F910F9108953A
:100CA0008F929F92AF92BF92CF92DF92EF92FF927C
:100CB0000F931F93CF93DF93CDB7DEB7A1970FB6F6
:100CC000F894DEBF0FBECDBF6C01142FE52FCB0112
:100CD000022F19A2223008F40AE07E0121E2E20E7E
:100CE000F11C802E912CA12CB12C612F7E2FA501FF
:100CF00094010E94480B029F1019112481E0E81A08
:100D0000F1081A3010F4105D01C0195CF70110836E
:100D1000122FE32FCA01232B242B252B31F7B701E8
:100D2000C6010E94D705A1960FB6F894DEBF0FBE8C
:100D3000CDBFDF91CF911F910F91FF90EF90DF908A
:100D4000CF90BF90AF909F908F900895211531055F
:100D500041F4DC01ED91FC910190F081E02D642FD4
:100D600009940C9450069A01AB0160E070E00C9479
:100D7000A606FC01448355836683778308950C940B
:100D8000700BFC0124853585F901E05CFF4F808103
:100D90009181329620813181821B930B8F73992729
:100DA0000895DC011C96ED91FC911D97DF01A05C7C
:100DB000BF4F2D913C91119712968D919C91119757
:100DC0002817390739F08D919C91E80FF91F808120
:100DD00090E008958FEF9FEF0895FC01A485B585FD
:100DE000FD01E05CFF4F208131813296808191814D
:100DF0002817390779F080819181A80FB91F8C914C
:100E0000208131812F5F3F4F2F7333273183208320
:100E100090E008958FEF9FEF0895FC0181A1882352
:100E200029F0A489B5898C9186FFFBCF11A2089582
:100E30000F931F93CF93DF93FC01A685B7858D0198
:100E4000005C1F4FE8018881998101968F73992773
:100E5000AD014E5B5F4FEA0128813981821793070C
:100E6000D1F3E80128813981A20FB31F6C93A685C5
:100E7000B785A05CBF4F11969C938E93A689B789C6
:100E80002C9181E090E0078C02C0880F991F0A9492
:100E9000E2F7822B8C9381E081A30488F589E02D11
:100EA00080818064808381E090E0DF91CF911F9109
:100EB0000F9108951F920F920FB60F9211242F9346
:100EC0004F935F938F939F93EF93FF938091C00015
:100ED00082FD1CC02091C600809138029091390299
:100EE00001968F73992740913A0250913B028417E3
:100EF000950771F0E0913802F0913902E850FE4F09
:100F00002083909339028093380202C08091C600FA
:100F1000FF91EF919F918F915F914F912F910F9042
:100F20000FBE0F901F9018951F920F920FB60F9241
:100F300011242F933F938F939F93EF93FF932091CF
:100F4000F4013091F5018091F6019091F701281795
:100F5000390731F48091C1008F7D8093C10014C0A6
:100F6000E091F601F091F701EC54FE4F2081809161
:100F7000F6019091F70101968F7399279093F701ED
:100F80008093F6012093C600FF91EF919F918F917E
:100F90003F912F910F900FBE0F901F901895CF92F9
:100FA000DF92EF92FF920F931F93CF93DF93EC01A9
:100FB0006A017B014115514E6105710509F1EC890A
:100FC000FD8981E090E008A002C0880F991F0A9473
:100FD000E2F7808360E079E08DE390E0A70196017D
:100FE0000E94480B89019A01015011092109310918
:100FF0003695279517950795980101151041A8F08A
:10100000EC89FD89108260E874E88EE190E0A70128
:1010100096010E94480BDA01C9010197A109B109A3
:10102000B695A795979587959C01E889F9893083AE
:10103000EA89FB89208319A2EE89FF89408181E03A
:1010400090E09C010C8C02C0220F331F0A94E2F73F
:10105000242B2083EE89FF8940819C010D8C02C0E6
:10106000220F331F0A94E2F7242B2083EE89FF8995
:1010700040819C010E8C02C0220F331F0A94E2F7BC
:10108000242B2083EE89FF8920810F8C02C0880FDA
:10109000991F0A94E2F7809582238083DF91CF9194
:1010A0001F910F91FF90EF90DF90CF900895E2E9AC
:1010B000F1E01382128288EE93E0A0E0B0E0848336
:1010C0009583A683B7838CE091E09183808388EF3A
:1010D00091E09587848784EB91E09787868785ECFC
:1010E00090E0918B808B84EC90E0938B828B80ECF2
:1010F00090E0958B848B81EC90E0978B868B82ECD3
:1011000090E0918F808F86EC90E0938F828F84E0C7
:10111000848F83E0858F87E0868F85E0878F81E0ED
:1011200080A308951F920F920FB60F9211242F9350
:101130003F934F935F936F937F938F939F93AF935F
:10114000BF93EF93FF9380913D0287FF05C01092FC
:101150008500109284001BC020913D02022E000CDD
:10116000330B80913C0290E02817390784F480917A
:101170003D02082E000C990BFC01EE0FFF1F8E0F95
:101180009F1FFC01E25CFD4F808186FD15C08091B0
:101190003D028F5F80933D0220913D02022E000CA4
:1011A000330B80913C0290E028173907C4F48091FA
:1011B0003D028C3064F113C080913D02082E000C7A
:1011C000990BFC01EE0FFF1F8E0F9F1FFC01E25CCD
:1011D000FD4F808160E08F730E945605D8CF8091CB
:1011E000840090918500049680349C4918F480E432
:1011F0009CE905C0809184009091850004969093AD
:101200008900809388008FEF80933D023BC020913E
:1012100084003091850080913D02082E000C990BCE
:10122000FC01EE0FFF1F8E0F9F1FFC01E25CFD4FC4
:1012300081819281820F931F90938900809388000F
:1012400080913D02082E000C990BFC01EE0FFF1F50
:101250008E0F9F1FFC01E25CFD4F808186FF12C054
:1012600080913D02082E000C990BFC01EE0FFF1F30
:101270008E0F9F1FFC01E25CFD4F808161E08F7348
:101280000E945605FF91EF91BF91AF919F918F9171
:101290007F916F915F914F913F912F910F900FBE72
:1012A0000F901F9018958091910290E020919202EA
:1012B000821B910908959091920280919102981752
:1012C00050F4E92FF0E0ED56FD4F208130E09F5FB4
:1012D0009093920202C02FEF3FEFC9010895E09171
:1012E000920280919102E81730F4F0E0ED56FD4F44
:1012F000808190E008958FEF9FEF08950895CF9239
:10130000DF92EF92FF920F931F93CF93DF937C01B5
:10131000262F972F8A0180916E02882391F0C62F85
:10132000D72F6E01C40ED51ECC15DD0571F0699165
:10133000D701ED91FC910190F081E02DC701099555
:10134000F3CF642F822F0E94F209C801DF91CF9161
:101350001F910F91FF90EF90DF90CF900895CF9362
:10136000DF931F92CDB7DEB7698320916E022223EF
:10137000D1F020916F02203240F021E030E0FC01FA
:101380003383228380E090E015C080917002E82FC3
:10139000F0E0EF58FD4F998190838F5F809370024A
:1013A00080936F0205C061E0CE0101960E94F209B0
:1013B00081E090E00F90DF91CF910895FC011382BE
:1013C000128288EE93E0A0E0B0E084839583A68348
:1013D000B7838CE191E091838083089582E692E067
:1013E0000C94DE09613298F420912003243089F4B2
:1013F0006093D502FC0127ED32E0D9018A2F821BD0
:10140000861718F481918D93F9CF80E0089581E0DB
:10141000089582E0089585ED8093BC008091BC0022
:1014200084FDFCCF10922003089585EC8093BC00CE
:101430001092200308951F920F920FB60F9211245D
:101440002F933F934F935F936F937F938F939F93CC
:10145000AF93BF93EF93FF938091B900887F80365D
:1014600009F49CC068F5883209F45BC090F48031BF
:1014700009F454C038F4882309F4F5C0883009F41D
:101480004DC0F5C0883109F44CC0803209F45DC00C
:10149000EEC0803409F468C048F4803309F455C0C4
:1014A000883309F0E4C08093B302A8C0803509F402
:1014B0004FC0883509F45DC0883409F0D8C0D5C064
:1014C000883909F4C6C0A8F4883709F467C038F42D
:1014D000883609F463C0803709F460C0C8C0883812
:1014E00009F4B7C0803909F45FC0803809F0BFC083
:1014F0005BC0803B09F485C038F4803A09F466C0CB
:10150000883A09F47EC0B3C0803C09F4A6C0883C88
:1015100009F4A3C0883B09F489C0A9C080911F03C6
:1015200010C09091F8028091F702981770F5E09141
:10153000F80281E08E0F8093F802F0E0E750FD4F53
:1015400080818093BB0085EC85C08093B3028DC001
:10155000E091F80281E08E0F8093F8028091BB0049
:10156000F0E0E750FD4F80839091F8028091F70200
:101570006DC0E091F80281E08E0F8093F8028091B7
:10158000BB00F0E0E750FD4F808380911E03811186
:101590006CC081E080931D0384EA60C083E0809387
:1015A00020031092B402CFCF8091B402803208F0B1
:1015B00050C0E091B40281E08E0F8093B40280911C
:1015C000BB00F0E0EB54FD4F8083BDCF8091B402AF
:1015D000803230F4E091B402F0E0EB54FD4F108221
:1015E0000E940B0A6091B40270E0E0911903F0913F
:1015F0001A0385EB92E009951092B4020E94150A35
:1016000036C084E0809320031092D6021092D50257
:10161000E0911B03F0911C0309958091D502811183
:1016200005C081E08093D5021092D702E091D602E6
:1016300081E08E0F8093D602F0E0E952FD4F808169
:101640008093BB009091D6028091D502981708F440
:101650007ACF85E88093BC000AC085EC8093BC00FB
:101660001092200304C01092B3020E940B0AFF9153
:10167000EF91BF91AF919F918F917F916F915F910A
:101680004F913F912F910F900FBE0F901F90189583
:10169000A1E21A2EAA1BBB1BFD010DC0AA1FBB1F76
:1016A000EE1FFF1FA217B307E407F50720F0A21BE8
:1016B000B30BE40BF50B661F771F881F991F1A9455
:1016C00069F760957095809590959B01AC01BD017F
:1016D000CF010895EE0FFF1F0590F491E02D0994BE
:1016E000CF93DF938230910510F482E090E0E09197
:1016F0002303F091240320E030E0C0E0D0E03097F5
:1017000011F14081518148175907C0F04817590716
:1017100061F482819381209719F09B838A832BC087
:10172000909324038093230326C02115310519F0DB
:101730004217530718F49A01BE01DF01EF0102803E
:10174000F381E02DDCCF2115310509F1281B390B80
:101750002430310590F412968D919C911397611568
:10176000710521F0FB019383828304C090932403CD
:1017700080932303FD01329644C0FD01E20FF31F65
:1017800081939193225031092D933C933AC020913B
:10179000210330912203232B41F420910201309147
:1017A0000301309322032093210320910001309103
:1017B00001012115310541F42DB73EB740910401D7
:1017C00050910501241B350BE0912103F091220378
:1017D000E217F307A0F42E1B3F0B2817390778F008
:1017E000AC014E5F5F4F2417350748F04E0F5F1F67
:1017F00050932203409321038193919302C0E0E030
:10180000F0E0CF01DF91CF9108950F931F93CF9315
:10181000DF93009709F48CC0FC0132971382128287
:1018200000912303109124030115110581F42081F7
:101830003181820F931F20912103309122032817B9
:10184000390779F5F0932203E093210371C0D801A1
:1018500040E050E0AE17BF0750F412962D913C9136
:101860001397AD012115310509F1D901F3CF9D0180
:10187000DA013383228360817181860F971F82177B
:10188000930769F4EC0128813981260F371F2E5FF9
:101890003F4F318320838A819B8193838283452BB1
:1018A00029F4F0932403E093230342C01396FC939E
:1018B000EE931297ED01499159919E01240F351F26
:1018C000E217F30771F480819181840F951F0296CE
:1018D00011969C938E938281938113969C938E9301
:1018E0001297E0E0F0E0D80112968D919C91139749
:1018F000009719F0F8018C01F6CF8D919C91980119
:101900002E5F3F4F820F931F2091210330912203BE
:101910002817390769F4309729F41092240310929C
:10192000230302C013821282109322030093210327
:0E193000DF91CF911F910F910895F894FFCF92
:10193E000000250320002000000000001807AF055E
:10194E00C106ED06D1060D0700000000AF097F09A4
:08195E0053095B096F097E09C2
:00000001FF
