:100000000C9456050C9472200C949F200C947E0541
:100010000C947E050C947E050C947E050C947E0554
:100020000C947E050C947E050C947E050C940D2A90
:100030000C947E050C947E050C947E050C947E0534
:100040000C94761F0C947E050C94F8260C943227A1
:100050000C947E050C947E050C947E050C947E0514
:100060000C9443310C947E05036EDB363D9A9999CE
:10007000993DABAAAA2A3E000000803F084AD73B20
:100080003BCE016E84BCBFFDC12F3D6C74319ABD67
:1000900056833DDA3D00C77F11BED9E4BB4C3E918B
:1000A0006BAAAABE000000803F072C7AA5BA6CC5D7
:1000B00090DA3B9365FC8BBC53F810FD3C56928361
:1000C0004DBD879D3AB63DCBC9BF5BBE73DA0FC944
:1000D0003F005D203D20004E6577204B765B004B56
:1000E00070203D20005D203D20004E6577204B7044
:1000F0005B002000200020002000200020002000C5
:100100005374617274004465627574206465207470
:100110006573740052656D61696E696E67207469FC
:100120006D65203D20005265736574206779726F9C
:10013000207061746800526573657420494D5500E4
:100140004649464F206F766572666C6F77210029AD
:1001500000444D5020496E697469616C697A61741C
:10016000696F6E206661696C65642028636F6465E1
:10017000200001B202FFFF0190040923A135016AAA
:10018000020600016008000000000000000000609E
:100190000440000000016202000000600400400012
:1001A00000037B034CCD6C03AB033656760068042A
:1001B00002CB47A202180400058BC1010C04000009
:1001C0000000037F060CC92C9797970389032646E6
:1001D00066006C022000024004000000000244049B
:1001E0000000000002480400000000024C0400006F
:1001F000000002500400000000025404000000004F
:1002000002580400000000025C040000000002BC70
:10021000040000000001EC0400004000037F060C15
:10022000C92C9797970402030D355D040904872DA7
:10023000353D00A3010000000001078601FE0741D3
:1002400005F120283038077E01300746019A07471C
:1002500004F1283038076C04F12830380216020007
:1002600004FB00003E000B0036000100020003000A
:100270000000650054FFEF0000FA80000B128200BE
:10028000010002000000000000000000000000006B
:100290000000280000FFFF4581FFFFFA7200000008
:1002A00000000003E80000000100017FFFFFFE8066
:1002B00001001B0000000000000000000000000022
:1002C00000003E03304000000002CAE3093E800007
:1002D000002000000000000000400000006000005E
:1002E0000041FF000000000B2A000016550000210D
:1002F00082FD872650FD800000001F000000058061
:1003000000000000000001000000020000000300E7
:1003100000400000000000046F0002653200005E33
:10032000C0400000000000000000000000000000CD
:1003300000FB8C6F5DFD5D08D9007C733B006C1287
:10034000CC3200139D3200D0D632000800400001AC
:10035000F4FFE68079020000000000D0D6000027FC
:1003600010FB000000400000000000000000000042
:10037000000000000100000000000001000100007A
:10038000000000FA36FFBC308E0005FBF0FFD95BA1
:10039000C8FFD09ABE000010A9FFF41EB200CEBB69
:1003A000F70000000100000004000200020200004B
:1003B0000CFFC280000001800000CF8000400000E0
:1003C0000000000001000000000000060000000026
:1003D0001400000000000000000000000000000009
:1003E000000000000000000000000000000000000D
:1003F00000000000000000000000000000000000FD
:100400000000000000033F68B6793528BCC67ED1E5
:100410006C80000000400000000000B26A00000094
:1004200000000000000000000000003FF00000009D
:10043000300000000000000000000000000000008C
:1004400000000000000000000000000000000000AC
:10045000000000254D002F706D000005AE000C025D
:10046000D00000000000650054FFEF000000000015
:1004700000000001000044000000000C000000012A
:1004800000000000000065000000540000FFEF00C5
:10049000000000000000000000000000000000005C
:1004A000004000000000000000000000000000000C
:1004B00000400000000000000000000000000000FC
:1004C0000000000001000000020000000000000029
:1004D000000000000000000000000000000000001C
:1004E000000000000000000000000000000000000C
:1004F00000001B00000000000000000000000000E1
:1005000000000000000000000000000000000000EB
:10051000000000000000000000000000004000009B
:1005200000001B00000000000000000000000000B0
:1005300000000000000000000000000000000000BB
:1005400000000000000000000000000000000000AB
:10055000000000000000000000000000000000009B
:1005600000D8DCBAA2F1DEB2B8B4A88191F74A9003
:100570007F916AF3F9DBA8F9B0BAA080F2CE81F3DB
:10058000C2F1C1F2C3F3CCA2B280F1C6D880BAA73F
:10059000DFDFDFF2A7C3CBC5B6F087A29424487093
:1005A0003C95406834589B78A2F183922D557DD8B4
:1005B000B1B4B8A1D09180F270F370F27C80A8F150
:1005C00001B09887D943D886C988BAA1F20EB897E6
:1005D00080F1A9DFDFDFAADFDFDFF2AAC5CDC7A97F
:1005E0000CC92C97979797F1A989264666B0B4BA9B
:1005F00080ACDEF2CAF1B28C02A9B69800890E1660
:100600001EB8A9B4992C547CB08AA896365676F1B7
:10061000B9AFB4B083C0B8A89711B18F98B9AFF093
:10062000240844106418F1A329557DAF83B593AF16
:10063000F0002850F1A3869F61A6DADEDFD9FAA385
:100640008696DB31A6D9F8DFBAA68FC2C5C7B28CB1
:10065000C1B8A2DFDFDFA3DFDFDFD8D8F1B8A8B2EF
:1006600086B4980D355DB8AA98B0872D353DB2B6E1
:10067000BAAF8C96198F9FA70E161EB49AB8AA8788
:100680002C547CB9A3DEDFDFA3B180F2C4CDC9F165
:10069000B8A9B499830D355D89B9A32D557DB5935E
:1006A000A30E161EA92C547CB8B4B0F19783A811E0
:1006B00084A50998A383F0DA240844106418D8F1BB
:1006C000A529557DA58595021A2E3A565A4048F916
:1006D000F3A3D9F8F098832408441064189782A8EB
:1006E000F111F098A2240844106418DAF3DED883DC
:1006F000A59401D9A302F1A2C3C5C7D8F18492A2DF
:100700004DDA2AD84869D92AD86855DA32D85071D2
:10071000D932D8705DDA3AD85879D93AD87893A3D3
:100720004DDA2AD84869D92AD86855DA32D85071B2
:10073000D932D8705DDA3AD85879D93AD878A88AB7
:100740009AF02850789EF38818F19F1D98A8D90830
:10075000D8C89F129EF315A8DA1210D8F1AFC89727
:100760008734B5B994A421F3D922D8F22DF3D92A2C
:10077000D8F235F3D932D881A4606061D961D86CE0
:100780006869D969D8747071D971D8B1A384193DD9
:100790005DA3831A3E5E931030811011B8B0AF8F05
:1007A00094F2DA3ED8B49AA88729DAF8D8879A352D
:1007B000DAF8D8879A3DDAF8D8B1B9A49885022E2C
:1007C00056A581000C14A397B08AF12DD928D84DD5
:1007D000D948D86DD968D8B1840DDA0ED8A3298349
:1007E000DA2C0ED8A3844983DA2C4C0ED8B8B0A8E2
:1007F0008A9AF520AADADFD8A840AAD0DADED8A8EB
:1008000060AADAD0DFD8F19786A8319B069907ABAA
:100810009728889BF00C201440B8B0B4A88C9CF0AA
:10082000042851791D301438B282ABD0982C505026
:1008300078789BF11AB0F08A9CA82951798B2951BC
:10084000798A2470598B2058718A4469388B3940D1
:10085000688A6448318B304960A588200971584402
:1008600068113964493019F1AC002C547CF08CA823
:1008700004285078F1889726A85998AC8C0226460F
:1008800066F0899CA82951792470594469386448D4
:1008900031A98809205970AB11384069A81931482D
:1008A000608CA83C415C207C00F187981986A86E7A
:1008B000767EA999882D557D9EB9A38A228A6E8A53
:1008C000568A5E9FB183062646660E2E4E6E9DB8F2
:1008D000AD002C547CF2B18CB499B9A32D557D8117
:1008E00091AC38AD3AB58391AC2DD928D84DD948C3
:1008F000D86DD968D88C9DAE29D904AED851D90409
:10090000AED879D904D881F39DAD008DAE1981ADF3
:10091000D901D8F2AEDA26D88E912983A7D9ADAD08
:10092000ADADF32AD8D8F1B0AC89913E5E76F3AC88
:100930002E2EF1B18C5A9CAC2C2828289CAC301857
:10094000A8988128343C9724A728343C9C24F2B0F2
:1009500089AC912C4C6C8A9B2DD9D8D851D9D8D838
:1009600079D9D8D8F19E88A331DAD8D8912DD92851
:10097000D84DD948D86DD968D8B18393353D8025F5
:10098000DAD8D88569DAD8D8B49381A328343CF36F
:10099000AB8BF8A391B609B4D9ABDEFAB0879CB99A
:1009A000A3DDF1A3A3A3A395F1A3A3A39DF1A3A307
:1009B000A3A3F2A3B49080F2A3A3A3A3A3A3A3A38E
:1009C000A3A3B2A3A3A3A3A3A3B087B599F1A3A3A1
:1009D000A398F1A3A3A3A397A3A3A3A3F39BA3A368
:1009E000DCB9A7F1262626D8D8FF466C696768745B
:1009F000004C616E64696E6700494D5520496E690F
:100A0000740045534320537461727400494D55205E
:100A1000496E6974005468726F74746C6520446F19
:100A2000776E004553432043616C6962726174695B
:100A30006F6E005468726F74746C6520557000544A
:100A400068726F74746C6520446F776E00000000EC
:100A5000070002010000030406000000000000007F
:100A60000001020408102040800102040810200147
:100A70000204081020040404040404040402020212
:100A80000202020303030303030000000023002605
:100A900000290000000000250028002B00000000B5
:100AA00000240027002A0000F5278A2C11241FBEED
:100AB000CFEFD8E0DEBFCDBF11E0A0E0B1E0E0E3D2
:100AC000F7E702C005900D92AE3BB107D9F723E0DE
:100AD000AEEBB1E001C01D92A936B207E1F715E017
:100AE000C6E5D5E004C02197FE010E94F138C43567
:100AF000D107C9F70E94EE060C94963B0C940000B7
:100B00008F929F92AF92BF92CF92DF92EF92FF921D
:100B10000F931F93CF93DF93CDB7DEB7AC970FB68C
:100B2000F894DEBF0FBECDBF6C016CE871E0CE0162
:100B300086960E9462226CE871E0CE014F960E9478
:100B400062226CE871E0CE0148960E94622260E069
:100B500070E0CE0186960E948F2260E070E0CE01A8
:100B60004F960E948F22CE0101967C0180E1F70111
:100B700011928A95E9F784ED91E00E945F2618169C
:100B800019060CF00CC18E010F5E1F4F40E264EDA0
:100B900071E0C8010E943726B801CE0186960E94F6
:100BA0007822C8010E94F42160E070E0CE018696B0
:100BB0000E9417238111F3C040E264ED71E0C80187
:100BC0000E943726B801CE014F960E947822C801B4
:100BD0000E94F42164ED71E0C8010E941D26B80155
:100BE000CE0148960E947822C8010E94F42168E84C
:100BF00071E0C8010E946222B801CE014F960E94A6
:100C0000E7225C01C8010E94F421AB2809F069C009
:100C1000B701C6010E94BC0DCE0148960E94472331
:100C20004B015C01CE0186960E944723880C991CDB
:100C3000880C991C8E0C9F1C0E945336F401608313
:100C4000718382839383B701C6010E94D9086AEE3B
:100C500070E084ED91E00E948F23BE01685E7F4FBB
:100C600084ED91E00E94B22365EE70E084ED91E0A6
:100C70000E948F23CE0148960E944723660F771F5C
:100C8000660F771FF701E60FF71F408151816281E0
:100C9000738122E030E084ED91E00E94D5256FED74
:100CA00070E084ED91E00E948F235701F50141919E
:100CB0005191619171915F0122E030E084ED91E00A
:100CC0000E94D3256BE871E084ED91E00E94E72358
:100CD000A016B10659F76CE871E084ED91E00E942E
:100CE00016246DE871E0C8010E946222B801CE01AD
:100CF0004F960E94E7225C01C8010E94F421AB28B4
:100D000009F047C0B701C6010E94F50DCE01489613
:100D10000E9447234B015C01CE0186960E94472327
:100D2000880C991C880C991C8E0C9F1C0E945336B1
:100D3000F4016083718382839383B701C6010E94AB
:100D40004B0967ED70E084ED91E00E948F23BE01B6
:100D5000685E7F4F84ED91E00E94B22362ED70E007
:100D600084ED91E00E948F23CE0148960E94472394
:100D7000660F771F660F771FF701E60FF71F408199
:100D800051816281738122E030E084ED91E00E9424
:100D9000D52560E070E0CE0186960E948F22CE01BC
:100DA00048960E94F421CE014F960E94F421CE0174
:100DB00086960E94F421AC960FB6F894DEBF0FBE63
:100DC000CDBFDF91CF911F910F91FF90EF90DF90FA
:100DD000CF90BF90AF909F908F900895CF93DF9367
:100DE000CDB7DEB7E8970FB6F894DEBF0FBECDBF24
:100DF0000E941720CE0101967C0188E1F701119233
:100E00008A95E9F780E18E01075D1F4FF801982F61
:100E100011929A95E9F72E01E9E14E0E511CF2016B
:100E200011928A95E9F761E08DE00E94F52040E09B
:100E300052EC61E070E084ED91E00E946D2741E0AA
:100E400050E060E070E084ED91E00E94172666E0DB
:100E500071E084ED91E00E94042482E291E00E941E
:100E60005D266C010E94E00AD092C501C092C401C7
:100E700083E191E00E945D266C010E94E90ED09210
:100E8000C301C092C20186E290E00E945D266C011F
:100E90000E94571ED092C101C092C00185E190E02E
:100EA0000E945D266C010E94441CD092BF01C0923A
:100EB000BE01C6010E945D1C60E071E084ED91E01E
:100EC0000E9404243E01FDE06F0E711C1E0189E3A7
:100ED000280E311C0E94C01F4B015C018091BE0195
:100EE0009091BF010E94261D8091C4019091C5017F
:100EF0000E94780D8091C0019091C1010E94281E2E
:100F00008091C2019091C3010E94C40F8091C401DD
:100F10009091C5010E948005B7018091C201909116
:100F2000C3010E94A20FB3018091C2019091C3013D
:100F30000E94B30FB2018091C4019091C5010E943B
:100F40003F0AB8018091C4019091C5010E948C0CA8
:100F50006701F60141915191619171916F0124E016
:100F600030E084ED91E00E94D3256EEF70E084EDD7
:100F700091E00E948F23C614D70459F76801F60147
:100F800061917191819191916F0120E030E048EC85
:100F900052E40E94A935AB01BC0124E030E084EDAD
:100FA00091E00E94D3256CEF70E084ED91E00E9407
:100FB0008F23C214D30419F7CE014D966C01F601AC
:100FC00041915191619171916F0124E030E084ED84
:100FD00091E00E94D3256AEF70E084ED91E00E94D9
:100FE0008F23C016D10659F7E091C401F091C501D5
:100FF00046A957A960AD71AD2AE030E084ED91E0DB
:101000000E94C82468EF70E084ED91E00E948F2375
:10101000E091C401F091C501ED5BFF4F408151812A
:10102000628173812AE030E084ED91E00E94C8245F
:1010300066EF70E084ED91E00E948F23E091C4019F
:10104000F091C501E05BFF4F408151816281738166
:101050002AE030E084ED91E00E94C82464EF70E063
:1010600084ED91E00E948F23E091C401F091C501CD
:10107000E35AFF4F40815181628173812AE030E061
:1010800084ED91E00E94C82462EF70E084ED91E06D
:101090000E948F2384ED91E00E94F0230E94C01FE4
:1010A000AB01BC01481959096A097B092AE030E003
:1010B00084ED91E00E94DC240DCFCF92DF92EF927D
:1010C000FF922BED3FE049EC50E40E9499366B0112
:1010D0007C012BED3FE049E450EC0E94A43518164A
:1010E0004CF02BED3FE049EC50E4C701B6010E9403
:1010F000AB3412C02BED3FE049E450E4C701B60128
:101100000E94C037181654F42BED3FE049EC50E430
:10111000C701B6010E94AA346B017C01C701B60168
:10112000FF90EF90DF90CF900895AF92BF92CF9253
:10113000DF92EF92FF920F931F93CF93DF936C0197
:101140005A01FB0121913191419151918F01F60199
:1011500061917191819191917F010E94AA34E50181
:101160006993799389939993F0E1CF0ED11CF7019C
:1011700061917191819191917F01F801219131915A
:10118000419151918F010E94AA340E945D08699398
:10119000799389939993EC14FD0449F7DF91CF91EA
:1011A0001F910F91FF90EF90DF90CF90BF90AF9085
:1011B00008954F925F926F927F928F929F92AF921B
:1011C000BF92CF92DF92EF92FF920F931F93CF9334
:1011D000DF93CDB7DEB7C054D1090FB6F894DEBFA8
:1011E0000FBECDBF8C014B0180E4E8E0F1E0DE01F1
:1011F000119601900D928A95E1F7CE0101967C013E
:101200002E0191E4490E511C3B01E0E16E0E711C70
:1012100054016701F50121913191419151915F0193
:10122000F60160817181828193810E94CD37F60140
:1012300061937193819391936F01A614B70451F751
:10124000F0E1EF0EF11CE414F50411F70E591F4FF5
:1012500024E030E044E050E0BE016F5F7F4F8EE756
:1012600092E00E943028C05CDF4F0FB6F894DEBFDA
:101270000FBECDBFDF91CF911F910F91FF90EF90E7
:10128000DF90CF90BF90AF909F908F907F906F90A6
:101290005F904F9008954F925F926F927F928F92DE
:1012A0009F92AF92BF92CF92DF92EF92FF920F93F5
:1012B0001F93CF93DF93CDB7DEB7C054D1090FB6DC
:1012C000F894DEBF0FBECDBF8C014B0180E4E8E493
:1012D000F1E0DE01119601900D928A95E1F7CE01C1
:1012E00001967C012E0191E4490E511C3B01E0E185
:1012F0006E0E711C54016701F501219131914191EC
:1013000051915F01F60160817181828193810E9418
:10131000CD37F60161937193819391936F01A61478
:10132000B70451F7F0E1EF0EF11CE414F50411F7E6
:101330000E551F4F24E030E044E050E0BE016F5FE7
:101340007F4F8EE792E00E943028C05CDF4F0FB6DF
:10135000F894DEBF0FBECDBFDF91CF911F910F91EB
:10136000FF90EF90DF90CF90BF90AF909F908F90C5
:101370007F906F905F904F9008954F925F926F9221
:101380007F928F929F92AF92BF92CF92DF92EF9215
:10139000FF920F931F93CF93DF93CDB7DEB7C05467
:1013A000D1090FB6F894DEBF0FBECDBF8C014B0143
:1013B00080E4E8E0F1E0DE01119601900D928A955B
:1013C000E1F7CE0101967C012E0191E4490E511CFA
:1013D0003B01E0E16E0E711C54016701F5012191A2
:1013E0003191419151915F01F6016081718182815A
:1013F00093810E94CD37F60161937193819391930C
:101400006F01A614B70451F7F0E1EF0EF11CE414DC
:10141000F50411F70E511F4F24E030E044E050E096
:10142000BE016F5F7F4F8EE792E00E943028C05C64
:10143000DF4F0FB6F894DEBF0FBECDBFDF91CF9167
:101440001F910F91FF90EF90DF90CF90BF90AF90E2
:101450009F908F907F906F905F904F9008950F9323
:101460001F938C01045F1F4F21E030E044E050E007
:101470008EE792E00E9430281F910F9108950F93FC
:101480001F930C968B0121E030E044E050E0BC015A
:101490008EE792E00E9430281F910F9108950F93DC
:1014A0001F93CF93DF93EC018B01FB0140815181AE
:1014B000628173818D960E944C0EF80144815581A2
:1014C00066817781CE01CA960E944C0EF801408554
:1014D000518562857385CE01895B9F4F0E944C0EBA
:1014E000F8014485558566857785CE018C5A9F4FD6
:1014F000DF91CF911F910F910C944C0ECF93DF93FE
:10150000EC018D960E94B50ECE01CA960E94B50ED2
:10151000CE01895B9F4F0E94B50ECE018C5A9F4F22
:10152000DF91CF910C94B50ECF93DF93EC018D96A4
:101530000E94C20ECE01CA960E94C20ECE01895BE5
:101540009F4F0E94C20ECE018C5A9F4FDF91CF91C8
:101550000C94C20EEF92FF920F931F93CF93DF93E1
:10156000CDB7DEB760970FB6F894DEBF0FBECDBF24
:101570007C01BE016F5F7F4F80E1FB0111928A9574
:10158000E9F78701045E1F4F21E030E044E050E0BE
:101590008EE792E00E9430280E94C01FF70160870A
:1015A00071878287938760960FB6F894DEBF0FBE6F
:1015B000CDBFDF91CF911F910F91FF90EF900895D4
:1015C0003F924F925F926F927F928F929F92AF92D3
:1015D000BF92CF92DF92EF92FF920F931F93CF9320
:1015E000DF93CDB7DEB7C054D1090FB6F894DEBF94
:1015F0000FBECDBF8C012C018DE2480E511CC201E3
:101600000E942E0E5801EAE3AE0EB11CC5010E94E5
:101610002E0E6801F7E4CF0ED11CC6010E942E0EDB
:10162000780184E5E80EF11CC7010E942E0E0E948D
:10163000C01FF801608371838283938382E390E00B
:10164000A0E0B0E084839583A683B78380E090E038
:10165000AAEFB2E489AB9AABABABBCAB1DAA1EAA96
:101660001FAA18AE19AE1AAE1BAE1CAE21961CAE48
:101670001DAE1EAE1FAE219780E1382E3E01F1E275
:101680006F0E711CF301832D11928A95E9F74E01BB
:10169000E1E18E0E911CF401832D11928A95E9F7F8
:1016A000BE016F5C7F4FC8010E94D908B301C80119
:1016B0000E944B09B401C8010E94BD09BE016F5FC1
:1016C0007F4FFB0111923A94E9F7C8010E942F0A5B
:1016D000C8010E94AA0AF80114A666E070E0C201DF
:1016E0000E94CF0E69E070E0C5010E94CF0E6AE053
:1016F00070E0C6010E94CF0E6BE070E0C7010E944F
:10170000CF0EF801EF59FF4F1082C05CDF4F0FB6CC
:10171000F894DEBF0FBECDBFDF91CF911F910F9127
:10172000FF90EF90DF90CF90BF90AF909F908F9001
:101730007F906F905F904F903F9008957F928F922F
:101740009F92AF92BF92CF92DF92EF92FF920F9350
:101750001F93CF93DF93CDB7DEB7E0970FB6F89422
:10176000DEBF0FBECDBF8C010E94C01FF801C08438
:10177000D184E284F3849B01AC012C193D094E090C
:101780005F0969017A010E94C01FF80160877187B3
:101790008287938780E1782E4E01F1E28F0E911CB3
:1017A000F401272D11922A95E9F7B4018091C20125
:1017B0009091C3010E94440F5E0131E1A30EB11C60
:1017C000F501272D11922A95E9F7B501C8010E946C
:1017D0003F0AAE014F5F5F4FFA0111927A94E9F729
:1017E000B401C5010E949508C701B6010E94533695
:1017F0006B017C0129813A814B815C810E94CD374C
:1018000020E030E04AE754E40E94A9359B01AC0196
:10181000F801648D758D868D978D0E94AB34F8012B
:10182000648F758F868F978F2D813E814F8158856C
:10183000C701B6010E94CD3720E030E04AE754E40A
:101840000E94A9359B01AC01F80160A171A182A1A0
:1018500093A10E94AB34F80160A371A382A393A368
:1018600029853A854B855C85C701B6010E94CD3735
:1018700020E030E04AE754E40E94A9359B01AC0126
:10188000F80164A175A186A197A10E94AB34F8016B
:1018900064A375A386A397A32D853E854F8558899C
:1018A000C701B6010E94CD3720E030E04AE754E49A
:1018B0000E94A9359B01AC01F80160A571A582A524
:1018C00093A50E94AB34F80160A771A782A793A7E4
:1018D000E0960FB6F894DEBF0FBECDBFDF91CF917B
:1018E0001F910F91FF90EF90DF90CF90BF90AF903E
:1018F0009F908F907F9008950F931F934C968B012C
:1019000021E030E044E050E0BC018EE792E00E942C
:1019100030281F910F9108953F924F925F926F92DE
:101920007F928F929F92AF92BF92CF92DF92EF926F
:10193000FF920F931F93CF93DF93CDB7DEB7C459B8
:10194000D1090FB6F894DEBF0FBECDBF5C01CD56F6
:10195000DF4F79836883C359D0408E010F571F4FE3
:1019600080E1382EF801832D11928A95E9F73E0126
:1019700091E7690E711CF301832D11928A95E9F7A5
:10198000FE01EF59FF4F832D11928A95E9F72E0141
:1019900091E5490E511CF201832D11928A95E9F7C8
:1019A0004E0191E4890E911CF401832D11928A95C8
:1019B000E9F7B8018091C2019091C3010E94440FE0
:1019C000B3018091C2019091C3010E94730FBE01C7
:1019D0006F597F4FC5010E947C0CB201C5010E9466
:1019E0003F0AA401B801C2010E9495082E0191E3AB
:1019F000490E511CF201832D11928A95E9F7B50128
:101A00006E597F4F6201EE24E394F12C04E010E064
:101A100024E030E0A4018EE792E00E9481284E018C
:101A200091E2890E911CF401832D11928A95E9F7B8
:101A3000B5016E557F4F640124E030E0A3018EE7CD
:101A400092E00E9481283E0191E1690E711CF30130
:101A5000832D11928A95E9F7730101E010E024E0EB
:101A600030E0A401B2018EE792E00E944229FE011B
:101A700031964F0111923A94E9F7B5016E517F4FBB
:101A80006401EE24E394F12C04E010E024E030E063
:101A9000AE014F595F4F8EE792E00E948128CD56EC
:101AA000DF4FE880F980C359D04001E010E024E026
:101AB00030E0A401B3018EE792E00E944229CC56A7
:101AC000DF4F0FB6F894DEBF0FBECDBFDF91CF91D1
:101AD0001F910F91FF90EF90DF90CF90BF90AF904C
:101AE0009F908F907F906F905F904F903F90089560
:101AF000EF92FF920F931F93CF93DF93CDB7DEB793
:101B000060970FB6F894DEBF0FBECDBFFC01EF5952
:101B1000FF4F20812223C1F08C01FC0184A5882382
:101B200019F0C8010E949E0BCE0101967C0180E154
:101B3000F70111928A95E9F7B701C8010E948C0C50
:101B4000B701C8010E944F0A60960FB6F894DEBF35
:101B50000FBECDBFDF91CF911F910F91FF90EF90FE
:101B60000895FC01EF59FF4F81E080830895FC0147
:101B7000EF59FF4F108208958F929F92AF92BF92BC
:101B8000EF92FF920F931F93CF93DF937C0122E696
:101B9000E20EF11C8B01EC01CE58DF4FF701819072
:101BA0009190A190B1907F0120E030E0A901C501A2
:101BB000B4010E94C037181624F0B7FAB094B7F8F1
:101BC000B094F80181929192A192B1928F01EC169A
:101BD000FD0621F7DF91CF911F910F91FF90EF90BC
:101BE000BF90AF909F908F9008958F929F92AF92E9
:101BF000BF92EF92FF920F931F93CF93DF937C01DD
:101C000022EAE20EF11C8B01EC01CE54DF4FF7010A
:101C100081909190A190B1907F0120E030E0A901E6
:101C2000C501B4010E94C037181624F0B7FAB09469
:101C3000B7F8B094F80181929192A192B1928F017C
:101C4000EC16FD0621F7DF91CF911F910F91FF90C8
:101C5000EF90BF90AF909F908F900895CF93DF93B8
:101C6000EC010E94CE2A1C821B828AEF90E0A0E049
:101C7000B0E08D839E83AF83B88788EE93E0A0E0C9
:101C8000B0E089879A87AB87BC8766E070E0CE01B9
:101C9000DF91CF910C946C2BCF92DF92EF92FF9259
:101CA000CF93DF93EC016A017B016D817E818F818F
:101CB00098850E9453369B01AC01C701B6010E9472
:101CC000AB346B017C0120E030E04AEF53E40E942A
:101CD000C03718166CF020E030E0A901C701B6014A
:101CE0000E94A43587FF0AC0C12CD12C760106C002
:101CF000C12CD12C8AEFE82E83E4F82E20E030E0CE
:101D00004DE455E4C701B6010E94CD3720E032E929
:101D100040EC56E40E94AB340E94403820E030E0B2
:101D20004DE153E40E94AA3420E030E04DEC54E44D
:101D30000E94A93520E030E040E85FE30E94AB3428
:101D400020E030E04AE754E40E94CD370E9422367A
:101D500069877A878B879C87CE01DF91CF91FF902F
:101D6000EF90DF90CF900C94802B40ED57E060E037
:101D700070E0FC01418752876387748760ED77E0EC
:101D80000C94802B48EE53E060E070E0FC0141874A
:101D900052876387748768EE73E00C94802B0F93EF
:101DA0001F93CF93DF9300D0CDB7DEB78C01FC013A
:101DB0007483638369837A830E94722B69817A8139
:101DC000C8010F900F90DF91CF911F910F910C944C
:101DD0006C2BCF93DF93EC010E948019FE01EE5F24
:101DE000FE4F108235961082118212821382349631
:101DF0001082118212821382349610821182128212
:101E00001382CE0123E030E0FC01E655FF4F108243
:101E10001182128213823C961082118212821382E6
:101E20003C9610821182128213823C96108211829B
:101E3000128213827C9610821182128213823C9647
:101E400010821182128213822150310904962115C9
:101E50003105D1F6FE01E652FF4F10821182128247
:101E60001382349610821182128213823496108269
:101E7000118212821382CA51DF4F188219821A828C
:101E80001B82DF91CF910895DB01FC01EE54FF4FDF
:101E900040815181628173814D935D936D937C93F9
:101EA0001397F896408151816281738114964D9306
:101EB0005D936D937C931797349640815181628135
:101EC000738118964D935D936D937C931B97349615
:101ED00040815181628173811C964D935D936D9316
:101EE0007C931F970895DB01FC01E254FF4F408172
:101EF0005181628173814D935D936D937C931397B0
:101F0000F896408151816281738114964D935D935F
:101F10006D937C93179734964081518162817381D0
:101F200018964D935D936D937C931B9734964081E7
:101F30005181628173811C964D935D936D937C9367
:101F40001F9708950F931F9386519F4F8B0121E098
:101F500030E043E050E0BC018EE792E00E94302880
:101F60001F910F9108950F931F938A509F4F8B01DC
:101F700021E030E043E050E0BC018EE792E00E94B7
:101F800030281F910F9108954F925F926F927F9228
:101F90008F929F92AF92BF92CF92DF92EF92FF9279
:101FA0000F931F93CF93DF93CDB7DEB7E0970FB6B4
:101FB000F894DEBF0FBECDBF6C018C010E5F1E4FCB
:101FC0007C018DEFE81A8EEFF80AF801808181110B
:101FD0000DC0C6010E94171AF80180830E94C01F1D
:101FE000F7016083718382839383EFCF18E14E0101
:101FF000F9E18F0E911CF401812F11928A95E9F776
:10200000C6010E946D1AB401C6010E94901BBE0158
:102010006B5D7F4FC6010E94A11BFE0131965F01DF
:1020200011921A95E9F7B501C6010E94A20FBE01EF
:10203000635F7F4FC6010E94B30F3601F5EF6F1A41
:10204000FEEF7F0AF301E080F1800281138121E03D
:1020500030E043E050E0B5018EE792E00E94BB29FA
:102060002601F1EF4F1AFEEF5F0AF201E080F180E6
:102070000281138121E030E043E050E0BE01635F64
:102080007F4F8EE792E00E94BB29F30120813181CE
:102090004281538160E070E080E89FE30E94AA34AF
:1020A0007B018C0121E030E043E050E0B4018EE799
:1020B00092E00E94BB29F20120813181428153814B
:1020C00060E070E080E89FE30E94AA347B018C010D
:1020D00021E030E043E050E0BE016B5D7F4F8EE7D2
:1020E00092E00E94BB29750101E010E026E030E09B
:1020F000A401B5018EE792E00E94422986010651B3
:102100001F4F21E030E043E050E0B5018EE792E060
:102110000E943028045F1F4F21E030E043E050E090
:10212000BE01635F7F4F8EE792E00E943028E09609
:102130000FB6F894DEBF0FBECDBFDF91CF911F91D8
:102140000F91FF90EF90DF90CF90BF90AF909F9056
:102150008F907F906F905F904F9008950E94FF1B2B
:1021600066E371E084ED91E00C940424CF92DF9259
:10217000EF92FF920F931F93CF93DF93EC010E9496
:10218000C01F7E012DEFE21A2EEFF20AF701008147
:10219000118122813381DC01CB01801B910BA20BC9
:1021A000B30B81329E44A105B10558F066E271E09F
:1021B00084ED91E00E940424CE010E94AE1081E0E3
:1021C00043C00E94C01FC95FDE4F088119812A8168
:1021D0003B81DC01CB01801B910BA20BB30B893E31
:1021E0009340A105B10578F164E171E084ED91E0DF
:1021F0000E948F23F701C080D180E280F3800E948B
:10220000C01FF0E2CF0EFEE4DF1EE11CF11CA701AF
:102210009601261B370B480B590BCA01B90128EE52
:1022200033E040E050E00E94B038BA01A9012AE052
:1022300030E084ED91E00E94DC240E94C01F68839E
:1022400079838A839B8380E0DF91CF911F910F91E7
:10225000FF90EF90DF90CF90089581E08093C601CA
:1022600008954F925F926F927F928F929F92AF925A
:10227000BF92CF92DF92EF92FF920F931F93CF9373
:10228000DF93CDB7DEB768970FB6F894DEBF0FBE09
:10229000CDBF8C01FB018BA59CA5ADA5BEA58D87EF
:1022A0009E87AF87B88B8FA598A9A9A9BAA9898B52
:1022B0009A8BAB8BBC8B8BA99CA9ADA9BEA98D8B2E
:1022C0009E8BAF8BB88F8FA898ACA9ACBAACC080EE
:1022D000D180E280F38084819581A681B781898352
:1022E0009A83AB83BC8380859185A285B3858D83DA
:1022F0009E83AF83B88784859585A685B7858987B2
:102300009A87AB87BC872D853E854F855889C70145
:10231000B6010E94CD372B013C0129893A894B89AE
:102320005C8969817A818B819C810E94CD379B0178
:10233000AC01C301B2010E94AA342B013C012D89DA
:102340003E894F89588D6D817E818F8198850E944D
:10235000CD379B01AC01C301B2010E94AA342B010D
:102360003C01A501940169857A858B859C850E9435
:10237000CD379B01AC01C301B2010E94AA34D80140
:102380006D937D938D939C93139729893A894B89FB
:102390005C89C701B6010E94CD372B013C012D8518
:1023A0003E854F85588969817A818B819C810E9405
:1023B000CD379B01AC01C301B2010E94AB342B01AC
:1023C0003C01A50194016D817E818F8198850E94D9
:1023D000CD379B01AC01C301B2010E94AB342B018C
:1023E0003C012D893E894F89588D69857A858B8579
:1023F0009C850E94CD379B01AC01C301B2010E94B4
:10240000AA34F80164837583868397832D893E8976
:102410004F89588DC701B6010E94CD372B013C0171
:10242000A501940169817A818B819C810E94CD37BD
:102430009B01AC01C301B2010E94AA342B013C01F3
:102440002D853E854F8558896D817E818F81988548
:102450000E94CD379B01AC01C301B2010E94AB3495
:102460002B013C0129893A894B895C8969857A85E8
:102470008B859C850E94CD379B01AC01C301B201C5
:102480000E94AB34D80118966D937D938D939C93E5
:102490001B97A5019401C701B6010E94CD376B01BE
:1024A0007C012D893E894F89588D69817A818B8184
:1024B0009C810E94CD379B01AC01C701B6010E94EF
:1024C000AB346B017C0129893A894B895C896D8128
:1024D0007E818F8198850E94CD379B01AC01C70119
:1024E000B6010E94AA346B017C012D853E854F8583
:1024F000588969857A858B859C850E94CD379B019B
:10250000AC01C701B6010E94AB34F801648775873E
:1025100086879787C80168960FB6F894DEBF0FBE0E
:10252000CDBFDF91CF911F910F91FF90EF90DF9082
:10253000CF90BF90AF909F908F907F906F905F9063
:102540004F9008954F925F926F927F928F929F92D9
:10255000AF92BF92EF92FF920F931F93CF93DF93AF
:10256000CDB7DEB7E0970FB6F894DEBF0FBECDBF94
:102570008C017B01FC0164817581072E000C880BA6
:10258000990B0E9453364B015C01F8016281738103
:10259000072E000C880B990B0E9453362B013C012F
:1025A000F80180819181BC01990F880B990B0E94E1
:1025B0005336198A1A8A1B8A1C8A6D8B7E8B8F8BE5
:1025C000988F498E5A8E6B8E7C8E8D8E9E8EAF8E9E
:1025D000B8A28DB79EB740970FB6F8949EBF0FBEB6
:1025E0008DBFADB7BEB7119680E1FE017196019027
:1025F0000D928A95E1F7B701CE0181960E943111C3
:1026000080E1FE01B196DE01519601900D928A950E
:10261000E1F7F70184859585A685B785B058408593
:10262000518562857385705884809580A680B780B7
:10263000B7FAB094B7F8B09440805180628073804C
:1026400049825A826B827C828D829E82AF82B8865A
:1026500049875A876B877C878D879E87AF87B88B22
:102660008DB79EB740970FB6F8949EBF0FBE8DBF33
:10267000ADB7BEB7119680E1FE01319601900D9283
:102680008A95E1F7BE016F5E7F4FCE0181960E9471
:10269000311180E1FE01B196DE01519601900D925B
:1026A0008A95E1F76D897E898F89988D0E941B3606
:1026B000F80171836083698D7A8D8B8D9C8D0E946A
:1026C0001B36F801738362836D8D7E8D8F8D98A18B
:1026D0000E941B36F801758364830FB6F894DEBF41
:1026E0000FBECDBFE0960FB6F894DEBF0FBECDBFD4
:1026F000DF91CF911F910F91FF90EF90BF90AF901E
:102700009F908F907F906F905F904F9008958F92E1
:102710009F92AF92BF92CF92EF920F931F93CF935E
:10272000DF93CDB7DEB7C059D1090FB6F894DEBF3D
:102730000FBECDBF5C010E941A2D6EE170E080E0FB
:1027400090E00E94F11F60E0C5010E94212D21E070
:1027500041E060E1C5010E942D2E66E0C5010E94A6
:10276000382EC5010E943E2E20E040E060E0C50109
:102770000E942D2EC5010E94742DC5010E94922D2C
:10278000182FC5010E94B92D882EC5010E94E02D89
:10279000982E4FE760E0C5010E94DB2C60E0C50188
:1027A0000E94052D48E660E0C5010E94DB2CC501B2
:1027B0000E94132D64E170E080E090E00E94F11F20
:1027C000EE24E39400E020E049E857E061E672E09F
:1027D000C5010E949B2F882309F40EC240EC50E0F3
:1027E00061EA71E0C5010E945730882309F406C2EE
:1027F00063E0C5010E94282D62E1C5010E94E62C1C
:1028000064E0C5010E94912C61E0C5010E94972CF3
:1028100063E0C5010E94A22C63E0C5010E94AD2CBB
:1028200063E0C5010E945A3060E0C5010E9460303B
:1028300060E0C5010E948B2D612FC5010E94AE2D65
:10284000682DC5010E94D52D692DC5010E94FC2D62
:10285000812C912CF401EE58FE4FE491A1E8B0E0F8
:10286000AC0FBD1FA80DB11DEC9381E0880D9FEF4B
:10287000891A990AE3E0E81568F7CD57DF4F4881D8
:10288000C358D04050E09A012E5F3F4F90E0281788
:10289000390704F7C12CEE24E394CE57DF4F0881AB
:1028A000C258D040CF57DF4F2881C158D04061E88F
:1028B00070E06C0F7D1F6D5F7F4FC5010E94BA2EC7
:1028C00080E0F401EE58FE4FE491A1E8B0E0AC0FD7
:1028D000BD1FA80FB11DEC938F5FFFEF8F1A9F0AEA
:1028E000843078F3CD57DF4F4881C358D04050E053
:1028F000BA016E5F7F4F282F30E0621773070CF725
:10290000C12CEE24E394CE57DF4F0881C258D0404B
:10291000CF57DF4F2881C158D04061E870E06C0F7D
:102920007D1F6D5F7F4FC5010E94BA2EC5010E94B9
:102930000C2DC5010E94472D482FBE016F5F7F4FB0
:10294000C5010E94652D62E0C5010E94C32C6CE99F
:10295000C5010E94CF2C60E5C5010E94C92C60E032
:10296000C5010E94D52CC5010E940C2D61E0C50156
:102970000E94FE2C61E0C5010E941F2EC5010E942D
:10298000262E80E0F401EE58FE4FE491A1E8B0E07D
:10299000AC0FBD1FA80FB11DEC938F5F9FEF891A7D
:1029A000990A843078F3CD57DF4F4881C358D0401F
:1029B00050E0BA016E5F7F4F282F30E06217730737
:1029C0000CF7C12CEE24E394CE57DF4F0881C25898
:1029D000D040CF57DF4F2881C158D04061E870E028
:1029E0006C0F7D1F6D5F7F4FC5010E94BA2E80E086
:1029F000F401EE58FE4FE491A1E8B0E0AC0FBD1F2A
:102A0000A80FB11DEC938F5FEFEF8E1A9E0A8430F2
:102A100078F3CD57DF4F4881C358D04050E0BA011A
:102A20006E5F7F4F282F30E0621773070CF7C12CC1
:102A3000EE24E394CE57DF4F0881C258D040CF57E1
:102A4000DF4F2881C158D04061E870E06C0F7D1FD6
:102A50006D5F7F4FC5010E94BA2E80E0F401EE58F1
:102A6000FE4FE491A1E8B0E0AC0FBD1FA80FB11D6F
:102A7000EC938F5FFFEF8F1A9F0A843078F3CD5766
:102A8000DF4F4881C358D04050E0BA016E5F7F4F9E
:102A9000282F30E0621773070CF7C12CEE24E39463
:102AA000CE57DF4F0881C258D040CF57DF4F288123
:102AB000C158D04061E870E06C0F7D1F6D5F7F4FA3
:102AC000C5010E94BA2EC5010E94472D8330910591
:102AD000D0F3482FBE016F5F7F4FC5010E94652D67
:102AE000C5010E94EC2C80E0F401EE58FE4FE49109
:102AF000A1E8B0E0AC0FBD1FA80FB11DEC938F5F34
:102B00009FEF891A990A843078F3CD57DF4F4881B7
:102B1000C358D04050E0BA016E5F7F4F282F30E09D
:102B2000621773070CF7CE57DF4F0881C258D040A9
:102B3000CF57DF4F2881C158D04061E870E06C0F5B
:102B40007D1F6D5F7F4FC5010E94502EC5010E9401
:102B5000472D83309105D0F3482FBE016F5F7F4F23
:102B6000C5010E94652DC5010E94EC2CF401EE58B0
:102B7000FE4F80E09491A1E8B0E0AC0FBD1FA80F1C
:102B8000B11D9C938F5F843010F43196F3CFCD57F5
:102B9000DF4F4881C358D04050E0BA016E5F7F4F8D
:102BA000282F30E06217730784F761E870E06C0F3C
:102BB0007D1F6D5F7F4FC12CEE24E394CE57DF4F16
:102BC0000881C258D040CF57DF4F2881C158D0402C
:102BD000C5010E94BA2E60E0C5010E941F2E8AE244
:102BE00090E0F50193838283C5010E940C2DC501FD
:102BF0000E94EC2C80E003C081E001C082E0C0575D
:102C0000DF4F0FB6F894DEBF0FBECDBFDF91CF917F
:102C10001F910F91EF90CF90BF90AF909F908F90AA
:102C20000895CF93DF93DB01FA01309719F4EC019B
:102C3000E881F981848D90E0982F8827258D820F77
:102C4000911D11969C938E9380A190E0982F8827D8
:102C500021A1820F911D13969C938E93129784A1AC
:102C600090E0982F882725A1820F911D15969C939F
:102C70008E93149780E0DF91CF910895CF93DF93E7
:102C8000DB01FA01309719F4EC01E881F9818081C8
:102C900090E0982F88272181820F911D11969C9397
:102CA0008E93848190E0982F88272581820F911D33
:102CB00013969C938E931297808590E0982F882787
:102CC0002185820F911D15969C938E931497848570
:102CD00090E0982F88272585820F911D17969C9349
:102CE0008E93169780E0DF91CF910895FF920F9316
:102CF0001F93CF93DF93CDB7DEB728970FB6F89425
:102D0000DEBF0FBECDBF8B01BE016F5F7F4F0E9444
:102D10003E16F82E81114CC069817A81072E000C75
:102D2000880B990B0E94533620E030E040E858E3CE
:102D30000E94CD37F80160837183828393836B8116
:102D40007C81072E000C880B990B0E94533620E0E3
:102D500030E040E858E30E94CD37F8016483758382
:102D6000868397836D817E81072E000C880B990BDB
:102D70000E94533620E030E040E858E30E94CD370F
:102D8000F80160877187828793876F817885072E26
:102D9000000C880B990B0E94533620E030E040E88D
:102DA00058E30E94CD37F801648775878687978737
:102DB0008F2D28960FB6F894DEBF0FBECDBFDF91E2
:102DC000CF911F910F91FF900895CF93DF93DB0177
:102DD000FA01309719F4EC01E881F981808990E0DB
:102DE000982F88272189820F911D11969C938E938D
:102DF000848990E0982F88272589820F911D13964A
:102E00009C938E931297808D90E0982F8827218D28
:102E1000820F911D15969C938E93149780E0DF91FD
:102E2000CF9108958F929F92AF92BF92CF92DF92EF
:102E3000EF92FF920F931F93CF93DF93EB017A01F1
:102E40008901FA0160817181072E000C880B990BB2
:102E50000E9453364B015C0120E030E040E056E434
:102E6000F80160817181828193810E94CD379B013D
:102E7000AC01C501B4010E94AA340E941B367983BB
:102E80006883F70162817381072E000C880B990B10
:102E90000E9453364B015C0120E030E040E056E4F4
:102EA000F80164817581868197810E94CD379B01ED
:102EB000AC01C501B4010E94AA340E941B367B8379
:102EC0006A83F70164817581072E000C880B990BCA
:102ED0000E9453366B017C0120E030E040E056E474
:102EE000F80160857185828593850E94CD379B01AD
:102EF000AC01C701B6010E94AA340E941B367D8333
:102F00006C8380E0DF91CF911F910F91FF90EF9044
:102F1000DF90CF90BF90AF909F908F900895CB019E
:102F2000B90136E0FA01DC0101900D923A95E1F722
:102F30000E94A21280E008954F925F926F927F925A
:102F40008F929F92AF92BF92CF92DF92EF92FF92B9
:102F50000F931F93CF93DF93CDB7DEB728970FB6AC
:102F6000F894DEBF0FBECDBF8B01DA011496CD9071
:102F7000DD90ED90FC9017971C964D905D906D90B4
:102F80007C901F978D909D90AD90BC901397189654
:102F90008D919D910D90BC91A02D89839A83AB83D7
:102FA000BC83A3019201C701B6010E94CD376D8396
:102FB0007E838F83988729813A814B815C81C5010B
:102FC000B4010E94CD379B01AC016D817E818F8160
:102FD00098850E94AA349B01AC010E94AB34F80191
:102FE0006083718382839383A7019601C501B40135
:102FF0000E94CD376D837E838F839887A3019201D2
:1030000069817A818B819C810E94CD379B01AC01C3
:103010006D817E818F8198850E94AB349B01AC01CC
:103020000E94AB34D80114966D937D938D939C933D
:103030001797A5019401C501B4010E94CD374B013A
:103040005C01A7019601C701B6010E94CD379B0123
:10305000AC01C501B4010E94AA346B017C01298135
:103060003A814B815C81CA01B9010E94CD379B0135
:10307000AC01C701B6010E94AA346B017C01A30117
:103080009201C301B2010E94CD379B01AC01C7017F
:10309000B6010E94AB34F8016087718782879387FD
:1030A00080E028960FB6F894DEBF0FBECDBFDF914B
:1030B000CF911F910F91FF90EF90DF90CF90BF9035
:1030C000AF909F908F907F906F905F904F900895FA
:1030D0002F923F924F925F926F927F928F929F9228
:1030E000AF92BF92CF92DF92EF92FF920F931F9316
:1030F000CF93DF9300D000D0CDB7DEB78B011A019C
:10310000FA01C080D180E280F380A7019601C70157
:10311000B6010E94AB3469837A838B839C83F1016F
:1031200084809580A680B780A5019401C501B40173
:103130000E94AB342B013C01A701960169817A8181
:103140008B819C810E94CD376B017C01A50194018C
:10315000C301B2010E94CD379B01AC01C701B6018A
:103160000E94AB3420E030E040E85FE30E94AA34E4
:103170006B017C01F1012085318542855385C301B6
:10318000B2010E94CD372B013C01F1012485358528
:103190004685578569817A818B819C810E94CD37D4
:1031A0009B01AC01C301B2010E94AA34A7019601A0
:1031B0000E944535F8016083718382839383F10116
:1031C00064817581868197819B01AC010E94AB343B
:1031D000F10124853585468557850E94CD376B01E1
:1031E0007C01F10160817181828193819B01AC013D
:1031F0000E94AB34F10120853185428553850E94C0
:10320000CD379B01AC01C701B6010E94AB340E94CF
:103210001735DC01CB01B058F80184839583A68370
:10322000B783F10180809180A280B380A5019401D1
:10323000C501B4010E94AB342B013C01F101C484EF
:10324000D584E684F784A50194010E94CD374B0113
:103250005C01A7019601C701B6010E94AB34A7012A
:1032600096010E94CD379B01AC01C501B4010E94BB
:10327000AB3420E030E040E85FE30E94AA344B0129
:103280005C01F10160857185828593859B01AC01AC
:103290000E94AB34A70196010E94CD376B017C01DF
:1032A000F1012481358146815781C301B2010E9419
:1032B000CD379B01AC01C701B6010E94AA34A5011C
:1032C00094010E944535F801608771878287938752
:1032D00080E00F900F900F900F90DF91CF911F9192
:1032E0000F91FF90EF90DF90CF90BF90AF909F90A5
:1032F0008F907F906F905F904F903F902F900895A8
:10330000CF93DF93EC0169E60E948E2C1B8A1C8A06
:103310001D8A198E188EFE01E65AFF4F40E050E0DC
:1033200060E87FE340835183628373831482158254
:1033300016821782108611861286138614861586C9
:1033400016861786DE01A659BF4F4D935D936D9388
:103350007C93139714961D921D921D921C921797A1
:1033600018961D921D921D921C921B971C961D92E1
:103370001D921D921C921F97509611961C921E92A0
:1033800013961C921E92129715961C921E921497D9
:10339000169611961C921E9213961C921E921297CC
:1033A00015961C921E921497169611961C921E92B8
:1033B00013961C921E92129715961C921E921497A9
:1033C00016961D921D921D921C92139714961D9293
:1033D0001D921D921C92179718961D921D921D9278
:1033E0001C921B971C961D921D921D921C92139766
:1033F0001C9611961C921E9218971D921D921D925A
:103400001C9213971A9611961C921E9216971D9253
:103410001D921D921C92139718961D921C926A96EB
:103420001992CE17DF07E1F7DF91CF910895CF937F
:10343000DF93EC0185EA92E00E94502C88E18093B2
:10344000B800CE010E94332DCE010E9487138D8BD0
:103450006CED70E0CE010E940D2E6CE470E0CE01A8
:103460000E94132E6BEA7FEFCE010E94192E62E8B4
:1034700076E0CE010E94072E8D89811117C061E090
:10348000CE010E941F2E43E050E06DE271E180E02A
:103490000E945220CE010E94EC2C8C8B81E08B8B01
:1034A0008A819B819F8B8E8B81E014C061E571E0E6
:1034B00084ED91E00E948F234AE050E06D8984ED15
:1034C00091E00E94D5246FE471E084ED91E00E94C8
:1034D000042480E0DF91CF9108958F929F92AF9264
:1034E000BF92CF92DF92EF92FF920F931F93CF93F1
:1034F000DF93CDB7DEB760970FB6F894DEBF0FBE8F
:10350000CDBF2091C601222309F4F7C08C0110928F
:10351000C6010E94EC2CF801848BC8010E94472D43
:10352000F801918F808F248924FD03C08115944078
:10353000D9F4C8010E940C2D60E471E084ED91E0A3
:1035400060960FB6F894DEBF0FBECDBFDF91CF916E
:103550001F910F91FF90EF90DF90CF90BF90AF90B1
:103560009F908F900C940424F801848981FD06C0FB
:10357000C8010E94EC2CF801848BF6CFF801208D55
:10358000318D868997892817390738F4C8010E9438
:10359000472DF801918F808FF1CFC8014A966C01B9
:1035A000F80146895789808D918D8417950770F0B1
:1035B000B601C8010E94652DF801808D918D268984
:1035C0003789821B930B918F808FEACF7801FAE5C0
:1035D000EF0EF11CA601B701C8010E947616B801D2
:1035E00066597F4F8DB79EB740970FB6F8949EBF30
:1035F0000FBE8DBFADB7BEB7119680E1F701019048
:103600000D928A95E1F7CE0101960E94311180E179
:10361000FE013196D70101900D928A95E1F758018C
:1036200098E9A90EB11CA701B501C8010E9468184C
:10363000980120563F4FF90180819181A281B38189
:10364000F50140815181628173817058F901408395
:10365000518362837383B058F50180839183A28381
:10366000B383349680819181A281B381B0588083E5
:103670009183A283B383B8016C557F4FA601C80123
:103680000E94E5164801FCE88F0E911CA701B401C9
:10369000C8010E949C1758012AE7A20EB11CA6017E
:1036A000B501C8010E941116680180E8C80ED11C3E
:1036B0009401A501B601C8010E9412170FB6F89433
:1036C000DEBF0FBECDBFB8016A577F4F9701A6017D
:1036D000C80160960FB6F894DEBF0FBECDBFDF9174
:1036E000CF911F910F91FF90EF90DF90CF90BF90FF
:1036F000AF909F908F900C948F1760960FB6F894B0
:10370000DEBF0FBECDBFDF91CF911F910F91FF9014
:10371000EF90DF90CF90BF90AF909F908F900895E3
:103720000F931F9388569F4F8B0121E030E043E0B9
:1037300050E0BC018EE792E00E9430281F910F916B
:1037400008950F931F93CF93DF93EC018B01FC013E
:10375000EC55FF4F60817181072E000C880B990B8F
:103760000E94533623EC35EF48E450E40E94CD37F5
:1037700020E030E042E053E40E94A935F801608384
:10378000718382839383FE01EA55FF4F60817181CB
:10379000072E000C880B990B0E94533623EC35EF53
:1037A00048E450E40E94CD3720E030E042E053E4AA
:1037B0000E94A935F8016483758386839783C85571
:1037C000DF4F68817981072E000C880B990B0E94CE
:1037D000533623EC35EF48E450E40E94CD3720E027
:1037E00030E042E053E40E94A935F8016087718718
:1037F00082879387DF91CF911F910F9108958F92C8
:103800009F92AF92BF92CF92DF92EF92FF920F936F
:103810001F93FC01E65AFF4F4485558566857785E1
:10382000705800851185228533853058C480D58035
:10383000E680F780F7FAF094F7F8F094DC01A659E7
:10384000BF4F80809180A280B3808D929D92AD9277
:10385000BC9213977496C082D182E282F38234962E
:1038600000831183228333833496408351836283A0
:1038700073831F910F91FF90EF90DF90CF90BF90D7
:10388000AF909F908F900895FC011382128285E083
:1038900090E091838083148A1482158216821782A5
:1038A000108611861286138614861586168617864C
:1038B000108A118A128A138A0895AF92BF92CF920A
:1038C000DF92EF92FF920F931F93CF93DF93EC0160
:1038D00003E010E084E0E82EF12C92E0C92ED12C18
:1038E000AA24A394B12C2A813B812430310509F408
:1038F0009DC02130310509F46DC01CF4232B49F023
:103900008EC02230310571F12330310509F477C0C2
:1039100086C08091C0019091C1010E94281E8091B3
:10392000C0019091C1010E94301F882349F06FE3CC
:103930007AE084ED91E00E940424BB82AA826FC0E9
:103940008091C0019091C1010E94471F882309F412
:1039500066C063E37AE084ED91E00E940424DB8298
:10396000CA825DC063E27AE084ED91E00E940424A3
:103970008091C4019091C5010E947E0A8091C0018E
:103980009091C1010E94301F81110DC06AE070E06A
:1039900080E090E00E94F11F8091C0019091C101F0
:1039A0000E94281EEBCF65E17AE084ED91E00E9451
:1039B00004248091C4019091C5010E94940A68EB8F
:1039C0007BE080E090E00E94F11F1B830A836CE0A3
:1039D0007AE010C062E07AE084ED91E00E94042475
:1039E00068EB7BE080E090E00E94F11F1B830A837C
:1039F00069EF79E084ED91E00E94042410C0809189
:103A0000C2019091C3010E94C40F8091C2019091A4
:103A1000C3010E94B610882311F0FB82EA8261E0A4
:103A200070E080E090E00E94F11F5DCF8091C401C2
:103A30009091C501DF91CF911F910F91FF90EF9071
:103A4000DF90CF90BF90AF900C94B10D8F929F926A
:103A5000AF92BF92CF92DF92EF92FF920F931F939C
:103A6000CF93DF93CDB7DEB760970FB6F894DEBF84
:103A70000FBECDBF7C019E012F5F3F4F590180E1FA
:103A8000F90111928A95E9F7F701808191818530DA
:103A9000910521F0069709F4AFC0C7C0B901809124
:103AA000C2019091C3010E94440F8091C001909186
:103AB000C1010E94621F97012C5F3F4F690188235B
:103AC00009F46DC089809A80AB80BC808091C00170
:103AD0009091C1010E94101F9B01AC01C501B4016E
:103AE0000E94AB34F701648375838683978380914A
:103AF000C0019091C1010E94F01EF701608771879B
:103B0000828793878091C0019091C1010E94D01E4D
:103B1000F70164877587868797878091C0019091A8
:103B2000C1010E94B01E4B015C0120E030E0A90100
:103B30000E94C03720E030E040E251E418161CF447
:103B4000C501B40103C0C501B40190580E94CD372E
:103B500011E02DEC3CEC4CE45EE30E94C0371816FB
:103B600074F010E0F70184898823B1F08D859E857B
:103B7000AF85B889808B918BA28BB38B0DC0A501CB
:103B800094016D857E858F8598890E94AB34F701FD
:103B9000608B718B828B938BF701148B0AC0890128
:103BA00021E030E044E050E0B5018EE792E00E9471
:103BB0003028B6018091C4019091C5010E942F0A5E
:103BC0008091C0019091C1010E94301F882369F14A
:103BD0008091C4019091C5010E94B70D8091C401EC
:103BE0009091C5010E94940A86E090E0F7019183CC
:103BF000808361EF79E015C08091C0019091C1018F
:103C00000E94301F811111C08091C4019091C501A3
:103C10000E94B10D85E090E0F701918380836AEE08
:103C200079E084ED91E00E94042460960FB6F89448
:103C3000DEBF0FBECDBFDF91CF911F910F91FF90DF
:103C4000EF90DF90CF90BF90AF909F908F900895AE
:103C50000F931F93CF93DF938C01FC01C4A1D5A1D7
:103C6000FE013C96EE0FFF1FE00FF11F20E23EE445
:103C700040E050E061E080810E946121CC0FDD1FB7
:103C8000CC0FDD1FC00FD11F688379838A839B838C
:103C9000F80184A195A1019664E070E00E949C382F
:103CA00095A384A3DF91CF911F910F910895EF9277
:103CB000FF920F931F93CF93DF93EC011882198229
:103CC0001A821B821C821D821E821F821886198600
:103CD0001A861B861C861D861E861F86188A198AD0
:103CE0001A8A1B8A1C8A1D8A1E8A1F8A1DA21CA270
:103CF0008CE090E0998F888F88E090E09B8F8A8F8E
:103D000085E090E09D8F8C8F87E090E09F8F8E8F75
:103D100083E090E099A388A384E090E09BA38AA32A
:103D20008E01085E1F4F7E0184E2E80EF11CF8014F
:103D300080810E5F1F4F60E00E94F5200E151F0569
:103D4000B1F706E010E0CE010E94281E01501109D3
:103D5000D1F7DF91CF911F910F91FF90EF900895D0
:103D6000FC0160817181828193810E94513620E043
:103D700030E849E554E40E94AA342DEC3CEC4CECCC
:103D80005EE30E94CD3720E030E047E554E40E9436
:103D9000A9352DEC3CEC4CE45EE30E94AA34089576
:103DA000FC0164817581868197810E94513620E0F3
:103DB00030E849E554E40E94AA342DEC3CEC4CE494
:103DC0005FEB0E94CD3720E030E047E554E40E94ED
:103DD000A9352DEC3CEC4CEC5EE30E94AB3408952D
:103DE000FC0160857185828593850E94513620E0B3
:103DF00030E849E554E40E94AA342DEC3CEC4CE454
:103E00005FE30E94CD3720E030E047E554E40E94B4
:103E1000A9352DEC3CEC4CEC5EE30E94AA340895ED
:103E2000FC0164857585868597850E94513620E062
:103E300030E849E554E40E94AA3420E030E040E054
:103E400050EC0E94CD3720E030E047E554E40E947A
:103E5000A93520E030E040E85FE30E94AB340895EC
:103E6000FC0164857585868597850E94513620E022
:103E700030E849E554E40E94AA3420E030E04CEAFE
:103E800052E40E94A435881F8827881F0895CF9385
:103E9000FC0164857585868597850E94513620E0F2
:103EA00030E849E554E40E94AA34C1E020E030E85B
:103EB00041E454E40E94C03718160CF0C0E08C2F87
:103EC000CF9108959C01205F3F4FFC01419151919A
:103ED00061917191CF01452B462B472B29F0E217B9
:103EE000F30799F781E0089580E008951F920F92FB
:103EF0000FB60F9211242F933F938F939F93AF93FD
:103F0000BF938091C8019091C901A091CA01B0915D
:103F1000CB013091C70123E0230F2D3720F4019608
:103F2000A11DB11D05C026E8230F0296A11DB11DDC
:103F30002093C7018093C8019093C901A093CA013F
:103F4000B093CB018091CC019091CD01A091CE0195
:103F5000B091CF010196A11DB11D8093CC0190932A
:103F6000CD01A093CE01B093CF01BF91AF919F91AE
:103F70008F913F912F910F900FBE0F901F9018952A
:103F80002FB7F8946091C8017091C9018091CA015E
:103F90009091CB012FBF08953FB7F8948091CC0149
:103FA0009091CD01A091CE01B091CF0126B5A89BF3
:103FB00005C02F3F19F00196A11DB11D3FBFBA2FBB
:103FC000A92F982F8827820F911DA11DB11DBC011B
:103FD000CD0142E0660F771F881F991F4A95D1F7E0
:103FE0000895CF92DF92EF92FF92CF93DF936B0110
:103FF0007C010E94CC1FEB01C114D104E104F10447
:1040000079F00E94CC1F6C1B7D0B683E7340A0F3BF
:1040100081E0C81AD108E108F108C851DC4FECCFA3
:10402000DF91CF91FF90EF90DF90CF90089578943B
:1040300084B5826084BD84B5816084BD85B58260AD
:1040400085BD85B5816085BDEEE6F0E0808181604B
:104050008083E1E8F0E0108280818260808380814B
:1040600081608083E0E8F0E0808181608083E1EB23
:10407000F0E0808184608083E0EBF0E0808181600B
:104080008083EAE7F0E080818460808380818260C1
:1040900080838081816080838081806880831092AA
:1040A000C10008958230E8F4E82FF0E0EE0FFF1F22
:1040B000E053FE4F71836083813041F0809169004D
:1040C0008C7F482B40936900E89A0895809169009D
:1040D000440F551F440F551F837F482B40936900A1
:1040E000E99A08951F920F920FB60F9211242F9301
:1040F0003F934F935F936F937F938F939F93AF9370
:10410000BF93EF93FF938091D0019091D101892BC0
:1041100029F0E091D001F091D1010995FF91EF9143
:10412000BF91AF919F918F917F916F915F914F91CF
:104130003F912F910F900FBE0F901F9018951F92D7
:104140000F920FB60F9211242F933F934F935F93CB
:104150006F937F938F939F93AF93BF93EF93FF934F
:104160008091D2019091D301892B29F0E091D20165
:10417000F091D3010995FF91EF91BF91AF919F917C
:104180008F917F916F915F914F913F912F910F9000
:104190000FBE0F901F901895833081F028F4813066
:1041A00099F08230A1F008958630A9F08730B9F0F7
:1041B0008430D1F4809180008F7D03C08091800095
:1041C0008F7780938000089584B58F7702C084B57F
:1041D0008F7D84BD08958091B0008F7703C080915A
:1041E000B0008F7D8093B0000895CF93DF9390E06F
:1041F000FC01EF59F54F2491FC01EB58F54F8491E8
:10420000882361F190E0880F991FFC01E356F54F78
:10421000C591D491FC01ED56F54FA591B491611172
:1042200009C09FB7F8948881209582238883EC91F8
:104230002E230BC0623061F49FB7F8943881822F2F
:10424000809583238883EC912E2B2C939FBF06C0EF
:104250008FB7F894E8812E2B28838FBFDF91CF9101
:1042600008951F93CF93DF93282F30E0F901E35B8C
:10427000F54F8491F901EF59F54FD491F901EB58BD
:10428000F54FC491CC23C9F0162F81110E94CC2088
:10429000EC2FF0E0EE0FFF1FED56F54FA591B49116
:1042A0008FB7F894111105C09C91ED2FE095E9238B
:1042B00002C0EC91ED2BEC938FBFDF91CF911F915A
:1042C00008958F929F92AF92BF92CF92DF92EF921A
:1042D000FF920F931F93CF93DF9390E0FC01EF5970
:1042E000F54FA491FC01EB58F54F8491662311F032
:1042F000BA2F01C0B0E089019A013F7090E0880FA9
:10430000991F8757954F480159014FEF841A940A16
:10431000A40AB40AC12CD12C7601FC01C591D49118
:1043200068816A236B131AC05FEFC51AD50AE50AC4
:10433000F50AC814D904EA04FB0479F745C046011C
:1043400057016FEF861A960AA60AB60AC016D1065A
:10435000E206F30609F438C075016401FC01C59159
:10436000D49168816A236B13EACFB901A8014C1973
:104370005D096E097F096A017B0120E030E0A90137
:10438000FC01C591D49168816A236B130AC02C1576
:104390003D054E055F05C1F02F5F3F4F4F4F5F4F0B
:1043A000EFCFA5E1B0E00E94D238DC01CB0140960E
:1043B000A11DB11DBC01CD0124E09695879577958F
:1043C00067952A95D1F703C060E070E0CB01DF91DB
:1043D000CF911F910F91FF90EF90DF90CF90BF9002
:1043E000AF909F908F900895FC01808191810C94F3
:1043F0009B39CF93DF93EC0188819981009711F06D
:104400000E949B39198218821D821C821B821A828B
:10441000DF91CF9108950F931F93CF93DF93EC011A
:104420008B016F5F7F4F888199810E94333A00979B
:1044300031F0998388831B830A8381E001C080E087
:10444000DF91CF911F910F910895CF93DF93EC01EE
:1044500088819981892B29F08A819B81861797070A
:1044600060F4CE010E940B22882341F08C819D8153
:10447000892B19F4E881F981108281E0DF91CF91D5
:104480000895EF92FF920F931F93CF93DF93EC0168
:104490007B018A01BA010E942522811104C0CE014C
:1044A0000E94F92107C01D830C83B701888199817F
:1044B0000E94433BCE01DF91CF911F910F91FF905E
:1044C000EF900895FC0111821082138212821582EE
:1044D000148216826115710551F0FB0101900020D4
:1044E000E9F73197AF01461B570B0C944122089511
:1044F000CF93DF93EC01FB018617970761F0608192
:1045000071816115710529F0448155810E94412214
:1045100002C00E94F921CE01DF91CF910895CF937F
:10452000DF93EC016115710559F0FB01019000204A
:10453000E9F73197AF01461B570B0E94412202C099
:104540000E94F921CE01DF91CF910895EF92FF9261
:104550000F931F93CF93DF93FC0124813581611565
:10456000710511F480E019C041155105A9F07B01D6
:10457000EC018A01020F131FB8010E942522882333
:1045800089F3288139818C819D81B701820F931F26
:104590000E94433B1D830C8381E0DF91CF911F91EB
:1045A0000F91FF90EF900895CF93DF9300D0CDB798
:1045B000DEB769831A8241E050E0BE016F5F7F4F32
:1045C0000E94A6220F900F90DF91CF910895CF9374
:1045D000DF93DC01ED91FC91EB01A881B98130976B
:1045E00011F01097C9F4109759F0EB012C813D811F
:1045F000232B31F08C9190E091958195910914C015
:10460000309781F0DC0114968D919C911597892B40
:1046100049F0808190E008C0BD01CF01DF91CF91CA
:104620000C943A3B80E090E0DF91CF910895FC013B
:1046300024813581232B31F421E061157105A1F02E
:10464000FB0108C0FC01808191816115710531F485
:1046500021E0FC018081882339F005C00E943A3BAB
:1046600021E0892B09F020E0822F0895FC012481AC
:1046700035816217730748F480819181009729F092
:10468000FC01E60FF71F8081089580E00895FC018A
:1046900080819181009711F00C94FD3A60E070E008
:1046A000CB010895CF92DF92EF92FF920F931F9369
:1046B000CF93DF936C01EB017B01E40EF51E00E06C
:1046C00010E0CE15DF0561F06991D601ED91FC9106
:1046D0000190F081E02DC6010995080F191FF1CF57
:1046E000C801DF91CF911F910F91FF90EF90DF9064
:1046F000CF9008956115710579F0FB0101900020BC
:10470000E9F73197AF01461B570BDC01ED91FC91A6
:104710000280F381E02D099480E090E00895EF920B
:10472000FF920F931F93CF93DF937C01FB0100E077
:1047300010E06491EF012196662361F0D701ED91BD
:10474000FC910190F081E02DC7010995080F191F18
:10475000FE01EFCFC801DF91CF911F910F91FF9024
:10476000EF900895AF92BF92CF92DF92EF92FF92B7
:104770000F931F93CF93DF936C017B01C0E0D0E0D8
:1047800000E010E0D70114968D919C911597C81701
:10479000D90788F4D601ED91FC91A080B180BE01CB
:1047A000C7010E943623682FC601F5010995080F3D
:1047B000191F2196E7CFC801DF91CF911F910F916B
:1047C000FF90EF90DF90CF90BF90AF9008950C9442
:1047D0007A23DC01ED91FC910190F081E02D0994A8
:1047E0000F931F93CF93DF93EC016DE00E94E923B9
:1047F0008C016AE0CE010E94E923800F911FDF91B6
:10480000CF911F910F9108950F931F93CF93DF9333
:10481000EC010E948F238C01CE010E94F023800FB7
:10482000911FDF91CF911F910F9108950F931F93C7
:10483000CF93DF93EC010E947A238C01CE010E947A
:10484000F023800F911FDF91CF911F910F91089559
:104850008F929F92AF92BF92CF92DF92EF92FF9290
:104860000F931F93CF93DF93CDB7DEB7A1970FB60A
:10487000F894DEBF0FBECDBF6C01142FE52FCB0126
:10488000022F19A2223008F40AE07E0121E2E20E92
:10489000F11C802E912CA12CB12C612F7E2FA50113
:1048A00094010E94B038029F1019112481E0E81A87
:1048B000F1081A3010F4105D01C0195CF701108383
:1048C000122FE32FCA01232B242B252B31F7B701FD
:1048D000C6010E947A23A1960FB6F894DEBF0FBEE0
:1048E000CDBFDF91CF911F910F91FF90EF90DF909F
:1048F000CF90BF90AF909F908F900895CF92DF920E
:10490000EF92FF920F931F93CF93DF93EC016A0115
:104910007B012115310579F4E881F9810190F0815D
:10492000E02D642FDF91CF911F910F91FF90EF90B9
:10493000DF90CF9009942A303105E9F477FF1AC04F
:104940006DE20E94E9238C0144275527BA014C19D6
:104950005D096E097F092AE0CE010E942824800F9C
:10496000911FDF91CF911F910F91FF90EF90DF90FA
:10497000CF9008952AE0B701A601CE01DF91CF9133
:104980001F910F91FF90EF90DF90CF900C9428240F
:104990002115310541F4DC01ED91FC910190F0818C
:1049A000E02D642F09940C9428249A01462F50E09E
:1049B00060E070E00C94C8240F931F93CF93DF93B3
:1049C000EC010E94C8248C01CE010E94F023800FCC
:1049D000911FDF91CF911F910F9108954F925F9298
:1049E0006F927F928F929F92AF92BF92CF92DF92FF
:1049F000EF92FF92CF93DF93EC016A017B01B22E1D
:104A00009A01AB01C701B6010E948438882319F0CE
:104A100060E971E027C026013701E89477F82FEFAD
:104A20003FEF4FE75FE7C301B2010E948438811175
:104A30000DC02FEF3FEF4FE75FE7C301B2010E94C8
:104A4000A43518161CF464E971E00CC02FEF3FEF99
:104A50004FE75FE4C701B6010E94C03718169CF407
:104A600068E971E0CE01DF91CF91FF90EF90DF9088
:104A7000CF90BF90AF909F908F907F906F905F90FE
:104A80004F900C947A232FEF3FEF4FE75FECC70175
:104A9000B6010E94A43587FDE3CF20E030E0A901F4
:104AA000C701B6010E94A43587FF0AC06DE2CE019E
:104AB0000E94E9234C01F7FAF094F7F8F09402C051
:104AC000812C912CA12C60E070E080E09FE3AB147E
:104AD00041F020E030E040E251E40E94A935A39487
:104AE000F6CF9B01AC01C701B6010E94AB342B018C
:104AF0003C010E9422366B017C010E9451369B01D1
:104B0000AC01C301B2010E94AA342B013C012AE08E
:104B1000B701A601CE010E9428247C01E80CF91CF3
:104B2000BB2039F06CE971E0CE010E947A23E80ED7
:104B3000F91EDB2CDD2039F120E030E040E251E4C9
:104B4000C301B2010E94CD372B013C010E941B36EC
:104B50004B01770FAA08BB082AE030E0B501A40199
:104B6000CE010E947E24E80EF91EC501B4010E9408
:104B700053369B01AC01C301B2010E94AA342B0140
:104B80003C01DA94D7CFC701DF91CF91FF90EF902E
:104B9000DF90CF90BF90AF909F908F907F906F905D
:104BA0005F904F9008950C94EE240F931F93CF9332
:104BB000DF93EC010E94EE248C01CE010E94F023D1
:104BC000800F911FDF91CF911F910F9108950F9347
:104BD0001F93CF93DF93EC010E94C01F68877987F2
:104BE0008A879B87E881F9810680F781E02DCE01D5
:104BF000099597FF17C00E94C01F088519852A854F
:104C00003B85DC01CB01801B910BA20BB30B0C810C
:104C10001D812E813F8180179107A207B30710F3F2
:104C20008FEF9FEFDF91CF911F910F910895FC01BE
:104C3000448355836683778308950F931F93CF939F
:104C4000DF93EC018B016CE871E00E946222C801E5
:104C50000E94E72597FD05C0682FCE010E94D4224F
:104C6000F6CFCE01DF91CF911F910F910895EF9272
:104C7000FF920F931F93CF93DF93EC017B01042FDF
:104C80006CE871E00E946222C7010E94E72510E0F3
:104C900097FD0BC08017910741F0682FCE010E944D
:104CA000D422C7010E94E725F3CFCE01DF91CF9137
:104CB0001F910F91FF90EF9008950C940639FC011D
:104CC00024853585F901E05CFF4F80819181329622
:104CD00020813181821B930B8F7399270895DC010A
:104CE0001C96ED91FC911D97DF01A05CBF4F2D91AB
:104CF0003C91119712968D919C9111972817390725
:104D000039F08D919C91E80FF91F808190E0089512
:104D10008FEF9FEF0895FC01A485B585FD01E05C50
:104D2000FF4F208131813296808191812817390788
:104D300079F080819181A80FB91F8C9120813181F8
:104D40002F5F3F4F2F7333273183208390E00895E7
:104D50008FEF9FEF0895FC0181A1882329F0A4899A
:104D6000B5898C9186FFFBCF11A208950F931F93F5
:104D7000CF93DF93FC01A685B7858D01005C1F4FA3
:104D8000E8018881998101968F739927AD014E5B67
:104D90005F4FEA012881398182179307D1F3E80137
:104DA00028813981A20FB31F6C93A685B785A05CBB
:104DB000BF4F11969C938E93A689B7892C9181E061
:104DC00090E0078C02C0880F991F0A94E2F7822BAB
:104DD0008C9381E081A30488F589E02D8081806433
:104DE000808381E090E0DF91CF911F910F91089532
:104DF0001F920F920FB60F9211242F934F935F9330
:104E00008F939F93EF93FF938091C00082FD1CC00E
:104E10002091C60080917A0290917B0201968F7357
:104E2000992740917C0250917D028417950771F07B
:104E3000E0917A02F0917B02E65CFD4F2083909333
:104E40007B0280937A0202C08091C600FF91EF91AD
:104E50009F918F915F914F912F910F900FBE0F9067
:104E60001F9018951F920F920FB60F9211242F9337
:104E70003F938F939F93EF93FF932091360230914E
:104E8000370280913802909139022817390731F49E
:104E90008091C1008F7D8093C10014C0E0913802E1
:104EA000F0913902EA50FE4F2081809138029091B2
:104EB000390201968F7399279093390280933802B3
:104EC0002093C600FF91EF919F918F913F912F9179
:104ED0000F900FBE0F901F901895CF92DF92EF9218
:104EE000FF920F931F93CF93DF93EC016A017B0135
:104EF0004115514E6105710509F1EC89FD8981E08B
:104F000090E008A002C0880F991F0A94E2F78083FE
:104F100060E079E08DE390E0A70196010E94B0384F
:104F200089019A0101501109210931093695279506
:104F300017950795980101151041A8F0EC89FD8996
:104F4000108260E874E88EE190E0A70196010E946B
:104F5000B038DA01C9010197A109B109B695A79541
:104F6000979587959C01E889F9893083EA89FB89BF
:104F7000208319A2EE89FF89408181E090E09C01A5
:104F80000C8C02C0220F331F0A94E2F7242B2083DB
:104F9000EE89FF8940819C010D8C02C0220F331FD6
:104FA0000A94E2F7242B2083EE89FF8940819C013B
:104FB0000E8C02C0220F331F0A94E2F7242B2083A9
:104FC000EE89FF8920810F8C02C0880F991F0A94F7
:104FD000E2F7809582238083DF91CF911F910F911B
:104FE000FF90EF90DF90CF900895E4EDF1E0138211
:104FF000128288EE93E0A0E0B0E084839583A683DC
:10500000B78382EA91E0918380838AE392E0958777
:10501000848786EF91E09787868785EC90E0918B77
:10502000808B84EC90E0938B828B80EC90E0958B6E
:10503000848B81EC90E0978B868B82EC90E0918F53
:10504000808F86EC90E0938F828F84E0848F83E062
:10505000858F87E0868F85E0878F81E080A3089524
:105060004F925F926F927F928F929F92AF92BF9278
:10507000CF92DF92EF92FF920F931F93CF93DF9324
:105080005A01AA0CBB1CAA0CBB1CA0E0B0E0812CEE
:10509000912C8216930624F5E12CF12CC0E0D0E08F
:1050A000C417D507BCF4C7018A0F9B1F6B01C80E3C
:1050B000D91EF6014080518062807380800F911F5D
:1050C000FC0140825182628273822196F4E0EF0EED
:1050D000F11CE6CF8FEF881A980AAA0DBB1DD9CF15
:1050E000DF91CF911F910F91FF90EF90DF90CF90C4
:1050F000BF90AF909F908F907F906F905F904F90F8
:1051000008952F923F924F925F926F927F928F926B
:105110009F92AF92BF92CF92DF92EF92FF920F9346
:105120001F93CF93DF93CDB7DEB760970FB6F89498
:10513000DEBF0FBECDBF5C874B873E872D871C83AC
:105140000B83FE82ED829701220F331F220F331F44
:105150003A8329832601C801880F991F880F991F58
:105160009A8789871B01612C712CAD85BE856A16D3
:105170007B060CF06EC0588A4F86E12CF12C00E0C3
:1051800010E0ED81FE810E171F070CF056C0AF85B1
:10519000B8891D921D921D921C921397F7012981C7
:1051A0003A81E21BF30BF887EF83A12CB12C812C01
:1051B000912CC12CD12C29813A81A20EB31E8B8156
:1051C0009C81C816D90674F5B101680D791DEF816F
:1051D000F885EA0DFB1D8B859C85E80FF91F208162
:1051E000318142815381DB016D917D918D919C9143
:1051F0000E94CD379B01AC01EF85F88960817181F8
:10520000828193810E94AB34AF85B8896D937D9381
:105210008D939C931397BFEFCB1ADB0AE4E08E0EBD
:10522000911CC9CF0F5F1F4FAF85B8891496B88BFB
:10523000AF87B4E0EB0EF11CA4CFFFEF6F1A7F0A2B
:1052400029813A81420E531E89859A85280E391E7E
:105250008CCF60960FB6F894DEBF0FBECDBFDF9146
:10526000CF911F910F91FF90EF90DF90CF90BF9063
:10527000AF909F908F907F906F905F904F903F90F6
:105280002F9008952F923F924F925F926F927F924C
:105290008F929F92AF92BF92CF92DF92EF92FF9246
:1052A0000F931F93CF93DF9300D000D000D0CDB7E2
:1052B000DEB72B013A0119019801220F331F220F8B
:1052C000331F3A832983C12CD12C1E821D822D814C
:1052D0003E8122153305B4F5812C912CA12CB12CE3
:1052E000A016B1062CF5C4018C0D9D1DF701E80F29
:1052F000F91FFC83EB83F201E80FF91FD301A80F1C
:10530000B91F2D913D914D915C9160817181828198
:1053100093810E94AB34EB81FC8160837183828333
:105320009383FFEFAF1ABF0A24E0820E911CD8CFFF
:105330008D819E8101969E838D83E981FA81CE0EB7
:10534000DF1EC5CF26960FB6F894DEBF0FBECDBFC9
:10535000DF91CF911F910F91FF90EF90DF90CF9051
:10536000BF90AF909F908F907F906F905F904F9085
:105370003F902F9008952F923F924F925F926F929D
:105380007F928F929F92AF92BF92CF92DF92EF92D5
:10539000FF920F931F93CF93DF931A0149012701C7
:1053A00038017901EE0CFF1CEE0CFF1CEB0100E054
:1053B00010E002151305F4F45E01C12CD12CC814C1
:1053C000D9049CF4A3019201F5016081718182816D
:1053D00093810E94CD37F5016193719381939193ED
:1053E0005F01FFEFCF1ADF0AEACF0F5F1F4FCE0D2D
:1053F000DF1DDFCFDF91CF911F910F91FF90EF90D5
:10540000DF90CF90BF90AF909F908F907F906F90E4
:105410005F904F903F902F9008951F920F920FB67C
:105420000F9211242F933F934F935F936F937F932A
:105430008F939F93AF93BF93EF93FF9380918002DD
:1054400087FF05C010928500109284001BC0209138
:105450008002022E000C330B80917F0290E028170F
:10546000390784F480918002082E000C990BFC010E
:10547000EE0FFF1F8E0F9F1FFC01EF57FD4F808126
:1054800086FD15C0809180028F5F809380022091FD
:105490008002022E000C330B80917F0290E02817CF
:1054A0003907C4F4809180028C3064F113C080917C
:1054B0008002082E000C990BFC01EE0FFF1F8E0FCF
:1054C0009F1FFC01EF57FD4F808160E08F730E94AA
:1054D0003121D8CF8091840090918500049680344A
:1054E0009C4918F480E49CE905C080918400909167
:1054F0008500049690938900809388008FEF8093B5
:1055000080023BC020918400309185008091800210
:10551000082E000C990BFC01EE0FFF1F8E0F9F1F32
:10552000FC01EF57FD4F81819281820F931F909371
:1055300089008093880080918002082E000C990BCE
:10554000FC01EE0FFF1F8E0F9F1FFC01EF57FD4F59
:10555000808186FF12C080918002082E000C990B7A
:10556000FC01EE0FFF1F8E0F9F1FFC01EF57FD4F39
:10557000808161E08F730E943121FF91EF91BF9193
:10558000AF919F918F917F916F915F914F913F91DB
:105590002F910F900FBE0F901F901895FC019091C6
:1055A0007F029C30A0F481E0890F80937F0290837A
:1055B000892F90E0FC01EE0FFF1F8E0F9F1FFC0153
:1055C000EF57FD4F88EB9BE09283818308958FEF27
:1055D00080830895DF92EF92FF920F931F93CF93F2
:1055E000DF93EC01D62E7A01890188818C3008F096
:1055F0006AC061E08D2D0E94F5208881E82FF0E0DF
:105600009F01220F331FE20FF31FEF57FD4F9D2D18
:105610009F732081207CD22ED92AD08260E272E052
:10562000AB014E195F0957FF02C04D5F5F4F5595A3
:10563000479555954795498340E659E09A01201BC7
:10564000310B37FF02C02D5F3F4F359527953595BC
:1056500027952A832CE0622F0E949038289FB00162
:10566000112440E050E09A01260F371FF901EE0F98
:10567000FF1F2E0F3F1FF901EF57FD4F908196FD41
:1056800016C04F5F5F4F4C30510569F781110FC055
:105690001092800082E08093810010928500109229
:1056A0008400B19A80916F00826080936F00E881DE
:1056B000F0E0CF01880F991FE80FF91FEF57FD4F5A
:1056C0008081806480838881DF91CF911F910F91C9
:1056D000FF90EF90DF90089520E639E040E252E03D
:1056E0000C94EA2ADC01EC91F0E0CF01880F991FBD
:1056F000E80FF91FEF57FD4F80818F7B808308955E
:10570000FC0190819C3080F5818128E830E0281BE5
:10571000310987FD3395220F331F220F331F621784
:1057200073077CF0828128E532E0281B310987FD70
:105730003395220F331F220F331F621773070CF4A8
:105740009B014FB7F894892F90E0FC01EE0FFF1FEB
:105750008E0F9F1FFC01EF57FD4F22503109220F82
:10576000331F328321834FBF08958091D50290E08B
:105770002091D602821B910908959091D6028091C2
:10578000D502981750F4E92FF0E0E952FD4F20813F
:1057900030E09F5F9093D60202C02FEF3FEFC90128
:1057A0000895E091D6028091D502E81730F4F0E038
:1057B000E952FD4F808190E008958FEF9FEF0895AB
:1057C0000895CF92DF92EF92FF920F931F93CF93A2
:1057D000DF937C01262F972F8A018091B1028823C5
:1057E00091F0C62FD72F6E01C40ED51ECC15DD0546
:1057F00071F06991D701ED91FC910190F081E02D5C
:10580000C7010995F3CF642F822F0E941A31C80176
:10581000DF91CF911F910F91FF90EF90DF90CF908C
:105820000895CF93DF931F92CDB7DEB769832091A0
:10583000B1022223D1F02091B202203240F021E0C7
:1058400030E0FC013383228380E090E015C080913A
:10585000B302E82FF0E0EC54FD4F998190838F5F05
:105860008093B3028093B20205C061E0CE0101963D
:105870000E941A3181E090E00F90DF91CF9108955E
:10588000FC011382128288EE93E0A0E0B0E08483F2
:105890009583A683B78382EB91E0918380830895FB
:1058A0001092D6021092D5021092B3021092B20258
:1058B0000C946630862F413208F040E267ED72E0CA
:1058C0000E9484301092D6028093D502089521E080
:1058D0000C945A2C81E08093B1026093D402109210
:1058E000B3021092B20208950F93062F21E0409167
:1058F000B20264EB72E08091D4020E94C830109230
:10590000B3021092B2021092B1020F91089561E0B9
:105910000C94742C85EA92E00C94402CFC0160837A
:105920000895462F69E1FC0180810C94A9320F9300
:10593000062F23E045E06AE1FC0180810E94633488
:105940000F9108950F93062F23E042E06AE1FC01D6
:1059500080810E9463340F9108950F93062F22E0F7
:1059600044E06BE1FC0180810E9463340F91089553
:105970000F93062F22E044E06CE1FC0180810E943D
:1059800063340F910895462F6FE1FC0180810C94E0
:10599000A932462F60E2FC0180810C94A932462F87
:1059A00061E2FC0180810C94A932462F62E2FC0185
:1059B00080810C94A932643040F4262F220F620FAC
:1059C0006B5DFC0180810C94A9320895462F68E339
:1059D000FC0180810C94A932CF93DF93EC012091DC
:1059E000060130910701AC014F5F5F4F6AE3888188
:1059F0000E94BF338981DF91CF910895262F46E021
:105A00006AE6FC0180810C942C34262F45E06AE67E
:105A1000FC0180810C942C3421E042E06AE6FC0118
:105A200080810C942C3421E041E06AE6FC01808105
:105A30000C942C3421E047E06BE6FC0180810C944F
:105A40002C34262F46E06BE6FC0180810C942C342C
:105A50000F93062F23E042E06BE6FC0180810E9459
:105A600063340F910895CF93DF93EC0161E00E94BE
:105A7000282D60E0CE010E94AD2C60E0CE010E9496
:105A8000B82C60E0CE01DF91CF910C94212D0F93C3
:105A90001F93CF93DF93EC01009106011091070152
:105AA0009C012F5F3F4F42E062E788810E940933EB
:105AB000298130E0322F22278A81A901482BCA018F
:105AC000DF91CF911F910F9108950F931F939B0129
:105AD000009106011091070164E7FC0180810E949A
