:100000000C94ED040C94D7150C9404160C9415055F
:100010000C9415050C9415050C9415050C941505F8
:100020000C9415050C9415050C9415050C94841C62
:100030000C9415050C9415050C9415050C941505D8
:100040000C94DB140C9415050C94301A0C946A1A59
:100050000C9415050C9415050C9415050C941505B8
:100060000C9485230C941505036EDB363D9A999903
:10007000993DABAAAA2A3E000000803F084AD73B20
:100080003BCE016E84BCBFFDC12F3D6C74319ABD67
:1000900056833DDA3D00C77F11BED9E4BB4C3E918B
:1000A0006BAAAABE000000803F072C7AA5BA6CC5D7
:1000B00090DA3B9365FC8BBC53F810FD3C56928361
:1000C0004DBD879D3AB63DCBC9BF5BBE73DA0FC944
:1000D0003F004649464F206F766572666C6F772108
:1000E000002900444D5020496E697469616C697A39
:1000F0006174696F6E206661696C65642028636F46
:100100006465200001B202FFFF0190040923A135BC
:10011000016A020600016008000000000000000003
:100120000060044000000001620200000060040062
:10013000400000037B034CCD6C03AB0336567600C6
:10014000680402CB47A202180400058BC1010C040D
:1001500000000000037F060CC92C979797038903C2
:10016000264666006C0220000240040000000002E7
:1001700044040000000002480400000000024C0497
:1001800000000000025004000000000254040000BF
:10019000000002580400000000025C04000000009F
:1001A00002BC040000000001EC0400004000037FDA
:1001B000060CC92C9797970402030D355D040904BA
:1001C000872D353D00A3010000000001078601FED8
:1001D000074105F120283038077E01300746019A93
:1001E000074704F1283038076C04F128303802162C
:1001F000020001FB00003E000B003600010002007F
:1002000003000000650054FFEF0000FA80000B12AD
:100210008200010002000000000000000000000059
:1002200000000000280000FFFF4581FFFFFA720078
:10023000000000000003E80000000100017FFFFF54
:10024000FE8001001B000000000000000000000014
:10025000000000003E03304000000002CAE3093EF7
:10026000800000200000000000000040000000604E
:1002700000000041FF000000000B2A00001655009E
:10028000002182FD872650FD800000001F00000035
:1002900005800000000000000100000002000000D6
:1002A000030000400000000000046F0002653200FF
:1002B000005EC040000000000000000000000000E0
:1002C000000000FB8C6F5DFD5D08D9007C733B0076
:1002D0006C12CC3200139D3200D0D63200080040A0
:1002E0000001F4FFE68079020000000000D0D60093
:1002F000002710FB0000004000000000000000008C
:1003000000000000000001000000000000010001EA
:100310000000000000FA36FFBC308E0005FBF0FF45
:10032000D95BC8FFD09ABE000010A9FFF41EB2002E
:10033000CEBBF70000000100000004000200020232
:1003400000000CFFC280000001800000CF80004050
:100350000000000000000100000000000006000096
:100360000000140000000000000000000000000079
:10037000000000000000000000000000000000007D
:10038000000000000000000000000000000000006D
:1003900000000000000000033F68B6793528BCC6A5
:1003A0007ED16C80000000400000000000B26A00B6
:1003B000000000000000000000000000003FF0000E
:1003C00000003000000000000000000000000000FD
:1003D000000000000000000000000000000000001D
:1003E0000000000000254D002F706D000005AE00DC
:1003F0000C02D00000000000650054FFEF00000078
:10040000000000000001000044000000000C00009B
:10041000000100000000000065000000540000FF23
:10042000EF000000000000000000000000000000DD
:10043000000000400000000000000000000000007C
:10044000000000400000000000000000000000006C
:100450000000000000000100000002000000000099
:10046000000000000000000000000000000000008C
:10047000000000000000000000000000000000007C
:10048000000000001B000000000000000000000051
:10049000000000000000000000000000000000005C
:1004A000000000000000000000000000000000400C
:1004B000000000001B000000000000000000000021
:1004C000000000000000000000000000000000002C
:1004D000000000000000000000000000000000001C
:1004E000000000000000000000000000000000000C
:1004F000000000D8DCBAA2F1DEB2B8B4A88191F74E
:100500004A907F916AF3F9DBA8F9B0BAA080F2CEE5
:1005100081F3C2F1C1F2C3F3CCA2B280F1C6D8809C
:10052000BAA7DFDFDFF2A7C3CBC5B6F087A294245A
:1005300048703C95406834589B78A2F183922D55C1
:100540007DD8B1B4B8A1D09180F270F370F27C8004
:10055000A8F101B09887D943D886C988BAA1F20E0C
:10056000B89780F1A9DFDFDFAADFDFDFF2AAC5CD10
:10057000C7A90CC92C97979797F1A989264666B009
:10058000B4BA80ACDEF2CAF1B28C02A9B698008986
:100590000E161EB8A9B4992C547CB08AA89636566B
:1005A00076F1B9AFB4B083C0B8A89711B18F98B93C
:1005B000AFF0240844106418F1A329557DAF83B52A
:1005C00093AFF0002850F1A3869F61A6DADEDFD951
:1005D000FAA38696DB31A6D9F8DFBAA68FC2C5C7C3
:1005E000B28CC1B8A2DFDFDFA3DFDFDFD8D8F1B87C
:1005F000A8B286B4980D355DB8AA98B0872D353D60
:10060000B2B6BAAF8C96198F9FA70E161EB49AB8C1
:10061000AA872C547CB9A3DEDFDFA3B180F2C4CD5E
:10062000C9F1B8A9B499830D355D89B9A32D557D5C
:10063000B593A30E161EA92C547CB8B4B0F19783C1
:10064000A81184A50998A383F0DA2408441064183B
:10065000D8F1A529557DA58595021A2E3A565A40FE
:1006600048F9F3A3D9F8F098832408441064189744
:1006700082A8F111F098A2240844106418DAF3DE7D
:10068000D883A59401D9A302F1A2C3C5C7D8F18428
:1006900092A24DDA2AD84869D92AD86855DA32D8D0
:1006A0005071D932D8705DDA3AD85879D93AD878B9
:1006B00093A34DDA2AD84869D92AD86855DA32D8AE
:1006C0005071D932D8705DDA3AD85879D93AD87899
:1006D000A88A9AF02850789EF38818F19F1D98A850
:1006E000D908D8C89F129EF315A8DA1210D8F1AF16
:1006F000C8978734B5B994A421F3D922D8F22DF341
:10070000D92AD8F235F3D932D881A4606061D96191
:10071000D86C6869D969D8747071D971D8B1A3845B
:10072000193D5DA3831A3E5E931030811011B8B05D
:10073000AF8F94F2DA3ED8B49AA88729DAF8D8872E
:100740009A35DAF8D8879A3DDAF8D8B1B9A49885FD
:10075000022E56A581000C14A397B08AF12DD9283A
:10076000D84DD948D86DD968D8B1840DDA0ED8A340
:100770002983DA2C0ED8A3844983DA2C4C0ED8B8FE
:10078000B0A88A9AF520AADADFD8A840AAD0DADE83
:10079000D8A860AADAD0DFD8F19786A8319B06994D
:1007A00007AB9728889BF00C201440B8B0B4A88CF5
:1007B0009CF0042851791D301438B282ABD0982CAB
:1007C000505078789BF11AB0F08A9CA82951798B07
:1007D0002951798A2470598B2058718A4469388B41
:1007E0003940688A6448318B304960A58820097196
:1007F000584468113964493019F1AC002C547CF02C
:100800008CA804285078F1889726A85998AC8C02B7
:10081000264666F0899CA829517924705944693884
:10082000644831A98809205970AB11384069A8196A
:100830003148608CA83C415C207C00F18798198687
:10084000A86E767EA999882D557D9EB9A38A228AA5
:100850006E8A568A5E9FB183062646660E2E4E6EBF
:100860009DB8AD002C547CF2B18CB499B9A32D5530
:100870007D8191AC38AD3AB58391AC2DD928D84D56
:10088000D948D86DD968D88C9DAE29D904AED85135
:10089000D904AED879D904D881F39DAD008DAE19B5
:1008A00081ADD901D8F2AEDA26D88E912983A7D9A5
:1008B000ADADADADF32AD8D8F1B0AC89913E5E763E
:1008C000F3AC2E2EF1B18C5A9CAC2C2828289CAC71
:1008D0003018A8988128343C9724A728343C9C24BD
:1008E000F2B089AC912C4C6C8A9B2DD9D8D851D9B7
:1008F000D8D879D9D8D8F19E88A331DAD8D8912D13
:10090000D928D84DD948D86DD968D8B18393353D09
:100910008025DAD8D88569DAD8D8B49381A3283469
:100920003CF3AB8BF8A391B609B4D9ABDEFAB08730
:100930009CB9A3DDF1A3A3A3A395F1A3A3A39DF168
:10094000A3A3A3A3F2A3B49080F2A3A3A3A3A3A3FE
:10095000A3A3A3A3B2A3A3A3A3A3A3B087B599F111
:10096000A3A3A398F1A3A3A3A397A3A3A3A3F39BD8
:10097000A3A3DCB9A7F1262626D8D8FF00000007DC
:100980000002010000030406000000000000000057
:100990000102040810204080010204081020010216
:1009A00004081020040404040404040402020202E3
:1009B00002020303030303030000000023002600D8
:1009C000290000000000250028002B000000000086
:1009D000240027002A002D1BCC1E11241FBECFEFA0
:1009E000D8E0DEBFCDBF11E0A0E0B1E0E4E7FAE57A
:1009F00002C005900D92A83DB107D9F723E0A8EDFC
:100A0000B1E001C01D92A338B207E1F714E0CDEECA
:100A1000D4E004C02197FE010E94DF2ACB3ED1071B
:100A2000C9F70E9417050C94382D0C940000CF9341
:100A3000DF93CDB7DEB72C970FB6F894DEBF0FBEAD
:100A4000CDBF0E947C1561E08DE00E945A1640E007
:100A500052EC61E070E08EEE91E00E94A51A82E215
:100A600091E00E9495198C010E9437071093DF01D5
:100A70000093DE018FE091E00E9495198C010E94A5
:100A80001E081093DD010093DC0186E290E00E94D5
:100A900095198C010E9482141093DB010093DA01F6
:100AA00084E090E00E9495198C010E944B141093F1
:100AB000D9010093D8018E010F5F1F4F8CE0F80120
:100AC00011928A95E9F78091DC019091DD010E94F5
:100AD0009608B8018091DC019091DD010E947408B4
:100AE00049815A816B817C8122E030E08EEE91E079
:100AF0000E94811968EA71E08EEE91E00E94B917B8
:100B00004D815E816F81788522E030E08EEE91E04C
:100B10000E94811968EA71E08EEE91E00E94B91797
:100B200049855A856B857C8522E030E08EEE91E028
:100B30000E948319C8CF4F925F926F927F928F92DB
:100B40009F92AF92BF92CF92DF92EF92FF920F935C
:100B50001F93CF93DF93CDB7DEB7C054D1090FB643
:100B6000F894DEBF0FBECDBF8C014B0180E4E8E0FE
:100B7000F1E0DE01119601900D928A95E1F7CE0128
:100B800001967C012E0191E4490E511C3B01E0E1EC
:100B90006E0E711C54016701F50121913191419153
:100BA00051915F01F60160817181828193810E9480
:100BB000BB29F60161937193819391936F01A61400
:100BC000B70451F7F0E1EF0EF11CE414F50411F74E
:100BD0000E591F4F24E030E044E050E0BE016F5F4B
:100BE0007F4F88E992E00E94681BC05CDF4F0FB620
:100BF000F894DEBF0FBECDBFDF91CF911F910F9153
:100C0000FF90EF90DF90CF90BF90AF909F908F902C
:100C10007F906F905F904F9008954F925F926F9288
:100C20007F928F929F92AF92BF92CF92DF92EF927C
:100C3000FF920F931F93CF93DF93CDB7DEB7C054CE
:100C4000D1090FB6F894DEBF0FBECDBF8C014B01AA
:100C500080E4E8E4F1E0DE01119601900D928A95BE
:100C6000E1F7CE0101967C012E0191E4490E511C61
:100C70003B01E0E16E0E711C54016701F501219109
:100C80003191419151915F01F601608171818281C1
:100C900093810E94BB29F601619371938193919393
:100CA0006F01A614B70451F7F0E1EF0EF11CE41444
:100CB000F50411F70E551F4F24E030E044E050E0FA
:100CC000BE016F5F7F4F88E992E00E94681BC05CA5
:100CD000DF4F0FB6F894DEBF0FBECDBFDF91CF91CF
:100CE0001F910F91FF90EF90DF90CF90BF90AF904A
:100CF0009F908F907F906F905F904F9008954F924C
:100D00005F926F927F928F929F92AF92BF92CF929B
:100D1000DF92EF92FF920F931F93CF93DF93CDB7A4
:100D2000DEB7C054D1090FB6F894DEBF0FBECDBFF9
:100D30008C014B0180E4E8E0F1E0DE0111960190C6
:100D40000D928A95E1F7CE0101967C012E0191E486
:100D5000490E511C3B01E0E16E0E711C540167010C
:100D6000F50121913191419151915F01F60160812D
:100D70007181828193810E94BB29F60161937193F5
:100D8000819391936F01A614B70451F7F0E1EF0E30
:100D9000F11CE414F50411F70E511F4F24E030E06C
:100DA00044E050E0BE016F5F7F4F88E992E00E940F
:100DB000681BC05CDF4F0FB6F894DEBF0FBECDBF1F
:100DC000DF91CF911F910F91FF90EF90DF90CF9027
:100DD000BF90AF909F908F907F906F905F904F905B
:100DE00008950F931F938C01045F1F4F21E030E0A3
:100DF00044E050E088E992E00E94681B1F910F9147
:100E00000895EF92FF920F931F93CF93DF93CDB787
:100E1000DEB760970FB6F894DEBF0FBECDBF7C0182
:100E2000BE016F5F7F4F80E1FB0111928A95E9F768
:100E30008701045E1F4F21E030E044E050E088E984
:100E400092E00E94681B0E942515F7016087718758
:100E50008287938760960FB6F894DEBF0FBECDBF32
:100E6000DF91CF911F910F91FF90EF9008955F92C6
:100E70006F927F928F929F92AF92BF92CF92DF92AA
:100E8000EF92FF920F931F93CF93DF93CDB7DEB70F
:100E9000C054D1090FB6F894DEBF0FBECDBF8C0190
:100EA0004C018DE2880E911CC4010E94E607580196
:100EB000EAE3AE0EB11CC5010E94E6076801F7E443
:100EC000CF0ED11CC6010E94E607780184E5E80E2A
:100ED000F11CC7010E94E6070E942515F8016083F6
:100EE00071838283938382E390E0A0E0B0E0848307
:100EF0009583A683B78380E1E8E8F1E0DE01D1962F
:100F000001900D928A95E1F780E1E8E9F1E0DE01D8
:100F1000919601900D928A95E1F780E1582E3E015D
:100F2000F1E16F0E711CF301852D11928A95E9F79D
:100F3000BE016F5C7F4FC8010E949B05BE016F5DC3
:100F40007F4FC8010E940D06B301C8010E947F06B1
:100F5000BE016F5F7F4FFB0111925A94E9F7C80100
:100F60000E94F106C8010E940107F80114A666E07C
:100F700070E0C4010E94040869E070E0C5010E94AD
:100F800004086AE070E0C6010E9404086BE070E0AB
:100F9000C7010E940408F801EF59FF4F1082C05C9E
:100FA000DF4F0FB6F894DEBF0FBECDBFDF91CF91FC
:100FB0001F910F91FF90EF90DF90CF90BF90AF9077
:100FC0009F908F907F906F905F900895CF93DF9365
:100FD000EC010E94451D1C821B8288E690E1A0E086
:100FE000B0E08D839E83AF83B88788EE93E0A0E066
:100FF000B0E089879A87AB87BC8766E070E0CE0156
:10100000DF91CF910C94E31D0F931F93CF93DF9348
:1010100000D0CDB7DEB78C01FC0174836383698394
:101020007A830E94E91D69817A81C8010F900F902F
:10103000DF91CF911F910F910C94E31DCF93DF931C
:10104000EC010E94D311FE01EE5FFE4F1082359637
:1010500010821182128213823496108211821282BF
:101060001382CE0123E030E0FC01E655FF4F1082F1
:101070001182128213823C96108211821282138294
:101080003C9610821182128213823C961082118249
:10109000128213827C9610821182128213823C96F5
:1010A0001082118212821382215031090496211577
:1010B0003105D1F6FE01E652FF4F108211821282F5
:1010C0001382349610821182128213823496108217
:1010D000118212821382CA51DF4F188219821A823A
:1010E0001B82DF91CF9108950F931F9386519F4FDD
:1010F0008B0121E030E043E050E0BC0188E992E060
:101100000E94681B1F910F9108950F931F938A509F
:101110009F4F8B0121E030E043E050E0BC0188E9C3
:1011200092E00E94681B1F910F9108954F925F9269
:101130006F927F928F929F92AF92BF92CF92DF92E7
:10114000EF92FF920F931F93CF93DF93CDB7DEB74C
:10115000E0970FB6F894DEBF0FBECDBF6C018C01D7
:101160000E5F1E4F7C018DEFE81A8EEFF80AF80132
:10117000808181110DC0C6010E946A12F80180832E
:101180000E942515F7016083718382839383EFCFDB
:1011900018E14E01F9E18F0E911CF401812F11929B
:1011A0008A95E9F7C6010E94C012B401C6010E94E7
:1011B000DC13BE016B5D7F4FC6010E94ED13FE0183
:1011C00031965F0111921A95E9F7B501C6010E94A7
:1011D0007408BE01635F7F4FC6010E948508360117
:1011E000F9EF6F1AFEEF7F0AF301E080F1800281D0
:1011F000138121E030E043E050E0B50188E992E05E
:101200000E94321C2601F5EF4F1AFEEF5F0AF20131
:10121000E080F1800281138121E030E043E050E082
:10122000BE01635F7F4F88E992E00E94321CF301A8
:10123000208131814281538160E070E080E89FE34A
:101240000E94EC267B018C0121E030E043E050E07D
:10125000B40188E992E00E94321CF20120813181C0
:101260004281538160E070E080E89FE30E94EC26B9
:101270007B018C0121E030E043E050E0BE016B5D7A
:101280007F4F88E992E00E94321C750101E010E076
:1012900026E030E0A401B50188E992E00E94B91B84
:1012A000860106511F4F21E030E043E050E0B501D8
:1012B00088E992E00E94681B045F1F4F21E030E044
:1012C00043E050E0BE01635F7F4F88E992E00E94F7
:1012D000681BE0960FB6F894DEBF0FBECDBFDF915E
:1012E000CF911F910F91FF90EF90DF90CF90BF9023
:1012F000AF909F908F907F906F905F904F900895E8
:1013000081E08093E00108954F925F926F927F9207
:101310008F929F92AF92BF92CF92DF92EF92FF9205
:101320000F931F93CF93DF93CDB7DEB768970FB6B8
:10133000F894DEBF0FBECDBF8C01FB018BA59CA531
:10134000ADA5BEA58D879E87AF87B88B8FA598A9C1
:10135000A9A9BAA9898B9A8BAB8BBC8B8BA99CA9A9
:10136000ADA9BEA98D8B9E8BAF8BB88F8FA898AC83
:10137000A9ACBAACC080D180E280F3808481958131
:10138000A681B78189839A83AB83BC83808591854D
:10139000A285B3858D839E83AF83B8878485958529
:1013A000A685B78589879A87AB87BC872D853E85BB
:1013B0004F855889C701B6010E94BB292B013C010A
:1013C00029893A894B895C8969817A818B819C81E1
:1013D0000E94BB299B01AC01C301B2010E94EC2613
:1013E0002B013C012D893E894F89588D6D817E816D
:1013F0008F8198850E94BB299B01AC01C301B2017A
:101400000E94EC262B013C01A501940169857A8597
:101410008B859C850E94BB299B01AC01C301B20155
:101420000E94EC26D8016D937D938D939C93139726
:1014300029893A894B895C89C701B6010E94BB2979
:101440002B013C012D853E854F85588969817A8124
:101450008B819C810E94BB299B01AC01C301B2011D
:101460000E94ED262B013C01A50194016D817E8136
:101470008F8198850E94BB299B01AC01C301B201F9
:101480000E94ED262B013C012D893E894F89588D04
:1014900069857A858B859C850E94BB299B01AC015F
:1014A000C301B2010E94EC26F80164837583868330
:1014B00097832D893E894F89588DC701B6010E94B7
:1014C000BB292B013C01A501940169817A818B81A3
:1014D0009C810E94BB299B01AC01C301B2010E9407
:1014E000EC262B013C012D853E854F8558896D8169
:1014F0007E818F8198850E94BB299B01AC01C3012D
:10150000B2010E94ED262B013C0129893A894B89C1
:101510005C8969857A858B859C850E94BB299B01A6
:10152000AC01C301B2010E94ED26D80118966D935B
:101530007D938D939C931B97A5019401C701B601E0
:101540000E94BB296B017C012D893E894F89588DF2
:1015500069817A818B819C810E94BB299B01AC01AE
:10156000C701B6010E94ED266B017C0129893A89E9
:101570004B895C896D817E818F8198850E94BB2912
:101580009B01AC01C701B6010E94EC266B017C01F6
:101590002D853E854F85588969857A858B859C8503
:1015A0000E94BB299B01AC01C701B6010E94ED2638
:1015B000F8016487758786879787C80168960FB694
:1015C000F894DEBF0FBECDBFDF91CF911F910F9179
:1015D000FF90EF90DF90CF90BF90AF909F908F9053
:1015E0007F906F905F904F9008954F925F926F92AF
:1015F0007F928F929F92AF92BF92EF92FF920F9342
:101600001F93CF93DF93CDB7DEB7E0970FB6F89473
:10161000DEBF0FBECDBF8C017B01FC0164817581F3
:10162000072E000C880B990B0E9495284B015C013A
:10163000F80162817381072E000C880B990B0E94C0
:1016400095282B013C01F80180819181BC01990F03
:10165000880B990B0E949528198A1A8A1B8A1C8A62
:101660006D8B7E8B8F8B988F498E5A8E6B8E7C8E76
:101670008D8E9E8EAF8EB8A28DB79EB740970FB657
:10168000F8949EBF0FBE8DBFADB7BEB7119680E177
:10169000FE01719601900D928A95E1F7B701CE0196
:1016A00081960E94840980E1FE01B196DE01519687
:1016B00001900D928A95E1F7F70184859585A685BD
:1016C000B785B05840855185628573857058848090
:1016D0009580A680B780B7FAB094B7F8B0944080F0
:1016E00051806280738049825A826B827C828D82B3
:1016F0009E82AF82B88649875A876B877C878D87A1
:101700009E87AF87B88B8DB79EB740970FB6F8947A
:101710009EBF0FBE8DBFADB7BEB7119680E1FE0173
:10172000319601900D928A95E1F7BE016F5E7F4F71
:10173000CE0181960E94840980E1FE01B196DE010E
:10174000519601900D928A95E1F76D897E898F8976
:10175000988D0E945D28F80171836083698D7A8D70
:101760008B8D9C8D0E945D28F801738362836D8D43
:101770007E8D8F8D98A10E945D28F801758364830A
:101780000FB6F894DEBF0FBECDBFE0960FB6F8944B
:10179000DEBF0FBECDBFDF91CF911F910F91FF90A4
:1017A000EF90BF90AF909F908F907F906F905F90E1
:1017B0004F9008958F929F92AF92BF92CF92EF92E7
:1017C0000F931F93CF93DF93CDB7DEB7C059D109E5
:1017D0000FB6F894DEBF0FBECDBF5C010E945C1F48
:1017E0006EE170E080E090E00E94561560E0C50177
:1017F0000E94631F21E041E060E1C5010E946F206B
:1018000066E0C5010E947A20C5010E94802020E088
:1018100040E060E0C5010E946F20C5010E94B61F34
:10182000C5010E94D41F182FC5010E94FB1F882EDE
:10183000C5010E942220982E4FE760E0C5010E945A
:101840001D1F60E0C5010E94471F48E660E0C5011A
:101850000E941D1FC5010E94551F64E170E080E0D9
:1018600090E00E945615EE24E39400E020E049E861
:1018700057E063EF71E0C5010E94DD21882309F480
:101880000EC240EC50E063E371E0C5010E94992272
:10189000882309F406C263E0C5010E946A1F62E161
:1018A000C5010E94281F64E0C5010E94D31E61E0AB
:1018B000C5010E94D91E63E0C5010E94E41E63E0D9
:1018C000C5010E94EF1E63E0C5010E949C2260E0FA
:1018D000C5010E94A22260E0C5010E94CD1F612FB8
:1018E000C5010E94F01F682DC5010E941720692DB7
:1018F000C5010E943E20812C912CF401EC5FFE4F2B
:10190000E491A1E8B0E0AC0FBD1FA80DB11DEC93B0
:1019100081E0880D9FEF891A990AE3E0E81568F7DE
:10192000CD57DF4F4881C358D04050E09A012E5F19
:101930003F4F90E02817390704F7C12CEE24E394B9
:10194000CE57DF4F0881C258D040CF57DF4F288194
:10195000C158D04061E870E06C0F7D1F6D5F7F4F14
:10196000C5010E94FC2080E0F401EC5FFE4FE49191
:10197000A1E8B0E0AC0FBD1FA80FB11DEC938F5FC5
:10198000FFEF8F1A9F0A843078F3CD57DF4F4881DD
:10199000C358D04050E0BA016E5F7F4F282F30E02F
:1019A000621773070CF7C12CEE24E394CE57DF4F78
:1019B0000881C258D040CF57DF4F2881C158D0404E
:1019C00061E870E06C0F7D1F6D5F7F4FC5010E9465
:1019D000FC20C5010E944E1FC5010E94891F482F8F
:1019E000BE016F5F7F4FC5010E94A71F62E0C50166
:1019F0000E94051F6CE9C5010E94111F60E5C50129
:101A00000E940B1F60E0C5010E94171FC5010E94C4
:101A10004E1F61E0C5010E94401F61E0C5010E94A8
:101A20006120C5010E94682080E0F401EC5FFE4F58
:101A3000E491A1E8B0E0AC0FBD1FA80FB11DEC937D
:101A40008F5F9FEF891A990A843078F3CD57DF4F63
:101A50004881C358D04050E0BA016E5F7F4F282FB5
:101A600030E0621773070CF7C12CEE24E394CE57D5
:101A7000DF4F0881C258D040CF57DF4F2881C1586F
:101A8000D04061E870E06C0F7D1F6D5F7F4FC50136
:101A90000E94FC2080E0F401EC5FFE4FE491A1E89D
:101AA000B0E0AC0FBD1FA80FB11DEC938F5FEFEF3F
:101AB0008E1A9E0A843078F3CD57DF4F4881C35881
:101AC000D04050E0BA016E5F7F4F282F30E06217A0
:101AD00073070CF7C12CEE24E394CE57DF4F088137
:101AE000C258D040CF57DF4F2881C158D04061E85D
:101AF00070E06C0F7D1F6D5F7F4FC5010E94FC2061
:101B000080E0F401EC5FFE4FE491A1E8B0E0AC0F9F
:101B1000BD1FA80FB11DEC938F5FFFEF8F1A9F0AB7
:101B2000843078F3CD57DF4F4881C358D04050E020
:101B3000BA016E5F7F4F282F30E0621773070CF7F2
:101B4000C12CEE24E394CE57DF4F0881C258D04019
:101B5000CF57DF4F2881C158D04061E870E06C0F4B
:101B60007D1F6D5F7F4FC5010E94FC20C5010E9453
:101B7000891F83309105D0F3482FBE016F5F7F4FDF
:101B8000C5010E94A71FC5010E942E1F80E0F4011D
:101B9000EC5FFE4FE491A1E8B0E0AC0FBD1FA80FD1
:101BA000B11DEC938F5F9FEF891A990A843078F307
:101BB000CD57DF4F4881C358D04050E0BA016E5F27
:101BC0007F4F282F30E0621773070CF7CE57DF4F97
:101BD0000881C258D040CF57DF4F2881C158D0402C
:101BE00061E870E06C0F7D1F6D5F7F4FC5010E9443
:101BF0009220C5010E94891F83309105D0F3482FA0
:101C0000BE016F5F7F4FC5010E94A71FC5010E94E3
:101C10002E1FF401EC5FFE4F80E09491A1E8B0E04C
:101C2000AC0FBD1FA80FB11D9C938F5F843010F4C3
:101C30003196F3CFCD57DF4F4881C358D04050E0A5
:101C4000BA016E5F7F4F282F30E06217730784F769
:101C500061E870E06C0F7D1F6D5F7F4FC12CEE243B
:101C6000E394CE57DF4F0881C258D040CF57DF4FA3
:101C70002881C158D040C5010E94FC2060E0C50108
:101C80000E9461208AE290E0F50193838283C5017E
:101C90000E944E1FC5010E942E1F80E003C081E0FC
:101CA00001C082E0C057DF4F0FB6F894DEBF0FBE11
:101CB000CDBFDF91CF911F910F91EF90CF90BF904B
:101CC000AF909F908F900895CF93DF93DB01FA013F
:101CD000309719F4EC01E881F981848D90E0982F18
:101CE0008827258D820F911D11969C938E9380A13C
:101CF00090E0982F882721A1820F911D13969C9325
:101D00008E93129784A190E0982F882725A1820FA7
:101D1000911D15969C938E93149780E0DF91CF913F
:101D20000895CF93DF93DB01FA01309719F4EC01AA
:101D3000E881F981808190E0982F88272181820FA6
:101D4000911D11969C938E93848190E0982F882703
:101D50002581820F911D13969C938E9312978085F7
:101D600090E0982F88272185820F911D15969C93CE
:101D70008E931497848590E0982F88272585820F6D
:101D8000911D17969C938E93169780E0DF91CF91CB
:101D90000895FF920F931F93CF93DF93CDB7DEB7D4
:101DA00028970FB6F894DEBF0FBECDBF8B01BE01E2
:101DB0006F5F7F4F0E94910EF82E81114CC0698198
:101DC0007A81072E000C880B990B0E94952820E041
:101DD00030E040E858E30E94BB29F801608371833A
:101DE000828393836B817C81072E000C880B990B77
:101DF0000E94952820E030E040E858E30E94BB298B
:101E0000F80164837583868397836D817E81072EB5
:101E1000000C880B990B0E94952820E030E040E8E8
:101E200058E30E94BB29F8016087718782879387F6
:101E30006F817885072E000C880B990B0E949528DE
:101E400020E030E040E858E30E94BB29F8016487B5
:101E50007587868797878F2D28960FB6F894DEBFF3
:101E60000FBECDBFDF91CF911F910F91FF900895CD
:101E7000CF93DF93DB01FA01309719F4EC01E8818D
:101E8000F981808990E0982F88272189820F911D00
:101E900011969C938E93848990E0982F88272589AA
:101EA000820F911D13969C938E931297808D90E0D4
:101EB000982F8827218D820F911D15969C938E93C4
:101EC000149780E0DF91CF9108958F929F92AF9207
:101ED000BF92CF92DF92EF92FF920F931F93CF9317
:101EE000DF93EB017A018901FA0160817181072E8C
:101EF000000C880B990B0E9495284B015C0120E097
:101F000030E040E056E4F801608171818281938184
:101F10000E94BB299B01AC01C501B4010E94EC26C3
:101F20000E945D2879836883F70162817381072E9F
:101F3000000C880B990B0E9495284B015C0120E056
:101F400030E040E056E4F801648175818681978134
:101F50000E94BB299B01AC01C501B4010E94EC2683
:101F60000E945D287B836A83F70164817581072E57
:101F7000000C880B990B0E9495286B017C0120E0D6
:101F800030E040E056E4F8016085718582859385F4
:101F90000E94BB299B01AC01C701B6010E94EC263F
:101FA0000E945D287D836C8380E0DF91CF911F913B
:101FB0000F91FF90EF90DF90CF90BF90AF909F90E8
:101FC0008F900895CB01B90136E0FA01DC01019050
:101FD0000D923A95E1F70E94F50A80E008954F923C
:101FE0005F926F927F928F929F92AF92BF92CF92A9
:101FF000DF92EF92FF920F931F93CF93DF93CDB7B2
:10200000DEB728970FB6F894DEBF0FBECDBF8B01A9
:10201000DA011496CD90DD90ED90FC9017971C9608
:102020004D905D906D907C901F978D909D90AD90A0
:10203000BC90139718968D919D910D90BC91A02DF9
:1020400089839A83AB83BC83A3019201C701B60144
:102050000E94BB296D837E838F83988729813A8173
:102060004B815C81C501B4010E94BB299B01AC017D
:102070006D817E818F8198850E94EC269B01AC0149
:102080000E94ED26F8016083718382839383A70108
:102090009601C501B4010E94BB296D837E838F83A5
:1020A0009887A301920169817A818B819C810E942A
:1020B000BB299B01AC016D817E818F8198850E9437
:1020C000ED269B01AC010E94ED26D80114966D937C
:1020D0007D938D939C931797A5019401C501B4013D
:1020E0000E94BB294B015C01A7019601C701B60103
:1020F0000E94BB299B01AC01C501B4010E94EC26E2
:102100006B017C0129813A814B815C81CA01B90153
:102110000E94BB299B01AC01C701B6010E94EC26BD
:102120006B017C01A3019201C301B2010E94BB2992
:102130009B01AC01C701B6010E94ED26F801608742
:1021400071878287938780E028960FB6F894DEBF68
:102150000FBECDBFDF91CF911F910F91FF90EF90F8
:10216000DF90CF90BF90AF909F908F907F906F90B7
:102170005F904F9008952F923F924F925F926F928F
:102180007F928F929F92AF92BF92CF92DF92EF9207
:10219000FF920F931F93CF93DF9300D000D0CDB762
:1021A000DEB78B011A01FA01C080D180E280F38092
:1021B000A7019601C701B6010E94ED2669837A83C3
:1021C0008B839C83F10184809580A680B780A501D4
:1021D0009401C501B4010E94ED262B013C01A70129
:1021E000960169817A818B819C810E94BB296B0158
:1021F0007C01A5019401C301B2010E94BB299B018E
:10220000AC01C701B6010E94ED2620E030E040E8B5
:102210005FE30E94EC266B017C01F1012085318592
:1022200042855385C301B2010E94BB292B013C01A9
:10223000F101248535854685578569817A818B81B1
:102240009C810E94BB299B01AC01C301B2010E9489
:10225000EC26A70196010E948727F801608371830D
:1022600082839383F10164817581868197819B01CB
:10227000AC010E94ED26F101248535854685578500
:102280000E94BB296B017C01F10160817181828117
:1022900093819B01AC010E94ED26F10120853185DF
:1022A000428553850E94BB299B01AC01C701B60141
:1022B0000E94ED260E945927DC01CB01B058F8019D
:1022C00084839583A683B783F10180809180A28067
:1022D000B380A5019401C501B4010E94ED262B0134
:1022E0003C01F101C484D584E684F784A5019401FE
:1022F0000E94BB294B015C01A7019601C701B601F1
:102300000E94ED26A70196010E94BB299B01AC010A
:10231000C501B4010E94ED2620E030E040E85FE313
:102320000E94EC264B015C01F1016085718582857C
:1023300093859B01AC010E94ED26A70196010E94A6
:10234000BB296B017C01F1012481358146815781D4
:10235000C301B2010E94BB299B01AC01C701B601B8
:102360000E94EC26A50194010E948727F80160874E
:1023700071878287938780E00F900F900F900F9066
:10238000DF91CF911F910F91FF90EF90DF90CF9051
:10239000BF90AF909F908F907F906F905F904F9085
:1023A0003F902F900895CF93DF93EC0169E60E9450
:1023B000D01E1B8A1C8A1D8A198E188EFE01E65AB1
:1023C000FF4F40E050E060E87FE340835183628349
:1023D00073831482158216821782108611861286E4
:1023E00013861486158616861786DE01A659BF4FFA
:1023F0004D935D936D937C93139714961D921D924C
:102400001D921C92179718961D921D921D921C9258
:102410001B971C961D921D921D921C921F97509601
:1024200011961C921E9213961C921E92129715964C
:102430001C921E921497169611961C921E92139639
:102440001C921E92129715961C921E921497169625
:1024500011961C921E9213961C921E92129715961C
:102460001C921E92149716961D921D921D921C92FC
:10247000139714961D921D921D921C9217971896F1
:102480001D921D921D921C921B971C961D921D92CF
:102490001D921C9213971C9611961C921E921897CF
:1024A0001D921D921D921C9213971A9611961C92C2
:1024B0001E9216971D921D921D921C9213971896AC
:1024C0001D921C926A961992CE17DF07E1F7DF91F1
:1024D000CF910895CF93DF93EC018FEB92E00E94B0
:1024E000921E88E18093B800CE010E94751FCE0134
:1024F0000E94DA0B8D8B6CED70E0CE010E944F20B4
:102500006CE470E0CE010E9455206BEA7FEFCE01B3
:102510000E945B2062E876E0CE010E9449208D890E
:10252000811117C061E0CE010E94612043E050E0BC
:1025300060E879E080E00E94B715CE010E942E1F6E
:102540008C8B81E08B8B8A819B819F8B8E8B81E032
:1025500014C063EE70E08EEE91E00E9496174AE0A0
:1025600050E06D898EEE91E00E94951861EE70E06A
:102570008EEE91E00E94D61780E0DF91CF91089512
:102580008F929F92AF92BF92CF92DF92EF92FF9283
:102590000F931F93CF93DF93CDB7DEB760970FB63E
:1025A000F894DEBF0FBECDBF2091E001222309F4D5
:1025B000F0C08C011092E0010E942E1FF801848B64
:1025C000C8010E94891F9C01F801918F808F948916
:1025D00094FD03C021153440D9F4C8010E944E1F58
:1025E00062ED70E08EEE91E060960FB6F894DEBF7B
:1025F0000FBECDBFDF91CF911F910F91FF90EF9054
:10260000DF90CF90BF90AF909F908F900C94D61793
:1026100091FFBFC0F801208D318D868997892817D9
:10262000390738F4C8010E94891FF801918F808F03
:10263000F1CFC8014A966C01F80146895789808D0F
:10264000918D8417950770F0B601C8010E94A71FED
:10265000F801808D918D26893789821B930B918F8C
:10266000808FEACF7801FAE5EF0EF11CA601B701E1
:10267000C8010E94C90EB80166597F4F8DB79EB739
:1026800040970FB6F8949EBF0FBE8DBFADB7BEB7D3
:10269000119680E1F70101900D928A95E1F7CE0144
:1026A00001960E94840980E1FE013196D7010190D4
:1026B0000D928A95E1F7580198E9A90EB11CA7017E
:1026C000B501C8010E94BB10980120563F4FF90187
:1026D00080819181A281B381F50140815181628124
:1026E00073817058F9014083518362837383B058BA
:1026F000F50180839183A283B38334968081918195
:10270000A281B381B05880839183A283B383B8013F
:102710006C557F4FA601C8010E94380F4801FCE8A4
:102720008F0E911CA701B401C8010E94EF0F580140
:102730008AE7A80EB11CA601B501C8010E94640E6B
:10274000680190E8C90ED11C9401A501B601C80129
:102750000E94650F0FB6F894DEBF0FBECDBFB80163
:102760006A577F4F9701A601C80160960FB6F8948B
:10277000DEBF0FBECDBFDF91CF911F910F91FF90B4
:10278000EF90DF90CF90BF90AF909F908F900C9480
:10279000E20F60960FB6F894DEBF0FBECDBFDF919B
:1027A000CF911F910F91FF90EF90DF90CF90BF904E
:1027B000AF909F908F9008950F931F9388569F4FCF
:1027C0008B0121E030E043E050E0BC0188E992E079
:1027D0000E94681B1F910F9108950F931F93CF9331
:1027E000DF93EC018B01FC01EC55FF4F608171819F
:1027F000072E000C880B990B0E94952823EC35EFCF
:1028000048E450E40E94BB2920E030E042E053E479
:102810000E94EB27F8016083718382839383FE011A
:10282000EA55FF4F60817181072E000C880B990BD0
:102830000E94952823EC35EF48E450E40E94BB2920
:1028400020E030E042E053E40E94EB27F80164838B
:10285000758386839783C855DF4F68817981072EFA
:10286000000C880B990B0E94952823EC35EF48E467
:1028700050E40E94BB2920E030E042E053E40E9493
:10288000EB27F8016087718782879387DF91CF916B
:102890001F910F910895FC011382128225E030E010
:1028A0003183208308950F931F93CF93DF938C017F
:1028B000FC01C4A1D5A1FE013C96EE0FFF1FE00F65
:1028C000F11F20E23EE440E050E061E080810E94A0
:1028D000C616CC0FDD1FCC0FDD1FC00FD11F6883C4
:1028E00079838A839B83F80184A195A1019666E090
:1028F00070E00E948A2A95A384A3DF91CF911F9153
:102900000F910895EF92FF920F931F93CF93DF9350
:10291000EC01188219821A821B821C821D821E827F
:102920001F82188619861A861B861C861D861E869F
:102930001F86188A198A1A8A1B8A1C8A1D8A1E8A6F
:102940001F8A1DA21CA28CE090E0998F888F88E0DE
:1029500090E09B8F8A8F85E090E09D8F8C8F87E041
:1029600090E09F8F8E8F83E090E099A388A384E00E
:1029700090E09BA38AA38E01085E1F4F7E0184E234
:10298000E80EF11CF80180810E5F1F4F60E00E948D
:102990005A160E151F05B1F706E010E0CE010E9491
:1029A000531401501109D1F7DF91CF911F910F916D
:1029B000FF90EF9008951F920F920FB60F9211247F
:1029C0002F933F938F939F93AF93BF938091E20197
:1029D0009091E301A091E401B091E5013091E10112
:1029E00023E0230F2D3720F40196A11DB11D05C052
:1029F00026E8230F0296A11DB11D2093E1018093CB
:102A0000E2019093E301A093E401B093E50180918A
:102A1000E6019091E701A091E801B091E9010196EA
:102A2000A11DB11D8093E6019093E701A093E801F9
:102A3000B093E901BF91AF919F918F913F912F91F9
:102A40000F900FBE0F901F9018952FB7F8946091BC
:102A5000E2017091E3018091E4019091E5012FBFC3
:102A600008953FB7F8948091E6019091E701A09115
:102A7000E801B091E90126B5A89B05C02F3F19F0E8
:102A80000196A11DB11D3FBFBA2FA92F982F8827EE
:102A9000820F911DA11DB11DBC01CD0142E0660F49
:102AA000771F881F991F4A95D1F70895CF92DF921B
:102AB000EF92FF92CF93DF936B017C010E9431155F
:102AC000EB01C114D104E104F10479F00E94311545
:102AD0006C1B7D0B683E7340A0F381E0C81AD108DF
:102AE000E108F108C851DC4FECCFDF91CF91FF90A6
:102AF000EF90DF90CF900895789484B5826084BD84
:102B000084B5816084BD85B5826085BD85B58160F1
:102B100085BDEEE6F0E0808181608083E1E8F0E051
:102B20001082808182608083808181608083E0E880
:102B3000F0E0808181608083E1EBF0E0808184605F
:102B40008083E0EBF0E0808181608083EAE7F0E061
:102B500080818460808380818260808380818160C5
:102B600080838081806880831092C10008958230C4
:102B7000E8F4E82FF0E0EE0FFF1FE651FE4F7183FF
:102B80006083813041F0809169008C7F482B4093B5
:102B90006900E89A089580916900440F551F440F19
:102BA000551F837F482B40936900E99A08951F922F
:102BB0000F920FB60F9211242F933F934F935F9371
:102BC0006F937F938F939F93AF93BF93EF93FF93F5
:102BD0008091EA019091EB01892B29F0E091EA01C3
:102BE000F091EB010995FF91EF91BF91AF919F910A
:102BF0008F917F916F915F914F913F912F910F90A6
:102C00000FBE0F901F9018951F920F920FB60F9244
:102C100011242F933F934F935F936F937F938F93E1
:102C20009F93AF93BF93EF93FF938091EC019091AB
:102C3000ED01892B29F0E091EC01F091ED0109956E
:102C4000FF91EF91BF91AF919F918F917F916F9184
:102C50005F914F913F912F910F900FBE0F901F905A
:102C60001895833081F028F4813099F08230A1F0FA
:102C700008958630A9F08730B9F08430D1F480917E
:102C800080008F7D03C0809180008F7780938000CB
:102C9000089584B58F7702C084B58F7D84BD089573
:102CA0008091B0008F7703C08091B0008F7D8093BA
:102CB000B0000895CF93DF9390E0FC01E057F64F0A
:102CC0002491FC01EC55F64F8491882361F190E04A
:102CD000880F991FFC01E453F64FC591D491FC0174
:102CE000EE53F64FA591B491611109C09FB7F894C6
:102CF0008881209582238883EC912E230BC062303B
:102D000061F49FB7F8943881822F8095832388835C
:102D1000EC912E2B2C939FBF06C08FB7F894E881BF
:102D20002E2B28838FBFDF91CF9108951F93CF93D0
:102D3000DF93282F30E0F901E458F64F8491F90130
:102D4000E057F64FD491F901EC55F64FC491CC23DE
:102D5000C9F0162F81110E943116EC2FF0E0EE0F12
:102D6000FF1FEE53F64FA591B4918FB7F894111150
:102D700005C09C91ED2FE095E92302C0EC91ED2B6D
:102D8000EC938FBFDF91CF911F9108958F929F9207
:102D9000AF92BF92CF92DF92EF92FF920F931F9369
:102DA000CF93DF9390E0FC01E057F64FA491FC0134
:102DB000EC55F64F8491662311F0BA2F01C0B0E0B4
:102DC00089019A013F7090E0880F991F8854964FAF
:102DD000480159014FEF841A940AA40AB40AC12C7D
:102DE000D12C7601FC01C591D49168816A236B13C3
:102DF0001AC05FEFC51AD50AE50AF50AC814D90446
:102E0000EA04FB0479F745C0460157016FEF861AC3
:102E1000960AA60AB60AC016D106E206F30609F417
:102E200038C075016401FC01C591D49168816A23A1
:102E30006B13EACFB901A8014C195D096E097F092E
:102E40006A017B0120E030E0A901FC01C591D49129
:102E500068816A236B130AC02C153D054E055F057A
:102E6000C1F02F5F3F4F4F4F5F4FEFCFA5E1B0E075
:102E70000E94C02ADC01CB014096A11DB11DBC01FE
:102E8000CD0124E096958795779567952A95D1F79A
:102E900003C060E070E0CB01DF91CF911F910F91F3
:102EA000FF90EF90DF90CF90BF90AF909F908F906A
:102EB0000895CF92DF92EF92FF920F931F93CF93DB
:102EC000DF936C01EB017B01E40EF51E00E010E0E6
:102ED000CE15DF0561F06991D601ED91FC9101906D
:102EE000F081E02DC6010995080F191FF1CFC80127
:102EF000DF91CF911F910F91FF90EF90DF90CF90D6
:102F000008956115710579F0FB0101900020E9F742
:102F10003197AF01461B570BDC01ED91FC9102800C
:102F2000F381E02D099480E090E00895EF92FF9204
:102F30000F931F93CF93DF937C01FB0100E010E020
:102F40006491EF012196662361F0D701ED91FC9128
:102F50000190F081E02DC7010995080F191FFE01AE
:102F6000EFCFC801DF91CF911F910F91FF90EF90AC
:102F700008950C948117DC01ED91FC910190F08192
:102F8000E02D09940F931F93CF93DF93EC016DE035
:102F90000E94BB178C016AE0CE010E94BB17800F14
:102FA000911FDF91CF911F910F9108950F931F9360
:102FB000CF93DF93EC010E9496178C01CE010E9403
:102FC000C217800F911FDF91CF911F910F9108952C
:102FD0008F929F92AF92BF92CF92DF92EF92FF9229
:102FE0000F931F93CF93DF93CDB7DEB7A1970FB6A3
:102FF000F894DEBF0FBECDBF6C01142FE52FCB01BF
:10300000022F19A2223008F40AE07E0121E2E20E2A
:10301000F11C802E912CA12CB12C612F7E2FA501AB
:1030200094010E949E2A029F1019112481E0E81A3F
:10303000F1081A3010F4105D01C0195CF70110831B
:10304000122FE32FCA01232B242B252B31F7B70195
:10305000C6010E948117A1960FB6F894DEBF0FBE7D
:10306000CDBFDF91CF911F910F91FF90EF90DF9037
:10307000CF90BF90AF909F908F900895CF92DF92A6
:10308000EF92FF920F931F93CF93DF93EC016A01AE
:103090007B012115310579F4E881F9810190F081F6
:1030A000E02D642FDF91CF911F910F91FF90EF9052
:1030B000DF90CF9009942A303105E9F477FF1AC0E8
:1030C0006DE20E94BB178C0144275527BA014C19A9
:1030D0005D096E097F092AE0CE010E94E817800F82
:1030E000911FDF91CF911F910F91FF90EF90DF9093
:1030F000CF9008952AE0B701A601CE01DF91CF91CC
:103100001F910F91FF90EF90DF90CF900C94E817F4
:103110002115310541F4DC01ED91FC910190F08124
:10312000E02D642F09940C94E8179A01462F50E083
:1031300060E070E00C9488184F925F926F927F92DB
:103140008F929F92AF92BF92CF92DF92EF92FF92B7
:10315000CF93DF93EC016A017B01B22E9A01AB01A0
:10316000C701B6010E94722A882319F06AEA71E049
:1031700027C026013701E89477F82FEF3FEF4FE79C
:103180005FE7C301B2010E94722A81110DC02FEFC7
:103190003FEF4FE75FE7C301B2010E94E627181631
:1031A0001CF46EEA71E00CC02FEF3FEF4FE75FE4D5
:1031B000C701B6010E94AE2918169CF462EB71E0BB
:1031C000CE01DF91CF91FF90EF90DF90CF90BF9035
:1031D000AF909F908F907F906F905F904F900C94E6
:1031E00081172FEF3FEF4FE75FECC701B6010E9459
:1031F000E62787FDE3CF20E030E0A901C701B60153
:103200000E94E62787FF0AC06DE2CE010E94BB172D
:103210004C01F7FAF094F7F8F09402C0812C912C4D
:10322000A12C60E070E080E09FE3AB1441F020E06F
:1032300030E040E251E40E94EB27A394F6CF9B01DB
:10324000AC01C701B6010E94ED262B013C010E9492
:1032500064286B017C010E9493289B01AC01C3018F
:10326000B2010E94EC262B013C012AE0B701A60125
:10327000CE010E94E8177C01E80CF91CBB2039F054
:1032800066EB71E0CE010E948117E80EF91EDB2C7F
:10329000DD2039F120E030E040E251E4C301B20129
:1032A0000E94BB292B013C010E945D284B01770F36
:1032B000AA08BB082AE030E0B501A401CE010E94B3
:1032C0003E18E80EF91EC501B4010E9495289B0125
:1032D000AC01C301B2010E94EC262B013C01DA943F
:1032E000D7CFC701DF91CF91FF90EF90DF90CF90C4
:1032F000BF90AF909F908F907F906F905F904F9016
:1033000008950C949C180F931F93CF93DF93EC01B7
:103310000E949C188C01CE010E94C217800F911F41
:10332000DF91CF911F910F9108950C94F42AFC0125
:1033300024853585F901E05CFF4F808191813296CB
:1033400020813181821B930B8F7399270895DC01B3
:103350001C96ED91FC911D97DF01A05CBF4F2D9154
:103360003C91119712968D919C91119728173907CE
:1033700039F08D919C91E80FF91F808190E00895BC
:103380008FEF9FEF0895FC01A485B585FD01E05CFA
:10339000FF4F208131813296808191812817390732
:1033A00079F080819181A80FB91F8C9120813181A2
:1033B0002F5F3F4F2F7333273183208390E0089591
:1033C0008FEF9FEF0895FC0181A1882329F0A48944
:1033D000B5898C9186FFFBCF11A208950F931F939F
:1033E000CF93DF93FC01A685B7858D01005C1F4F4D
:1033F000E8018881998101968F739927AD014E5B11
:103400005F4FEA012881398182179307D1F3E801E0
:1034100028813981A20FB31F6C93A685B785A05C64
:10342000BF4F11969C938E93A689B7892C9181E00A
:1034300090E0078C02C0880F991F0A94E2F7822B54
:103440008C9381E081A30488F589E02D80818064DC
:10345000808381E090E0DF91CF911F910F910895DB
:103460001F920F920FB60F9211242F934F935F93D9
:103470008F939F93EF93FF938091C00082FD1CC0B8
:103480002091C600809194029091950201968F73CD
:10349000992740919602509197028417950771F0F1
:1034A000E0919402F0919502EC5AFD4F20839093A5
:1034B00095028093940202C08091C600FF91EF9123
:1034C0009F918F915F914F912F910F900FBE0F9011
:1034D0001F9018951F920F920FB60F9211242F93E1
:1034E0003F938F939F93EF93FF93209150023091DE
:1034F000510280915202909153022817390731F4FA
:103500008091C1008F7D8093C10014C0E091520270
:10351000F0915302E05FFD4F208180915202909123
:10352000530201968F73992790935302809352020E
:103530002093C600FF91EF919F918F913F912F9122
:103540000F900FBE0F901F901895CF92DF92EF92C1
:10355000FF920F931F93CF93DF93EC016A017B01DE
:103560004115514E6105710509F1EC89FD8981E034
:1035700090E008A002C0880F991F0A94E2F78083A8
:1035800060E079E08DE390E0A70196010E949E2A19
:1035900089019A01015011092109310936952795B0
:1035A00017950795980101151041A8F0EC89FD8940
:1035B000108260E874E88EE190E0A70196010E9415
:1035C0009E2ADA01C9010197A109B109B695A7950B
:1035D000979587959C01E889F9893083EA89FB8969
:1035E000208319A2EE89FF89408181E090E09C014F
:1035F0000C8C02C0220F331F0A94E2F7242B208385
:10360000EE89FF8940819C010D8C02C0220F331F7F
:103610000A94E2F7242B2083EE89FF8940819C01E4
:103620000E8C02C0220F331F0A94E2F7242B208352
:10363000EE89FF8920810F8C02C0880F991F0A94A0
:10364000E2F7809582238083DF91CF911F910F91C4
:10365000FF90EF90DF90CF900895EEEEF1E01382AF
:10366000128288EE93E0A0E0B0E084839583A68385
:10367000B7838CEB91E09183808384E592E095871A
:10368000848780E192E09787868785EC90E0918B34
:10369000808B84EC90E0938B828B80EC90E0958B18
:1036A000848B81EC90E0978B868B82EC90E0918FFD
:1036B000808F86EC90E0938F828F84E0848F83E00C
:1036C000858F87E0868F85E0878F81E080A30895CE
:1036D0004F925F926F927F928F929F92AF92BF9222
:1036E000CF92DF92EF92FF920F931F93CF93DF93CE
:1036F0005A01AA0CBB1CAA0CBB1CA0E0B0E0812C98
:10370000912C8216930624F5E12CF12CC0E0D0E038
:10371000C417D507BCF4C7018A0F9B1F6B01C80EE5
:10372000D91EF6014080518062807380800F911F06
:10373000FC0140825182628273822196F4E0EF0E96
:10374000F11CE6CF8FEF881A980AAA0DBB1DD9CFBE
:10375000DF91CF911F910F91FF90EF90DF90CF906D
:10376000BF90AF909F908F907F906F905F904F90A1
:1037700008952F923F924F925F926F927F928F9215
:103780009F92AF92BF92CF92DF92EF92FF920F93F0
:103790001F93CF93DF9300D000D000D0CDB7DEB71A
:1037A0002B013A0119019801220F331F220F331FF9
:1037B0003A832983C12CD12C1E821D822D813E810A
:1037C00022153305B4F5812C912CA12CB12CA01617
:1037D000B1062CF5C4018C0D9D1DF701E80FF91FF2
:1037E000FC83EB83F201E80FF91FD301A80FB91F87
:1037F0002D913D914D915C91608171818281938188
:103800000E94ED26EB81FC81608371838283938328
:10381000FFEFAF1ABF0A24E0820E911CD8CF8D8132
:103820009E8101969E838D83E981FA81CE0EDF1EF3
:10383000C5CF26960FB6F894DEBF0FBECDBFDF9181
:10384000CF911F910F91FF90EF90DF90CF90BF909D
:10385000AF909F908F907F906F905F904F903F9030
:103860002F9008952F923F924F925F926F927F9286
:103870008F929F92AF92BF92CF92DF92EF92FF9280
:103880000F931F93CF93DF931A014901270138014A
:103890007901EE0CFF1CEE0CFF1CEB0100E010E0C8
:1038A00002151305F4F45E01C12CD12CC814D904FF
:1038B0009CF4A3019201F501608171818281938161
:1038C0000E94BB29F50161937193819391935F01EC
:1038D000FFEFCF1ADF0AEACF0F5F1F4FCE0DDF1DBC
:1038E000DFCFDF91CF911F910F91FF90EF90DF908D
:1038F000CF90BF90AF909F908F907F906F905F9090
:103900004F903F902F9008951F920F920FB60F92F5
:1039100011242F933F934F935F936F937F938F93D4
:103920009F93AF93BF93EF93FF9380919A0287FF8A
:1039300005C010928500109284001BC020919A024D
:10394000022E000C330B8091990290E02817390762
:1039500084F480919A02082E000C990BFC01EE0F62
:10396000FF1F8E0F9F1FFC01E556FD4F808186FDD6
:1039700015C080919A028F5F80939A0220919A02DB
:10398000022E000C330B8091990290E02817390722
:10399000C4F480919A028C3064F113C080919A0231
:1039A000082E000C990BFC01EE0FFF1F8E0F9F1FBE
:1039B000FC01E556FD4F808160E08F730E949616F2
:1039C000D8CF8091840090918500049680349C49E2
:1039D00018F480E49CE905C08091840090918500F2
:1039E000049690938900809388008FEF80939A02C9
:1039F0003BC0209184003091850080919A02082E6E
:103A0000000C990BFC01EE0FFF1F8E0F9F1FFC0196
:103A1000E556FD4F81819281820F931F909389001B
:103A20008093880080919A02082E000C990BFC016B
:103A3000EE0FFF1F8E0F9F1FFC01E556FD4F80818B
:103A400086FF12C080919A02082E000C990BFC018F
:103A5000EE0FFF1F8E0F9F1FFC01E556FD4F80816B
:103A600061E08F730E949616FF91EF91BF91AF9125
:103A70009F918F917F916F915F914F913F912F9186
:103A80000F900FBE0F901F901895FC019091990216
:103A90009C30A0F481E0890F809399029083892F54
:103AA00090E0FC01EE0FFF1F8E0F9F1FFC01E556FB
:103AB000FD4F88EB9BE09283818308958FEF808395
:103AC0000895DF92EF92FF920F931F93CF93DF93AE
:103AD000EC01D62E7A01890188818C3008F06AC009
:103AE00061E08D2D0E945A168881E82FF0E09F0139
:103AF000220F331FE20FF31FE556FD4F9D2D9F73DD
:103B00002081207CD22ED92AD08260E272E0AB01E3
:103B10004E195F0957FF02C04D5F5F4F559547959E
:103B200055954795498340E659E09A01201B310B92
:103B300037FF02C02D5F3F4F359527953595279567
:103B40002A832CE0622F0E947E2A289FB001112434
:103B500040E050E09A01260F371FF901EE0FFF1FDA
:103B60002E0F3F1FF901E556FD4F908196FD16C0BF
:103B70004F5F5F4F4C30510569F781110FC01092B4
:103B8000800082E080938100109285001092840072
:103B9000B19A80916F00826080936F00E881F0E0BD
:103BA000CF01880F991FE80FF91FE556FD4F80815F
:103BB000806480838881DF91CF911F910F91FF9066
:103BC000EF90DF90089520E639E040E252E00C9457
:103BD000611DDC01EC91F0E0CF01880F991FE80F27
:103BE000F91FE556FD4F80818F7B8083089580917A
:103BF000EF0290E02091F002821B910908959091CC
:103C0000F0028091EF02981750F4E92FF0E0EF50A6
:103C1000FD4F208130E09F5F9093F00202C02FEFB4
:103C20003FEFC9010895E091F0028091EF02E8179B
:103C300030F4F0E0EF50FD4F808190E008958FEF79
:103C40009FEF08950895CF92DF92EF92FF920F9326
:103C50001F93CF93DF937C01262F972F8A018091AA
:103C6000CB02882391F0C62FD72F6E01C40ED51E2C
:103C7000CC15DD0571F06991D701ED91FC910190B2
:103C8000F081E02DC7010995F3CF642F822F0E94A8
:103C90005C23C801DF91CF911F910F91FF90EF90AE
:103CA000DF90CF900895CF93DF931F92CDB7DEB70B
:103CB00069832091CB022223D1F02091CC022032C3
:103CC00040F021E030E0FC013383228380E090E08B
:103CD00015C08091CD02E82FF0E0E253FD4F9981AD
:103CE00090838F5F8093CD028093CC0205C061E00A
:103CF000CE0101960E945C2381E090E00F90DF915D
:103D0000CF910895FC011382128288EE93E0A0E027
:103D1000B0E084839583A683B7838CEC91E0918394
:103D2000808308951092F0021092EF021092CD025B
:103D30001092CC020C94A822862F413208F040E267
:103D400061EF72E00E94C6221092F0028093EF02AF
:103D5000089521E00C949C1E81E08093CB02609337
:103D6000EE021092CD021092CC0208950F93062F0E
:103D700021E04091CC026EEC72E08091EE020E9454
:103D80000A231092CD021092CC021092CB020F9116
:103D9000089561E00C94B61E8FEB92E00C94821EA5
:103DA000FC0160830895462F69E1FC0180810C9439
:103DB000EB240F93062F23E045E06AE1FC018081AC
:103DC0000E94A5260F9108950F93062F23E042E04D
:103DD0006AE1FC0180810E94A5260F9108950F934E
:103DE000062F22E044E06BE1FC0180810E94A526C1
:103DF0000F9108950F93062F22E044E06CE1FC013F
:103E000080810E94A5260F910895462F6FE1FC0145
:103E100080810C94EB24462F60E2FC0180810C949D
:103E2000EB24462F61E2FC0180810C94EB24462FA9
:103E300062E2FC0180810C94EB24643040F4262F74
:103E4000220F620F6B5DFC0180810C94EB240895BE
:103E5000462F68E3FC0180810C94EB24CF93DF9321
:103E6000EC012091060130910701AC014F5F5F4FDB
:103E70006AE388810E9401268981DF91CF910895AC
:103E8000262F46E06AE6FC0180810C946E26262FE0
:103E900045E06AE6FC0180810C946E2621E042E058
:103EA0006AE6FC0180810C946E2621E041E06AE61E
:103EB000FC0180810C946E2621E047E06BE6FC015A
:103EC00080810C946E26262F46E06BE6FC018081F3
:103ED0000C946E260F93062F23E042E06BE6FC0164
:103EE00080810E94A5260F910895CF93DF93EC0166
:103EF00061E00E946A1F60E0CE010E94EF1E60E058
:103F0000CE010E94FA1E60E0CE01DF91CF910C94A9
:103F1000631F0F931F93CF93DF93EC010091060172
:103F2000109107019C012F5F3F4F42E062E78881BB
:103F30000E944B25298130E0322F22278A81A90156
:103F4000482BCA01DF91CF911F910F9108950F93D4
:103F50001F939B01009106011091070164E7FC018A
:103F600080810E944B251F910F9108950F931F93FD
:103F7000CF93DF93EC0100910601109107019C01A2
:103F80002F5F3F4F40E060E088810E940B268981CF
:103F9000DF91CF911F910F910895262F40E060E0AF
:103FA000FC0180810C946E26EF92FF920F931F9379
:103FB000CF93DF93EC01E0900601F09007018C01B4
:103FC0000F5F1F4F26E046E060E088810E943126A7
:103FD0008981DF91CF911F910F91FF90EF9008950C
:103FE0000F93062F26E046E060E0FC0180810E94EE
:103FF000A5260F910895EF92FF920F931F93CF93F1
:10400000DF93EC01E0900601F09007018C010F5F57
:104010001F4F26E046E061E088810E9431268981B9
:10402000DF91CF911F910F91FF90EF9008950F9323
:10403000062F26E046E061E0FC0180810E94A52673
:104040000F910895EF92FF920F931F93CF93DF93F9
:10405000EC01E0900601F09007018C010F5F1F4F0B
:1040600026E046E062E088810E9431268981DF9166
:10407000CF911F910F91FF90EF9008950F93062F0E
:1040800026E046E062E0FC0180810E94A5260F91B7
:104090000895AB016AE0FC0180810C943925AB01E5
:1040A00063E1FC0180810C943925AB0165E1FC01E1
:1040B00080810C943925AB0167E1FC0180810C946F
:1040C0003925262F47E06AE6FC0180810C946E2694
:1040D00021E043E06AE6FC0180810C946E266F715A
:1040E0002111606241116064462F6DE6FC01808100
:1040F0000C94EB24462F6EE6FC0180810C94EB249B
:10410000CF93DF93EC012091060130910701AC01C0
:104110004F5F5F4F6FE688810E9401268981DF91A2
:10412000CF9108955F926F927F928F929F92AF92FC
:10413000BF92CF92DF92EF92FF920F931F93CF9394
:10414000DF936C014B015A01522EF02E20E040E02B
:10415000652D0E946F20602FC6010E947A20C0E06A
:10416000D0E0612C77247394CA15DB05A8F5CE0145
:104170004096A816B90618F4EA2CEC1A02C080E1A1
:10418000E82E8E2D90E093012F1931092817390759
:1041900014F4EF2CE19400910601109107019401B1
:1041A0002C0F3D1F4E2D6FE6F60180810E944B259E
:1041B000CE0DD11DFE0CCA15DB05B0F6F11001C005
:1041C000539420E040E0652DC6010E946F206F2DC2
:1041D000C6010E947A20C8CFDF91CF911F910F9125
:1041E000FF90EF90DF90CF90BF90AF909F908F9017
:1041F0007F906F905F9008952F923F924F925F92C1
:104200006F927F928F929F92AF92BF92CF92DF92E6
:10421000EF92FF920F931F93CF93DF9300D000D0C4
:104220001F92CDB7DEB79D838C837B836A834A015F
:10423000222EF02EE98220E040E0622D0E946F20C5
:10424000602F8C819D810E947A20E980EE2029F0E8
:1042500080E190E00E94F42A5C01CC2031F080E102
:1042600090E00E94F42AD82E392E412C512C48146B
:10427000590408F07AC0C20140968816990618F4CD
:10428000E82CE41802C080E1E82E8E2D90E020E0BA
:1042900031E02F1931092817390714F4EF2CE19474
:1042A000EA81FB81E40DF51DCC2059F09D2DAD2D4B
:1042B000B32D8A2F891B8E1530F484918D933196FE
:1042C000F8CFDE2E3F2E2D2D332D4E2D6FE6AC81F7
:1042D000BD818C910E94B2246E2C712CB981BB23BC
:1042E00069F1A114B10451F120E040E0622D8C810C
:1042F0009D810E946F206F2D8C819D810E947A206C
:10430000009106011091070195014E2D6FE6EC8199
:10431000FD8180810E944B25A301B5018D2D932D38
:104320000E94EB2C892B51F0C5010E94892BCC20D7
:1043300049F18D2D932D0E94892B24C0460C571CCA
:10434000FE0C4814590408F092CFF11001C02394D8
:1043500020E040E0622D8C819D810E946F206F2DB6
:104360008C819D810E947A2082CFF981FF2319F0F0
:10437000C5010E94892BCC2039F08D2D932D0E94F0
:10438000892B02C080E001C081E00F900F900F9058
:104390000F900F90DF91CF911F910F91FF90EF90B1
:1043A000DF90CF90BF90AF909F908F907F906F9055
:1043B0005F904F903F902F900895CF92EF920F9380
:1043C000CC24C3940E94FC200F91EF90CF900895CD
:1043D0002F923F924F925F926F927F928F929F9215
:1043E000AF92BF92CF92DF92EF92FF920F931F9303
:1043F000CF93DF931F92CDB7DEB73C014B012A016B
:10440000D22E222331F088E090E00E94F42A182F67
:10441000F92E212C312C2414350408F056C0F40157
:10442000E20DF31DC10103965C01DD2071F02491C2
:10443000F1013196E80DF91D0491F1013296E80D74
:10444000F91DE490E1100DC04BC020810181E28094
:10445000F401E80FF91FEE2009F452C01E2FFF2EC1
:104460001EC02E2C312C92E09E1548F4B101812FF4
:104470009F2D29830E94212C182FF92E2981A12FED
:10448000BF2D80E090E08215930548F4F501E80F18
:10449000F91FE80DF91DE491ED930196F4CF2E2C50
:1044A000312CC12CEE24E394A101612F7F2DC30197
:1044B0000E94FC202A0C3B1C8111ADCFDD2061F055
:1044C000812F9F2D0E94892B07C0DD2039F0812F7D
:1044D0009F2D0E94892B02C080E017C081E015C08B
:1044E000F4E02F0E311CF401E80FF91FE491E130E4
:1044F00029F742E368E3F30180810E94EB248BCF2C
:1045000084E0280E311CE081F2CF0F90DF91CF9133
:104510001F910F91FF90EF90DF90CF90BF90AF90E1
:104520009F908F907F906F905F904F903F902F90D3
:10453000089521E00C94E821462F60E7FC0180817A
:104540000C94EB24462F61E7FC0180810C94EB2452
:1045500010927E0381E080937C0310927B0361E0E4
:1045600082E10E94961661E083E10E949616E9EBD3
:10457000F0E080818E7F808380818D7F808388E4DE
:104580008093B80085E48093BC000895413208F020
:104590003FC090917E039111FCCF91E090937E03F8
:1045A00020937C032FEF2093110310925603240FC6
:1045B0002093550390937D0390917D03880F892B61
:1045C00080937D0380917B03813041F410927B03C3
:1045D00080917D038093BB0085EC01C085EE8093C4
:1045E000BC0080917E038130E1F3809156038417F3
:1045F00010F44091560327E533E0FB01D9018A2FDF
:10460000821B841718F48D918193F9CF842F08951C
:1046100080E008950F93413208F046C090917E03E8
:104620009111FCCF32E030937E0300937C033FEF87
:10463000309311031092560340935503FB0167E535
:1046400073E0DB013A2F361B341718F431913D9398
:10465000F9CF10927D0330917D03880F832B8093D7
:104660007D0380917B03813041F410927B03809124
:104670007D038093BB0085EC01C085EE8093BC0078
:10468000222321F080917E038230D1F380911103A7
:104690008F3F79F080911103803241F080911103B6
:1046A000803331F094E005C091E003C092E001C096
:1046B00093E0892F0F910895613298F420917E0341
:1046C000243089F460933303FC0125E333E0D901FE
:1046D0008A2F821B861718F481918D93F9CF80E081
:1046E000089581E0089582E0089585ED8093BC00EF
:1046F0008091BC0084FDFCCF10927E03089585EC70
:104700008093BC0010927E0308951F920F920FB603
:104710000F9211242F933F934F935F936F937F9347
:104720008F939F93AF93BF93EF93FF938091B900C3
:10473000887F803609F49CC068F5883209F45BC034
:1047400090F4803109F454C038F4882309F4F5C09A
:10475000883009F44DC0F5C0883109F44CC080326E
:1047600009F45DC0EEC0803409F468C048F48033B9
:1047700009F455C0883309F0E4C080931103A8C040
:10478000803509F44FC0883509F45DC0883409F0DC
:10479000D8C0D5C0883909F4C6C0A8F4883709F450
:1047A00067C038F4883609F463C0803709F460C004
:1047B000C8C0883809F4B7C0803909F45FC08038B0
:1047C00009F0BFC05BC0803B09F485C038F4803A73
:1047D00009F466C0883A09F47EC0B3C0803C09F48D
:1047E000A6C0883C09F4A3C0883B09F489C0A9C0CD
:1047F00080917D0310C090915603809155039817C6
:1048000070F5E091560381E08E0F80935603F0E03F
:10481000E95AFC4F80818093BB0085EC85C0809372
:1048200011038DC0E091560381E08E0F80935603F3
:104830008091BB00F0E0E95AFC4F808390915603D1
:10484000809155036DC0E091560381E08E0F8093F7
:1048500056038091BB00F0E0E95AFC4F80838091C1
:104860007C0381116CC081E080937B0384EA60C08B
:1048700083E080937E0310921203CFCF80911203C6
:10488000803208F050C0E091120381E08E0F8093D7
:1048900012038091BB00F0E0ED5EFC4F8083BDCF42
:1048A00080911203803230F4E0911203F0E0ED5E6B
:1048B000FC4F10820E9475236091120370E0E0911A
:1048C0007703F091780383E193E009951092120346
:1048D0000E947F2336C084E080937E0310923403CD
:1048E00010923303E0917903F0917A030995809156
:1048F0003303811105C081E08093330310923503A7
:10490000E091340381E08E0F80933403F0E0EB5CA0
:10491000FC4F80818093BB009091340380913303DE
:10492000981708F47ACF85E88093BC000AC085EC1C
:104930008093BC0010927E0304C0109211030E9469
:104940007523FF91EF91BF91AF919F918F917F91CF
:104950006F915F914F913F912F910F900FBE0F90EC
:104960001F901895EF92FF920F931F93CF93DF93B1
:1049700000D0CDB7DEB7062F142F682F8FEB92E053
:1049800029833A830E94AC1E602F8FEB92E00E9435
:10499000531E2981022FE22E3A81F32E8E2D801B89
:1049A000811740F4F70161917F018FEB92E00E9443
:1049B000531EF4CF8FEB92E00E94C91E91E081114B
:1049C00090E0892F0F900F90DF91CF911F910F9161
:1049D000FF90EF900895CF93DF931F92CDB7DEB78E
:1049E00049839E012F5F3F4F41E00E94B2240F9008
:1049F000DF91CF910895DF92EF92FF920F931F9373
:104A0000CF93DF93C62F042F7901682F8FEB92E0AD
:104A10000E94AC1E6C2F8FEB92E00E94531E10E0A0
:104A2000000F111FD12CCD2DD0E0C017D1078CF471
:104A3000CC0FDD1FCE0DDF1D69818FEB92E00E9450
:104A4000531E68818FEB92E00E94531ED394D3943F
:104A5000EACF8FEB92E00E94C91E91E0811190E0B5
:104A6000892FDF91CF911F910F91FF90EF90DF90F1
:104A70000895CF93DF9300D0CDB7DEB75A83498333
:104A80009E012F5F3F4F41E00E94FB240F900F904B
:104A9000DF91CF9108952F923F924F925F926F9244
:104AA0007F928F929F92AF92BF92CF92DF92EF92BE
:104AB000FF920F931F93CF93DF9300D000D01F92EC
:104AC000CDB7DEB7F82EE62E242E69010E942515FB
:104AD0004B015C01312C1D82822D90E09C838B83E5
:104AE0002801612C712C321408F055C06F2D8FEB0A
:104AF00092E00E94AC1E6E2D8FEB92E00E94531E3E
:104B00008FEB92E00E94C91E6F2D8FEB92E00E9406
:104B1000AC1E4B815C81431951094132510514F09F
:104B200040E250E06F2D8FEB92E00E94A91E8FEBC8
:104B300092E00E94F71D892B19F10115110599F4D6
:104B4000F6012D81E20FF11D27FDFA95FA83E98325
:104B50008FEB92E00E94FF1DE981FA8180832D8115
:104B60002F5F2D83E4CF0E942515DC01CB0188192E
:104B70009909AA09BB0984159505A605B70500F38F
:104B80008FEB92E00E94C91E822D40E2421508F48C
:104B900080E2380EA8CF01151105D1F00E9425152D
:104BA000DC01CB0188199909AA09BB0920E030E092
:104BB00080179107A207B30758F0822D90E0ED818E
:104BC0002E2FEE0F330B2817390714F42FEF2D83F8
:104BD0008D810F900F900F900F900F90DF91CF91DC
:104BE0001F910F91FF90EF90DF90CF90BF90AF900B
:104BF0009F908F907F906F905F904F903F902F90FD
:104C000008950F931F9389019A0141E00E944B255B
:104C10001F910F910895DF92EF92FF920F931F93D0
:104C2000CF93DF931F92CDB7DEB7D42E79019801D1
:104C3000AE014F5F5F4F0E94012661E070E0AB0163
:104C400001C0440FDA94EAF799814923F7014083C0
:104C50000F90DF91CF911F910F91FF90EF90DF9018
:104C60000895CF92DF92EF92FF920F931F93CF930D
:104C7000DF931F92CDB7DEB7D42EC22E9701AE01BF
:104C80004F5F5F4F0E9401268823F1F04D2D50E0C9
:104C90004C1951094F5F5F4F21E030E002C0220FF5
:104CA000331FCA94E2F721503109042E01C0220FAC
:104CB0000A94EAF79981292330E002C035952795B7
:104CC0004A95E2F7F80120830F90DF91CF911F9171
:104CD0000F91FF90EF90DF90CF900895EF92FF92A9
:104CE0000F931F93CF93DF931F92CDB7DEB7182F8B
:104CF000062FF42EE22E2091060130910701AE011D
:104D00004F5F5F4F0E9401269981EE2041F041E004
:104D100050E001C0440FFA94EAF7492B09C021E0A2
:104D200030E0A90101C0440FFA94EAF74095492305
:104D30004983602F812F0E94EB240F90DF91CF9148
:104D40001F910F91FF90EF900895DF92EF92FF92E5
:104D50000F931F93CF93DF931F92CDB7DEB7182F1A
:104D6000F62EE42ED22E2091060130910701AE01DD
:104D70004F5F5F4F0E940126882321F1EE2DF0E066
:104D8000ED19F109319621E030E002C0220F331F06
:104D9000DA94E2F7215031090E2E01C0220F0A9455
:104DA000EAF7802F01C0880FEA95EAF7422F409575
:104DB000998149232823422B49836F2D812F0E94FB
:104DC000EB2401C080E00F90DF91CF911F910F91F4
:104DD000FF90EF90DF9008955058BB27AA270E94BC
:104DE00004270C9474290E94662938F00E946D29CA
:104DF00020F039F49F3F19F426F40C9428290EF47E
:104E0000E095E7FB0C941429E92F0E94852958F3BB
:104E1000BA17620773078407950720F079F4A6F59F
:104E20000C94A7290EF4E0950B2EBA2FA02D0B01A0
:104E3000B90190010C01CA01A0011124FF27591BDF
:104E400099F0593F50F4503E68F11A16F040A22FE5
:104E5000232F342F4427585FF3CF46953795279556
:104E6000A795F0405395C9F77EF41F16BA0B620B55
:104E7000730B840BBAF09150A1F0FF0FBB1F661F9C
:104E8000771F881FC2F70EC0BA0F621F731F841FDF
:104E900048F4879577956795B795F7959E3F08F005
:104EA000B0CF9395880F08F09927EE0F97958795C7
:104EB00008959F939F77EEE389379E0728F4E8E6ED
:104EC000F0E00E9452290CC00E94D0289058A2EA1B
:104ED0002AED3FE049EC5FE30E9404270E94742919
:104EE0000F9007FC905808950E94662960F080E8B2
:104EF00091E009F49EEF0E946D2928F040E851E00E
:104F000071F45EEF0CC00C9428290C94A729E92FAA
:104F1000E0780E94852940F3092E052AB1F326176F
:104F200037074807590738F00E2E07F8E02569F0D3
:104F3000E025E0640AC0EF6307F8009407FADB019C
:104F4000B9019D01DC01CA01AD01EF930E94022865
:104F50000E9474290E94B7275F91552339F02BEDE9
:104F60003FE049E450FD49EC0C94ED260895DF93B1
:104F7000DD27B92FBF7740E85FE31616170648070D
:104F80005B0718F4D92F0E94B3299F938F937F93C7
:104F90006F930E946E2AECE7F0E00E942B290E949A
:104FA00074292F913F914F915F910E94CE29DD236B
:104FB00051F09058A2EA2AED3FE049EC5FE3D07847
:104FC0005D270E940427DF910C9474290E94F02829
:104FD00008F481E008950E94FF270C9474290E9430
:104FE0006D2958F00E94662940F029F45F3F29F0AE
:104FF0000C94142951110C94A8290C9428290E946E
:10500000852968F39923B1F3552391F3951B550B2B
:10501000BB27AA2762177307840738F09F5F5F4F8B
:10502000220F331F441FAA1FA9F335D00E2E3AF0CA
:10503000E0E832D091505040E695001CCAF72BD0E2
:10504000FE2F29D0660F771F881FBB1F2617370733
:105050004807AB07B0E809F0BB0B802DBF01FF2765
:1050600093585F4F3AF09E3F510578F00C94142905
:105070000C94A8295F3FE4F3983ED4F38695779586
:105080006795B795F7959F5FC9F7880F911D96951E
:10509000879597F90895E1E0660F771F881FBB1F7A
:1050A000621773078407BA0720F0621B730B840B27
:1050B000BA0BEE1F88F7E09508950E946428689463
:1050C000B1110C94A82908950E948D2988F09F574A
:1050D00098F0B92F9927B751B0F0E1F0660F771F1C
:1050E000881F991F1AF0BA95C9F714C0B13091F012
:1050F0000E94A729B1E008950C94A729672F782F63
:105100008827B85F39F0B93FCCF3869577956795D6
:10511000B395D9F73EF490958095709561957F4F42
:105120008F4F9F4F0895E89409C097FB3EF49095E8
:105130008095709561957F4F8F4F9F4F9923A9F070
:10514000F92F96E9BB279395F695879577956795FF
:10515000B795F111F8CFFAF4BB0F11F460FF1BC043
:105160006F5F7F4F8F4F9F4F16C0882311F096E9D6
:1051700011C0772321F09EE8872F762F05C0662384
:1051800071F096E8862F70E060E02AF09A95660F3D
:10519000771F881FDAF7880F9695879597F90895F6
:1051A000DF93CF931F930F938B01EC01E9EAF0E0BB
:1051B0000E942B290E9474299801AE018B01EC01F9
:1051C00060E070E080E89FE30E94EC260E942E2AB7
:1051D0009801AE010F911F91CF91DF910C94CE29D0
:1051E000990F0008550FAA0BE0E8FEEF16161706F8
:1051F000E807F907C0F012161306E407F50798F060
:10520000621B730B840B950B39F40A2661F0232B78
:10521000242B252B21F408950A2609F4A140A695F4
:105220008FEF811D811D089597F99F6780E870E0D9
:1052300060E008959F3F31F0915020F48795779575
:105240006795B795880F911D9695879597F908955D
:105250009FEF80EC0895DF93CF931F930F93FF92FE
:10526000EF92DF927B018C01689406C0DA2EEF0189
:105270000E94CE29FE01E894A59125913591459192
:105280005591A6F3EF010E940427FE019701A801A2
:10529000DA9469F7DF90EF90FF900F911F91CF9113
:1052A000DF9108959F938F937F936F93FF93EF9375
:1052B0009B01AC010E94BB29EF91FF910E942B2919
:1052C0002F913F914F915F910C94BB2900240A9438
:1052D0001616170618060906089500240A941216D1
:1052E0001306140605060895092E0394000C11F404
:1052F000882352F0BB0F40F4BF2B11F460FF04C0B1
:105300006F5F7F4F8F4F9F4F089557FD9058440F09
:10531000551F59F05F3F71F04795880F97FB991F14
:1053200061F09F3F79F087950895121613061406D1
:10533000551FF2CF4695F1DF08C01616170618065E
:10534000991FF1CF86957105610508940895E89439
:10535000BB2766277727CB0197F908950E94F0288D
:1053600008F48FEF08959B01AC0160E070E080E8E5
:105370009FE30C94EB270E94CE290C9474290E9481
:10538000662938F00E946D2920F0952311F00C94C5
:1053900014290C94282911240C94A8290E948529E9
:1053A00070F3959FC1F3950F50E0551F629FF00178
:1053B000729FBB27F00DB11D639FAA27F00DB11D91
:1053C000AA1F649F6627B00DA11D661F829F22271A
:1053D000B00DA11D621F739FB00DA11D621F839FA1
:1053E000A00D611D221F749F3327A00D611D231F77
:1053F000849F600D211D822F762F6A2F11249F57C5
:1054000050409AF0F1F088234AF0EE0FFF1FBB1FC7
:10541000661F771F881F91505040A9F79E3F510586
:1054200080F00C9414290C94A8295F3FE4F3983E73
:10543000D4F3869577956795B795F795E7959F5F30
:10544000C1F7FE2B880F911D9695879597F90895C2
:1054500019F416F40C9428290C941A290E948D2909
:10546000B8F39923C9F3B6F39F57550B87FF0E94F2
:10547000772A0024A0E640EA900180585695979537
:1054800028F4805C660F771F881F20F026173707E7
:10549000480730F4621B730B840B202931294A2BF7
:1054A000A69517940794202531254A2758F7660FAB
:1054B000771F881F20F026173707480730F4620B44
:1054C000730B840B200D311D411DA09581F7B9018F
:1054D000842F9158880F9695879508959B01AC016C
:1054E0000C94BB290E94F028880B990B08959150C9
:1054F0005040660F771F881FD2F70895991B79E0F7
:1055000004C0991F961708F0961B881F7A95C9F753
:105510008095089597FB072E16F4009407D077FD29
:1055200009D00E94CB2A07FC05D03EF490958195C6
:105530009F4F0895709561957F4F0895A1E21A2EAF
:10554000AA1BBB1BFD010DC0AA1FBB1FEE1FFF1F27
:10555000A217B307E407F50720F0A21BB30BE40B77
:10556000F50B661F771F881F991F1A9469F76095BE
:105570007095809590959B01AC01BD01CF01089578
:105580000E94E52AA59F900DB49F900DA49F800DC9
:10559000911D11240895AA1BBB1B51E107C0AA1F2E
:1055A000BB1FA617B70710F0A61BB70B881F991FC4
:1055B0005A95A9F780959095BC01CD010895EE0FFD
:1055C000FF1F0590F491E02D0994A29FB001B39FB5
:1055D000C001A39F700D811D1124911DB29F700DFC
:1055E000811D1124911D0895CF93DF938230910581
:1055F00010F482E090E0E0918103F091820320E0DA
:1056000030E0C0E0D0E0309711F14081518148177F
:105610005907C0F04817590761F482819381209798
:1056200019F09B838A832BC090938203809381031C
:1056300026C02115310519F04217530718F49A01B5
:10564000BE01DF01EF010280F381E02DDCCF2115E7
:10565000310509F1281B390B2430310590F41296DD
:105660008D919C9113976115710521F0FB01938336
:10567000828304C09093820380938103FD0132965C
:1056800044C0FD01E20FF31F819391932250310931
:105690002D933C933AC020917F0330918003232BBC
:1056A00041F4209102013091030130938003209353
:1056B0007F0320910001309101012115310541F452
:1056C0002DB73EB74091040150910501241B350BC5
:1056D000E0917F03F0918003E217F307A0F42E1B03
:1056E0003F0B2817390778F0AC014E5F5F4F241746
:1056F000350748F04E0F5F1F5093800340937F03A0
:105700008193919302C0E0E0F0E0CF01DF91CF916F
:1057100008950F931F93CF93DF93009709F48CC0E4
:10572000FC0132971382128200918103109182034F
:105730000115110581F420813181820F931F209181
:105740007F03309180032817390779F5F0938003A0
:10575000E0937F0371C0D80140E050E0AE17BF076F
:1057600050F412962D913C911397AD0121153105FE
:1057700009F1D901F3CF9D01DA01338322836081DE
:105780007181860F971F8217930769F4EC012881B6
:105790003981260F371F2E5F3F4F318320838A8147
:1057A0009B8193838283452B29F4F0938203E093BA
:1057B000810342C01396FC93EE931297ED01499139
:1057C00059919E01240F351FE217F30771F4808170
:1057D0009181840F951F029611969C938E938281DE
:1057E000938113969C938E931297E0E0F0E0D8019A
:1057F00012968D919C911397009719F0F8018C01E6
:10580000F6CF8D919C9198012E5F3F4F820F931F91
:1058100020917F03309180032817390769F430976E
:1058200029F4109282031092810302C01382128223
:105830001093800300937F03DF91CF911F910F910D
:105840000895A0E0B0E0E7E2FCE20C94052DEC0145
:10585000009721F4CB010E94F42AB8C0FC01E60FA6
:10586000F71F9C0122503109E217F30708F4ACC07E
:10587000D9010D911C91119706171707B0F005304B
:10588000110508F49FC0C80104978617970708F40C
:1058900099C002501109061B170B019311936D93C8
:1058A0007C93CF010E94892B8DC05B01A01AB10AA5
:1058B0004C01800E911EA0918103B091820340E0C3
:1058C00050E0E12CF12C109709F44AC0A815B90555
:1058D000D1F56D907C901197630182E0C80ED11CC8
:1058E000CA14DB0480F1A3014A195B096A0182E052
:1058F000C80ED11C1296BC9012971396AC91B5E0CD
:10590000CB16D10440F0B282A38351834083D901E6
:105910006D937C930AC00E5F1F4FC301800F911FD0
:10592000F90191838083EB2DFA2FE114F10431F01A
:10593000D7011396FC93EE93129744C0F093820321
:10594000E09381033FC08D919C91119748175907AF
:1059500008F4AC017D0112960D90BC91A02DB3CF3F
:1059600080917F039091800388159905E1F4461793
:105970005707C8F48091000190910101009741F40C
:105980008DB79EB74091040150910501841B950B82
:10599000E817F907C8F4F0938003E0937F03F90157
:1059A000718360830FC0CB010E94F42A7C010097B1
:1059B00059F0A801BE010E94F82CCE010E94892B4B
:1059C000C70104C0CE0102C080E090E0CDB7DEB7D1
:1059D000EEE00C94212DFB01DC0104C08D910190BF
:1059E000801921F441505040C8F7881B990B089545
:1059F000FB01DC0102C001900D9241505040D8F7EC
:105A000008952F923F924F925F926F927F928F9262
:105A10009F92AF92BF92CF92DF92EF92FF920F933D
:105A20001F93CF93DF93CDB7DEB7CA1BDB0B0FB647
:105A3000F894DEBF0FBECDBF09942A883988488804
:105A40005F846E847D848C849B84AA84B984C8849A
:105A5000DF80EE80FD800C811B81AA81B981CE0F91
:105A6000D11D0FB6F894DEBF0FBECDBFED01089576
:045A7000F894FFCFD8
:105A7400000083032000E803000080BF000080BF13
:105A84000000803F0000803F000080BF000080BF16
:105A9400000080BF000080BF000080BF0000803F86
:105AA400000080BF0000803F000080BF0000803FF6
:105AB4000000803F000080BF000080BF0000803FE6
:105AC400000080BF000080BF000080BF0000803F56
:105AD4000000803F0000803F000080BF000080BFC6
